:1000000008210020C11B0000EB620000AD1B0000B6
:1000100000000000000000000000000000000000E0
:10002000000000000000000000000000A11C000013
:100030000000000000000000311C0000E12C000066
:10004000F11D0000F11D0000F11D0000F11D000078
:10005000F11D0000F11D0000F11D0000F11D000068
:10006000F11D0000F11D0000F11D0000F11D000058
:10007000F11D0000F11D0000F11D0000F11D000048
:10008000F11D0000F11D0000F11D0000F11D000038
:10009000F11D0000F11D0000F11D0000F11D000028
:1000A000F11D0000F11D0000F11D0000F11D000018
:1000B00002B4714649084900095649008E4402BC01
:1000C0007047C04602B4714649084900095C4900BE
:1000D0008E4402BC7047C04603B4714649084000D4
:1000E0004900095A49008E4403BC7047002934D0A6
:1000F0000123002210B488422CD301242407A142FA
:1001000004D2814202D209011B01F8E7E400A142B6
:1001100004D2814202D249005B00F8E7884201D351
:10012000401A1A434C08A04202D3001B5C08224329
:100130008C08A04202D3001B9C082243CC08A0429A
:1001400002D3001BDC082243002803D01B0901D086
:100150000909E3E7100010BC704701B5002000F06A
:100160005FF802BD0029F8D003B5FFF7C1FF0EBC50
:100170004243891A1847C046002941D010B40400F0
:100180004C40A44601230022002900D54942002802
:1001900000D5404288422CD301242407A14204D236
:1001A000814202D209011B01F8E7E400A14204D216
:1001B000814202D249005B00F8E7884201D3401A2D
:1001C0001A434C08A04202D3001B5C0822438C084F
:1001D000A04202D3001B9C082243CC08A04202D3B9
:1001E000001BDC082243002803D01B0901D00909A9
:1001F000E3E710006446002C00D5404210BC704775
:1002000001B5002000F00CF802BDC0460029F7D06F
:1002100003B5FFF7B3FF0EBC4243891A1847C04627
:100220007047C046D0400B00D1409C46203AD34096
:10023000184352426346934018437047D0400B0026
:100240001141203A03D49C4613411843634652425D
:10025000934018437047C0469140030090409C462D
:10026000203A9340194352426346D34019437047A2
:100270001C2101231B04984201D3000C10391B0AD6
:10028000984201D3000A08391B09984201D300099A
:10029000043902A2105C40187047C04604030202F1
:1002A000010101010000000000000000414208407F
:1002B0001C2101231B04984201D3000C10391B0A96
:1002C000984201D3000A08391B09984201D300095A
:1002D000043902A2105C401A7047C0461B1C1D1D49
:1002E0001E1E1E1E1F1F1F1F1F1F1F1F002B11D191
:1002F000002A0FD1002900D1002802D00021C943D3
:10030000080007B4024802A14018029003BDC0468D
:1003100011FFFFFF03B4684601B5029800F03BF8F7
:10032000019B9E4602B00CBC7047C04610B5002928
:1003300003D1FFF79DFF203002E00800FFF798FF90
:1003400010BDC0460023C25C0133002AFBD1581EF9
:100350007047F7B5040C0D0091B20F0061438C4655
:100360000600019383B2100C5F43444358433B0C97
:1003700060441B18994202D98021490264180199EE
:1003800055437143180C04191B04BFB24919D819FD
:10039000091903B0F0BDF0B506000F0015001C00F0
:1003A00085B08B4263D801D1824260D821002800F9
:1003B000FFF7BCFF390000903000FFF7B7FF009B4C
:1003C00021001B1A1A0028000393FFF745FF009035
:1003D0000191B94245D801D1B04242D8009B019C5D
:1003E00001200021039AF61AA741FFF735FF040008
:1003F0000D00039B002B2BD0019B009ADB075008BC
:100400001843019B5908039B9C46B9422CD801D143
:10041000B04229D832003B00121A8B4101269218B3
:100420005B410027B6185F4101235B429C44634651
:10043000002BEAD130003900039AFFF7F3FE039A4C
:10044000A4197D4106000F00FFF706FF241A8D4115
:100450000A9B002B01D01E605F602000290005B0C0
:10046000F0BD00240025C4E7B6197F41DCE7002475
:100470000025EDE770B5114805F038FB104D280058
:1004800006F0A0F9041E13D080232A691B0310680C
:10049000A968034313600B6828001321094A984791
:1004A000094805F023FB0021084803F03FF9FAE76B
:1004B000074805F01BFB200070BDC046F077000028
:1004C000D070000001000A001C7800001027000016
:1004D0000B780000F0B597B0059304230B921A40F7
:1004E0000B9B0A92DA0807231A40013207001C9D71
:1004F00003910D92820700D0C5E1041D002804D0AD
:10050000072909D81C20404254E1039A1A401300DD
:10051000A4180822D31A0393059B0426013B0693D3
:10052000002309930C9304930293013B07930196D4
:10053000002F01D0059B23600D9B002B00DDF1E017
:100540009D4B059A9A4203D39C4B9A4200D2E9E014
:100550000B99E21B9308890700D50DE1049A0F2A35
:1005600000D9BBE0002F00D10EE104990EAA53542C
:100570000A00079912AB99540C9B01330C93F4E0D9
:1005800008260196069B01330693069B987800285F
:1005900000D105E1029B002B08D12528F2D1079B51
:1005A00001330793012302930426EAE77A284AD805
:1005B0004B280ED8472846D829282CD825283FD0A4
:1005C00041D82028DED0233843425841C3B2029399
:1005D000D8E74C382E2836D8FFF76AFDD4353535A4
:1005E00035353535353535353735353535353535B9
:1005F0003561353737616161D437D235D435183735
:1006000018353579E63735353735E6000023089358
:100610000426029327E0012213002A38C0B2834047
:1006200067490B42AED1E2211800890508400B4210
:1006300035D11900114002911342A3D0089013E064
:10064000079B013B07930023C1E70022069B08920A
:100650005B7802926C2B07D10426069B01961B78CF
:100660006C2B01D1B6190196013CA0193100FFF79E
:100670003DFD70430400002F3BD0019B039ADB1B20
:100680001B18934200D93DE7089B002B41D1019BE9
:10069000042B20D108CD03600423043415E0072186
:1006A00007358D4364188C430CCD002F08D00131E1
:1006B000C91B03980919814200D923E722606360AE
:1006C0000023082602933300083401935AE7029B63
:1006D000089300239CE7019B082B01D0162012E70A
:1006E000072307359D430CCD02604360082308347F
:1006F000EBE7089B002B0CD1019B042B01D10435A7
:10070000CAE7019B082BE9D10735013B9D4308351A
:10071000ECE7069B023306930D9B013B0D9308CD3E
:10072000059305E70B9B9B0722D50121E21B93084C
:10073000802080008242D1D2049A0F2ACED8002F86
:100740001CD00498DBB20EAA13549C46079B12AA35
:100750001354002900D10FE780226346524213430D
:100760000EAA1354099B01330993049B013304938C
:10077000069B0434013B07E70021D9E7002903D099
:10078000039B01330393F0E7039B023303930A9B1C
:10079000002BEAD10598FFF7D5FD039B1B18F1E765
:1007A0008022E31BD200934298D2002F0AD10398F3
:1007B0000838C01817B0F0BD147000002C8000007D
:1007C000DAFF00009B08302238603B706B469B18B4
:1007D0000A9A1B78002A0BD0FB70099BBB70002B78
:1007E0001BD100250EAE049BAB421BD1E01BE1E701
:1007F0007B70F2E70EADED560EA9595C002D07DABD
:10080000039E15190140B54200D97BE621700134E1
:10081000013304999942EDD1E3E7012200237F20BF
:10082000D21BF6E7099B002B02D033787F2B1BD815
:100830000A9B002B1BD012ABEB5C2370002301340E
:1008400001930123019ADB1B1B199B18039A934206
:1008500000D957E63378019A2370013420000599B6
:1008600006F0B5FB019B1C1901350136BBE7337857
:100870009B00FB181A6805920A9A05981A60FFF700
:1008800061FD431CDCE70E203DE6C046F0B59BB0A1
:1008900000AF3B628023FB181B6806001B07DB0FC1
:1008A0007B618378F9623A63BB6300290AD10478DB
:1008B000BB6BA400E41845780419FB6A9D421BD861
:1008C000A31BFB62F378BB61BB6B002B04D08023BE
:1008D000FB181B68DB0719D4BB69002B47D13B6BA6
:1008E000002B03D030003A6AF96A9847FB6AFB6331
:1008F000BD46F86B1BB0F0BD01342000FFF722FDB0
:10090000FB6A013001332418FB62D6E73378FB61C0
:100910009B007B627368BB627B6AF5183B6B002BA4
:1009200000D029E1FB6AFB63BB6BEC180023BB63BF
:10093000A54232D02B789B009859FFF703FD842104
:100940007B181B680130002B0CD08822BA18BB6BB7
:100950001268934206D27A1812685B009852BB6BF9
:100960000133BB63FB6B01351B18FB63E0E780239E
:10097000FB181B689B07B2D53378FB619B007B6239
:100980007368BB627B6AF5183B6B002B77D1FB6AFF
:10099000FB63BB6BEC183B6BBB6380220523BA186F
:1009A0001268250013405A4253410133FB62BB6970
:1009B0005B00E3183B633B6BAB4299D02B787B63C6
:1009C0006B789B009C59B84B9C4202D3B74B9C421E
:1009D00023D37B69002B33D0796BB86A05F05FF8BD
:1009E00000282DD06C468AB06A46B14B5361BB6A71
:1009F00093617B6BD36180239B001384AD4B1361A8
:100A000092210023AC481032890100F0A3FCA546D6
:100A1000FB6B023BFB630235CDE77B69002B05D006
:100A2000796BB86A05F03BF80028DBD180230122FE
:100A3000FB181B68134209D1FB6BFA6A9B1AE9E7A2
:100A400080230222FB181B681342E4D02000FFF72A
:100A500079FC84217B181B68002B0DD08822BA18E2
:100A6000BB6B1268934207D2791809685B00421C7D
:100A70005A52BB6B0133BB63FB6B1B18CAE7BB6BE2
:100A80001C1E7B6315D0802104237A1812681A403B
:100A900014007A637A1812681A420AD00023BC6BD9
:100AA0007B63183340229B182900BA6BD81906F0D3
:100AB0008EFABB6BEB18FB60FB63BB695B003B61B1
:100AC0003A69FB68944663447B60FB6B7A689342A7
:100AD00057D17B6B757800215A198023FB181B684E
:100AE000D2B29B0700D46108802038180068002328
:100AF000C00705D48033FB181B685B07DB17234056
:100B00007270B370F17030003A6A796A3B6B984743
:100B1000F863002800DAEBE6FB6940203370BB6B1A
:100B20002100B370BB693A6AF37018231B18D819F7
:100B300075703B6B9847041E00DAB1E0FB6ABA6B34
:100B4000F868991A7B6A3A6AC91A3B699C46C91ABD
:100B500060443B6B9847002800DAA3E00025FB6B5C
:100B60001C192318FB637B6B9D4261D300213A6AF9
:100B700008003B6B9847BBE6BB6B00247B630823F4
:100B800090E7FB6B484A1B78BB60FB6B5D78AB0062
:100B90009B59934202D3454A93420CD37B69002B65
:100BA00030D0B968B86A04F07AFF00282AD0FB6B0D
:100BB0000233FB6389E77B69002B05D0B968B86A0B
:100BC00004F06DFF0028F2D180230122FB181B687E
:100BD00013420AD07B6B9B18073240215218796B65
:100BE000D219DBB255547B63E1E78023FB181B6805
:100BF0005B07DCD5182240215218631CD219155509
:100C0000DCB2D4E780230222FB181B68134203D016
:100C10007B6B06320133E0E7402118225218B96895
:100C2000631CD2191155DBB20234E4B2D554BEE7CD
:100C3000402208239B18DB19EB5C0732BA181370AB
:100C400084229B009B59BB63BB181C68002C09D0F5
:100C50008823FB181B6800249D4203D2BA1812682F
:100C60006B00D45A47230121F8183A6A3B6B984726
:100C7000002817DBFB6B1B18FB63002C04D1B86B3F
:100C8000FFF760FB013084B221003A6AB86B3B6B1E
:100C90009847002806DBFB6B01351B18FB6362E7F6
:100CA000F86325E6F86323E6147000002C8000004A
:100CB0002878000004000001B4720000014B1860A5
:100CC0007047C04600000020F7B504000D001E006C
:100CD000019202F06BFD030006F092F9054F32001D
:100CE0003B5001992800A04706F08AF9385800F0D7
:100CF00083FFC0460800000010B52E4B2E4A196A2B
:100D0000114042220A431A62DA681207FCD5002118
:100D10002A4A91605178C909FCD183214902516066
:100D20005178C909FCD16F31FF319982D96889079F
:100D3000FCD50221FF3191605178C909FCD12049CD
:100D400051605178C909FCD18221C901518091219A
:100D5000890099841B481C49006809688005890E30
:100D60008902800D014399621849D962D968C90680
:100D7000FCD50221988C01439984D9680906FCD5D9
:100D8000D9684906F9D51E21114C606888431A3983
:100D9000014361608021490091605178C909FCD10B
:100DA0000C4951605178C909FCD11A6A02318A4351
:100DB0001A6210BD000800400000FFCF000C004088
:100DC000010521002860800024608000B805FF7DB7
:100DD0000040004100070100F7B505000600002DA6
:100DE00001D13000FEBD2800FFF760FA01238340E7
:100DF000DA430E4F04019D433B1901931B7B009284
:100E0000002BECD0E3591B69002B09D1009B3C1946
:100E10001E40636804221968019805F05AF9DEE75C
:100E2000381998470028DAD1F0E7C046F47200007C
:100E3000F0B5002289B00F490F4805F0EAFE002402
:100E4000002600270E20C0220C4D0390069607971F
:100E500028000B4B0B4904940294019400949200D7
:100E600002F050FA0849280005F092FD200009B070
:100E7000F0BDC0468D0E000000060020800100205D
:100E800091110000080A0020E778000010B5024820
:100E900002F0A0F910BDC046E4000020F7B50090B4
:100EA0001F48019105F0F4F8061E35D000252800F2
:100EB000FEBD237B002B11D02368DB68002B01D003
:100EC0002000984763689F7123681B69002B1BD122
:100ED000636804222000196805F0FBF8013610341D
:100EE000104B9C42E5D3009B002BE0D0002DDDD0C1
:100EF0002800FFF771FF019B0500002BF6D00021B1
:100F0000642002F013FCF1E7200098470028DFD0AE
:100F10003B00B3401D43E1E705000127024CDFE73A
:100F2000E008002004730000F4720000014B800010
:100F3000C0587047AC750000030010B50800002BC6
:100F400005D0044A136000F0B1FC002010BD16204B
:100F50004042FBE70400002010B5054C2378002B2D
:100F600002D1044802F036F90123237010BDC046B7
:100F7000000A0020E400002010B50400074805F036
:100F800087F8002C03D00121054805F074FE0548C0
:100F900005F04BFE044802F01DF910BDD8080020F2
:100FA000DC08002000060020E400002010B500212D
:100FB000014805F06DFE10BDD808002070B5FFF7A0
:100FC000F5FF0500084C094B9C4200D370BD6368D7
:100FD0005B79002B06D023685B68002B02D02900C8
:100FE000200098471034EEE7F4720000047300000C
:100FF00010B5044C0449200004F082FE034B1C6031
:1010000010BDC046A000002098750000D008002048
:101010000023FA210C4A10B513700C4A89001360A2
:101020000B4A0C481360FFF787FFFFF7E1FF0A4BFD
:101030000A4918008B4200D310BD1A1A5C681211BD
:10104000013222711033F5E7010A0020D808002090
:10105000DC0800209B600000F472000004730000B4
:1010600010B5044C010000220023200004F069FEAA
:1010700010BDC046A000002010B5024804F0FBFEE1
:1010800010BDC046A000002010B5034B0100186839
:1010900004F04AFF10BDC046D008002010B5024839
:1010A00004F07BFF10BDC046A000002070B5204BAF
:1010B0001878002826D0FFF7DFFF1E4C051E2CD124
:1010C0001D4B1E4C1B68002B11DD05F057FD0A223D
:1010D0000023FFF70BF922686368801A9941002901
:1010E00003D1FA239B00984201D9FFF767FF2268DA
:1010F0006368FA200021800012184B41226063606F
:10110000FFF7CCFF70BD63685B79002B04D02368C8
:10111000290020001B6898471034094B9C42F2D3E9
:101120002800FFF7B1FF0121064805F0A4FDC7E73D
:10113000000A0020F4720000D8080020F805002002
:1011400004730000DC08002070B50E4D29780029DA
:101150000CD10120FFF7A2FE0B4C0C4B9C4206D396
:10116000FFF7A4FF0028FBD101232B7070BD63683B
:101170005B79002B03D0236820009B6898471034CC
:10118000EBE7C046010A0020F4720000047300007F
:10119000F7B500210800FFF781FE041E2DD0FA27C5
:1011A00000267F0005F02CFF1C4B1D4A1B581360C6
:1011B000002B06D01B4B1B68092B02DD1A4802F0DE
:1011C00009F800230093002C07D02000FFF704FE4D
:1011D000041E02D101277F423E00FFF767FF019006
:1011E000002808D1009B114D002B13D10E483A0066
:1011F000330002F027F8019BE4E701277F423E001D
:10120000D0E72B689B69002B03D000222800110037
:1012100098471035064B9D42F3D3E7E708000000DE
:10122000D4080020DC080020E4000020F472000054
:101230000473000013B5154804F02AFF144B1B7803
:10124000002B0AD0EFF3108472B6FFF72FFF002CAB
:1012500002D162B6BFF36F8F13BD0E4B1B68002B1C
:10126000FAD0002809D1002200230B4800920193F4
:1012700000230A4A02F0AAFDEEE70928ECD106484D
:1012800005F0D3FC064801F0A5FFE5E7DC080020E7
:10129000010A0020D40800200006002010270000CA
:1012A000E400002010B5064B04001B68984721009D
:1012B000A060044804F0C3FDFFF7BCFF10BDC046AA
:1012C00004000020A0000020044B054A00209B1AC7
:1012D000DB08994201D2C90088587047F4720000B7
:1012E0009C720000F0B55E1C85B0B500009028002F
:1012F000072317309843033080080F000192FFF74F
:10130000AFFE02AB04000322581D002105F068FE69
:1013100003AB1E70002C0BD0039B21002361002324
:1013200014312A1F0198C058C85004339A42F9D189
:10133000E023BA015B001A406D02054B2A431A40B4
:1013400020000023009904F0E8FE05B0F0BDC0467F
:10135000C0FF0F00F0B591B004AF3B600B035B0D15
:101360000D0078607A613B610C0D002B00D173E0B9
:10137000BB60002604237E62BE62FE6202931833C5
:10138000FB1801930A231822009302339B18DB19E0
:101390003200B9687869FFF779FA8023F8601B0199
:1013A000984224D37B696C461A795B798AB01B0218
:1013B00013437A69927912041A437B69DB791B061D
:1013C000134304AA9361294B2949D36180239B00CD
:1013D0001384284B51611361922133002648103247
:1013E0008901FFF7B7FFA546BD460DB0F0BDFB680C
:1013F00017345B055A0D3A61204A1B0B15401D43FB
:10140000FB68E0180723984303308008FFF728FEA5
:10141000041E15D0030010337B62FB68FE62BB62C2
:10142000042302931833FB1801930A231821009315
:1014300002335B18124AB9687869DB19FFF726FA9C
:101440003B690E4A5B0215401D432A0020003B68A1
:10145000796804F062FEC7E720000723173098433D
:1014600003308008FFF7FCFD0400E9E7FF070000F8
:10147000FC78000004000001BC720000FF01F0FFD6
:10148000E9600000F0B587B00E9F040015000291DE
:101490000393002F15D00F9B10210593009300207C
:1014A0003B000D9AFFF716F8802306001B019842B7
:1014B00008D30221174A1848184B04F04EFE07B013
:1014C000F0BD3E00072322000C9C1D401A40D200B4
:1014D0001734AD011543A0197202154398430C9AB5
:1014E0000330120580081543FFF7BAFD041E09D02A
:1014F000002F07D00F9B310000930D9A3B00103056
:10150000FEF7E8FF2A002000039B029904F005FE85
:10151000D5E7C0463B790000BC720000FF07000021
:101520004068002804D0044BC01AC00800B27047BD
:1015300001204042FBE7C0469C7200000EB417B584
:10154000054C05AB04CB01002000019300F060FCCA
:101550001EBC08BC03B01847B761000010B5CB062D
:1015600004D4890603D50349FFF7E8FF10BD0249FB
:10157000FAE7C0467479000073790000F0B591B0C5
:10158000079317AB1F7804000D000692002F00D1BF
:10159000B7E002261B9B1B9A1E4001231A400C92A7
:1015A0001B9A07331A4008921B9AF8331A40099283
:1015B00004F08DFD002302000593984204D0200022
:1015C0008F49FFF7BBFF0590002E0BD044231B9AD9
:1015D0001A4238D12A0020008A49FFF7AFFF059B45
:1015E0001B1805930C9B002B09D0874BBA00D258CF
:1015F000002A00D1854A20008549FFF79FFF099BFB
:10160000002B5CD0089B002B78D11D00069B002B83
:1016100005D01A0020007F49FFF790FF0500059BC9
:101620007D48EB180593189B002B00D0C0E01A9B57
:10163000002B74D11B9BDB0700D5DBE020001B993E
:10164000FFF78CFFBFE00020744B1E688642C6D0B7
:10165000734B28001968FEF749FDFA253100FEF7A3
:1016600081FDAD0069430A9008003100FEF77AFD64
:101670000E91E1210D9009010A98FEF773FD0B917F
:101680000B983C21FEF732FDE1210F9009010A98E9
:10169000FEF72CFD0A900E9831006843FEF726FDF8
:1016A0000D9B02903C210B980193FEF75BFD2000FF
:1016B00000910F9B0A9A5B49FFF740FF8FE7089B59
:1016C000099D002B07D0584BBA0020005749D2582B
:1016D000FFF734FF0500069B002B05D01A00200001
:1016E0004C49FFF72BFF2D18079B002B97D01A00B2
:1016F00020004F49FFF722FF2D1890E700230793A2
:10170000E1E7079B4B48012B00D14348189B059705
:10171000002B4DD11A9B002B55D0002305931A9E08
:10172000102E00D9102620001B99FFF717FF002567
:10173000059BAB424CDC199B20001A783E49FFF711
:10174000FDFE012507231D4203D120003B49FFF781
:10175000F5FEAE4242D9199B20005A5D3649FFF78B
:10176000EDFE0135102DEDD1002520003449FFF7A5
:10177000E5FE2B006821199AD25C324B9B5C8B43AF
:1017800000D12E2220003049FFF7D8FE0135102D60
:1017900029D007231D4203D120002849FFF7CEFEA0
:1017A0002B00AE42E6D820002449FFF7C7FEEDE744
:1017B000189B2200254904F03EF91A9B002BAED15C
:1017C000002F00D036E7200004F0E9FC11B0F0BD96
:1017D00020001A49FFF7B2FE0135A9E720001C4995
:1017E000FFF7ACFEBDE7199B9B1919931A9B9B1B36
:1017F0001A93E3E72000054A0549FFF79FFE1DE71E
:101800007B7900007F790000BC75000076790000CC
:10181000A4790000A7790000B7610000E808002063
:10182000E408002088790000D0750000AB79000042
:10183000B1790000DD610000B6790000BE790000DA
:10184000C07900001E7F0000C2790000111E000058
:10185000BC79000073B5114A04000B000568914281
:1018600000D91300052168460D4A02F0C5FC0600A8
:10187000636828000B220B495B6804F081FC6368F5
:101880003200280069465B6804F07AFC636828002F
:101890001B2205495B6804F073FC73BD0F27000031
:1018A000D27A0000E1790000C5790000012310B56B
:1018B00000211C00074A904207D8074A002900D19E
:1018C00001231360054B186010BD210040085B0028
:1018D000F1E7C04640420F00E4080020E80800207D
:1018E00070B50D0004004618B44201D1280070BD47
:1018F00021780348013483685B689847F4E7C04661
:101900000871000010B5034A03480021121A04F0C0
:10191000DEFC10BD080A0020800100200648074AAE
:1019200010B5121A064904F0D6FC064A06480749C3
:10193000121A04F0D0FC10BD00000020800100202D
:101940002C80000000000020000000202C800000FF
:10195000F0B585B000AF0C1EB86036D06E468AB0C8
:101960006D4609686268A3682B6205232048A96157
:101970006861EA612B61A1212A001E481032002310
:1019800089017A60F860FFF7E5FCB546E168AD468D
:10199000226963692B6205231748A9616861EA61BE
:1019A0002B61A12100237A68F8688901FFF7D2FC36
:1019B000B546E3690121114AF86804F0CEFBA3693A
:1019C00001210F4AF86804F0C8FBBB68012B07D15E
:1019D000EFF305830B4A0748B968103B04F0BDFBE1
:1019E0002100B86801F042FABD4605B0F0BDC0461E
:1019F000277A0000E4720000567A0000857A000021
:101A0000947A0000C27A000030BFFDE7F7B50A4BB8
:101A10000A4D0600EF18CC1B2A002000084901934C
:101A200005F0D5FA60190021019A05F0D9FA3800BD
:101A3000083CB4660830FEBD040000000000000051
:101A400004730000054B5A699B689A4205D08023B5
:101A5000034A5B0551680B4353607047CC09002073
:101A600000ED00E0F0B53E4B8BB05B6800AF7B60F3
:101A7000DB05DB0D04003B6062B6BFF36F8F394EB0
:101A8000130EFF2B08D1F33B1340082B3DD101214E
:101A90003000354A04F05AFB00252C003B68032B2C
:101AA00039D1324A0121300004F050FBA369304A99
:101AB000934202D32F4A934205D32F4A934249D3EC
:101AC0002E4A934246D2023B1A882D4B9A4241D16C
:101AD0002368012130002B4A04F03FFB26680823CD
:101AE0002022F818210005F072FA7B6A002D33D00D
:101AF000DA0502D1244A13437B6208233000F91827
:101B0000FFF726FFBD460BB0F0BD01251207C5D576
:101B10000C000025C2E7F822796852001B4B1142E5
:101B200000D01B4B6A468AB07A606A4693613B6874
:101B30001849103BD36180239B001384164B5161DD
:101B4000136191210023300010328901FFF702FC5C
:101B50007B689D460026C2E75B0A5B02CCE7C04675
:101B600000ED00E0E4720000037B00002E7B00002B
:101B7000B00000000C7000000000002000000020F9
:101B800002DF0000457B0000FF010000D57A000065
:101B9000EA7A0000617B0000040000010821024A8B
:101BA00053698B435361704700ED00E0EFF3088009
:101BB000EFF3098101B57246FFF754FF01BDC0463E
:101BC0000A4880F30888FFF797F872B60848094971
:101BD000401880F30988EFF314800221084380F352
:101BE0001488BFF36F8F04F08CFB000008210020E5
:101BF000081000200008000010B50A4B9B688342C3
:101C00000DD1EFF30583002B09D08022064B52053E
:101C100059680A435A605A6A04490A405A6201F0F4
:101C2000CBFD10BDCC09002000ED00E0FF7FFFFFE1
:101C300015498A6815481044EFF3098CF0C04346F3
:101C40004C4655465E466746F8C072B6104F114E78
:101C50004A698A603E60104C141920680F4C20605D
:101C6000D06E0023D366002800D162B6074C10194D
:101C70001030F8C89846A146AA46B346BC46243858
:101C8000F0C88CF309887047CC09002030000000B0
:101C900004ED00E0000000086800000018090020C2
:101CA00004207146014202D0EFF3098001D1EFF325
:101CB00008808169023909780229FFD001B572468E
:101CC00004F00DFB01BDC04643B2000605D41F223F
:101CD0001A4001239340014A1360704700E100E07D
:101CE00030B5FF2503220B00290040B20240D2008C
:101CF00091409B012B40C943934000280ADBC0243C
:101D00000A4A800880008018A40002590A40134340
:101D1000035130BD0F2210400838054A800880006A
:101D20008018C26911401943C161F2E700E100E087
:101D300000ED00E0FF22044B9343044A9360BFF39D
:101D40004F8FBFF36F8F70470000000000ED00E081
:101D500010B5203A1360029B01245360039B06498F
:101D60009360049BA143D36080235B04D361002371
:101D700091610265C36610BDC90C000070B50B4BC4
:101D800015009860826E0A4B0E001A602C1C86F3B8
:101D900009880020034B9847201C002100220023C3
:101DA000014C20471F630000C90C0000CC09002033
:101DB000180900201022014B1A61704700ED00E065
:101DC000F0B5C02400220326FF25A40010002F0038
:101DD0003040C0008740054993089B005B181959A3
:101DE0000132B94319511C2AF0D1F0BD00E100E0E5
:101DF00010B5EFF30583054A103BDB00D1184968A5
:101E000098588847FFF71EFE10BDC046407100007D
:101E1000F0B587B007000E001400002110226846BC
:101E20001D0005F0DDF86A4602239370054B2A0079
:101E30002100684601930497059602F0E1FA07B085
:101E4000F0BDC0463963000010B5024B1B689847CF
:101E5000002010BD1C090020034B044A1860022317
:101E600091780B43937070471C09002010000020EC
:101E7000072310B50449054A99430548521A03F04F
:101E8000A0FD002010BDC046F32D002000800020E2
:101E90002009002070B541690400867A0A4D0029A6
:101EA0000BD0437ADB0706D42C237343EB185B6A11
:101EB0001B689B689847002363612C2373432100B0
:101EC000E81804F046FD70BDFC0000202C234343BD
:101ED000014818187047C046FC0000202C2210B59D
:101EE000817A064B4A439B189A6A197F03231B3158
:101EF000801A9943FEF7FAF810BDC046FC00002096
:101F00002C2270B5847A064B62439B185B6A9C68EE
:101F10005A680C601568FFF7E1FF6043281870BD30
:101F2000FC000020F0B589B0050004A8019317005B
:101F3000079104F027FE049B059C02930394EFF3A2
:101F4000108672B66B8B002B47D02A8B9A422AD907
:101F500000220023280001F00FF9041E23D0002ED8
:101F600002D162B6BFF36F8F079B002B45D0029A58
:101F7000039B04A804F027FE2C22059B049F0193D9
:101F8000A17A264B4A439B185B6A3A001B682000E3
:101F90001D6807A9019BA847606100282ED1200079
:101FA000FFF778FF25E0698B4B1E6B83002E02D173
:101FB00062B6BFF36F8F03232A7FAC6A1B329A434A
:101FC0002B8B5B1A5343E418144B154AEB1A9B10E6
:101FD0005343A3722B7FE372C6E7002E02D162B691
:101FE000BFF36F8F3A002800019B01F0C5F8041E73
:101FF000BAD10024200009B0F0BD6361012300259F
:1020000020002381079B29006382E27A65601830F3
:1020100004F0E6FF63692582E360EBE7FC00002043
:10202000A38B2EBA70B52C24002800D170BD037A82
:102030004568002BFAD0013BDBB20372002BF5D1CF
:10204000827AC36062434360054B9B181B6A002B76
:1020500002D098472800E7E7FFF71CFFFAE7C046E1
:10206000FC00002070B50400807AFFF72FFF616943
:102070000500002909D0637ADB0704D4436A2000F5
:102080001B689B689847002363612100280004F0C7
:1020900060FC034B1B68002B01D02A20984770BDC1
:1020A0002C09002070B504000238C0B21E2803D8E5
:1020B0000C49C140C90708D4012123000A4A0B4832
:1020C00004F04BF80025280070BD094804F040F9E1
:1020D000051EF8D0074B013CE4B2195D0C3004F04A
:1020E0004EF9F0E7410000408B7B0000AC7200002D
:1020F000540100209F7B0000024A5378DB09FCD189
:102100007047C04600180040F8B500250F4A066920
:1021100013699CB2DBB21461AB4201D1240A0835C9
:102120000127002C00D1F8BD3C420CD038007319B7
:102130001A7E53069B0FDB00D206F318D20E904096
:1021400059681A68904764080135EAE700180040AA
:10215000402310B50B4A042091690B4393610A4B4D
:102160000A4A5A8000221100FFF7BAFD0420FFF747
:10217000ABFD0223064A11780B431370FFF7BCFF37
:10218000002010BD00040040000C0040054000008D
:102190000018004010B5094B04009B181B7E00205E
:1021A0007F2B09D95A06920F944205D1D806C00E4A
:1021B000401A43425841C0B210BDC0463009002009
:1021C000F0B585B003933D4B029242019B185D5CD4
:1021D000FF2D00D16FE0EFF31083019372B602225E
:1021E000374C237893432370364B5B191B7E7F2B30
:1021F00016D95A06920F824203D1DB06DB0E8B42C0
:102200000ED00223227813432370FFF775FF019B42
:10221000002B02D162B6BFF36F8F1020404240E026
:10222000284B0A9EC700FE500B9EDF197E601F26BA
:1022300003270E40802138404942314307224001A4
:1022400008435B1918760F202A40920090401C4BDF
:10225000E9108900C9188B698343029804280CD8B7
:10226000FDF730FF030709212300012090400343BD
:1022700003E00220FAE797403B430398002802D08E
:102280000820904003438B6102232278134323707C
:10229000FFF732FF0123AB402361019B002B06D0E7
:1022A000002005B0F0BD0420E0E70520DEE762B6BF
:1022B000BFF36F8FF4E78620B0E7C046D77B0000FE
:1022C0000018004030090020F7B51F4B42019B1851
:1022D0005C5C0E000190FF2C33D0EFF3108772B6D8
:1022E00002221A4D2B7893432B70FFF705FF220033
:1022F00031000198FFF74EFF002814D07F20012203
:10230000134BA2401B19197E014078381976E3104F
:102310000440A4000830A0409B005B1999698143E8
:102320009961AA602A6102232A7813432B70FFF770
:10233000E3FE002F01D00020FEBD62B6BFF36F8F19
:10234000F9E786204042F7E7D77B000000180040FD
:10235000300900200B4B42019B1810B55C5CFF2C30
:102360000BD02200FFF716FF002809D00123A3405D
:102370000020054A1361D36010BD86204042FBE770
:102380001020FBE7D77B0000001800400B4B4201F8
:102390009B1810B55C5CFF2C0BD02200FFF7FAFEF7
:1023A000002809D00123A3400020054A936013614F
:1023B00010BD86204042FBE71020FBE7D77B0000E2
:1023C00000180040F7B50F4B01901D69002318005D
:1023D0000D4E0E4FF25C7F2A10D9FA18127E019929
:1023E0005406A40F8C4209D12C000121DC400C4280
:1023F00004D00C00D206D20E944020430133102B9F
:10240000E8D1FEBD00180040480900203009002036
:1024100010B50A008AB0212900D9212201A903F0B0
:10242000CBFF002807DA054C030001212000044AF5
:1024300003F093FE00200AB010BDC046A472000055
:10244000377C000010B50469230021003A33A28EC6
:102450001B783C319B1AC9184368186803F0ACFF1D
:10246000031E05DA0121044A044803F076FE10BD7C
:10247000A28E121AA286FAE7597C0000A47200000C
:10248000F7B5060047680469230038331B78002B32
:1024900019D02368002B16D101225242D3172000F5
:1024A00003F0B7FF20600C30A58E03F078FF854263
:1024B00029D917480121174A03F048FEA38E2000AE
:1024C000E38603F0BCFF386803F080FF20000122A0
:1024D0005242D3171C3000F0B5FE231D0193002299
:1024E0000023019800F048FE051ECDD0386803F0A7
:1024F0006DFF29003000236E984701F09BF8386883
:1025000003F072FFEBE7200003F0A6FFDBE7C04615
:10251000A47200007B7C0000F0B505000E0087B0BF
:10252000AB685B6C002B00D04EE1AB681B6C002BE2
:1025300000D050E1AB685B6A002B16D13469776834
:10254000636C002B29D1200000220023483000F0CA
:1025500013FE6064002820D10121A24AA24803F0A2
:10256000F5FD386803F039FF03E02800984700289C
:10257000E4D1AB685B6B002B03D0280098470028A0
:10258000CED034697768E18E002932D03868FFF701
:102590003FFFE38E1B1AE386C2E7636C3868D96895
:1025A0001A8A83685B69002B1AD09847031E1ADACF
:1025B00001218E4A8C4803F0D0FD606C038A002B09
:1025C000D7D1220040321370FFF72CFD20000022EB
:1025D0000023483000F0D0FD60640028C9D1C0E776
:1025E00058235B42E4E7606C19000C3003F0CFFE27
:1025F000E3E72300383304931B780593002B65D061
:102600002368002B3BD100220023200003F001FFB0
:10261000206000281ED1230039331B787248002B1C
:102620000CD023003C331B780221714A03F095FD46
:10263000A38E2000E38603F002FF71E702216D4ABA
:1026400003F084FD386803F0CFFE20001C3000F05A
:10265000C1FD65E70C3003F0A2FE22003A32A38EE2
:1026600012780100D218904206D2634A00915E4867
:10267000012103F07AFDDBE7200003F0EDFE236883
:10268000A28E188AD9680918386803F095FE071ECB
:1026900006DA01213B00594A534803F05EFD3FE74B
:1026A000206839000C3003F059FEA08EC01B80B2A8
:1026B000A086002800D033E727682060200003F0C0
:1026C000BEFE3900201D04F03BF9BEE723003B337A
:1026D00003931B78022B5FD0042B22D00399012295
:1026E000386803F069FE0100012808D00221444A3D
:1026F0003D4803F02BFD039B059A1A7010E7039BDE
:102700001B78022B06D0042B06D1023BA3863A3459
:10271000237005E70423F9E73A4A334803F01DFD27
:10272000E9E73000FFF78EFE22003A321378022BE1
:102730000BD1A38E012B08D821003C3109783E290A
:1027400003D10133A38603231370A38E002B31D151
:102750002D49E36B0B402D498B4203D1230001210E
:102760003933197023003C335B78127802339B1A9B
:10277000A3860123049A13702068002800D1CFE6B5
:102780000C30A78E03F00BFE874219D90121204A95
:10279000154803F0DBFC4BE73000FFF753FEA38E38
:1027A000002B07D123003E331A7801331B781B021C
:1027B0001343DDE7049B1B78002B00D1B0E6DBE779
:1027C000200003F049FEABE628009847002800D01F
:1027D000ABE607B0F0BD28009847002800D0A9E676
:1027E000F7E7C046967C0000A4720000BA7C0000A7
:1027F000DB7C0000F37C00001E7D0000407D0000BB
:102800005D7D00007C7D0000FF00FF003E000200B7
:102810007B7C0000F0B5446889B00669050020683B
:102820000F0003F0E1FD206803F0D7FD206803F0FE
:102830001EFE002826DB376620688368002B05D043
:102840009B6C002B02D02A0010499847E068616811
:10285000A268002300240693079400240C4F083B31
:10286000039304943B0002940194009500F04AFD08
:10287000084904F08DF830001C3000F0ABFC20005B
:1028800009B0F0BD05204042FAE7C0461925000016
:1028900081240000947D000010B5084803F092FFE9
:1028A000002808D0064C2000FFF7D6FA2000FEF7DB
:1028B00005FA002010BD13204042FBE7087100001C
:1028C000C528000070B50400074D0A2804D1AB6884
:1028D0000D2128005B689847AB6828005B68E1B26F
:1028E0009847200070BDC04608710000F0B585B063
:1028F0001700029380234668026975680C00691806
:102900004031097850603548C9B23840DB039842FD
:102910001FD080239B039F4202D01620404216E026
:10292000012399430391307A2100FFF72FFD030023
:102930001022103393430AD12100307AFFF7C4FCF0
:10294000002804D16B462D191B7B40352B7005B038
:10295000F0BD880740D528680123E04018423BD1EC
:102960001800084361086918039030310F201C4299
:1029700028D00B78184008708021029BC9048B4234
:1029800024D0C021C9048B4224D0802189048B42E9
:10299000C3D180230121DB039F4200D1033193681F
:1029A0000120E3400340307A01920D4A00920A0070
:1029B0002100FFF705FC0028C9D12100307AFFF77C
:1029C000C9FCBDE70B7883431800D4E780230021BE
:1029D000DB03E1E70221E2E786209FE7FFFFFFFE3E
:1029E000C3650000F0B504001F27890085B04518B5
:1029F000AC4202D1002005B0F0BD0F2023680D4984
:102A00001A0C02409200515830301A0D1E013A4003
:102A10001840760F012E04D11B0F1B0403434020E6
:102A20001843039001A801910292043403F0E7FADD
:102A3000DEE7C04694760000F0B5456803692A6970
:102A400085B06969019313682C680B431360F02209
:102A50003F21AB69009012011B021340AA8B20009A
:102A60000A4013438022D20113432A4A5380BF23D2
:102A7000237503F0D2FDAA68274B2000134323607F
:102A800003F0CBFD0021686A03AA03F0B3FD002820
:102A90003BDB039B002219791868FFF7A3FF00288E
:102AA00033DB019A1D4B20005360013BFF3B636009
:102AB00003F0B3FD69681A480B0B0A050021801862
:102AC00059410023174AFDF711FC01267642F717FA
:102AD00002000B00B6185F41002F18D112498E4238
:102AE00015D8524292B22000A28103F096FD6B6885
:102AF000019A009813602B6A9847022322682000ED
:102B00001343236003F089FD380005B0F0BD222097
:102B10004042FAE7000C004004000060000103009E
:102B200000366E01006CDC02FEFF0000F0B50369A8
:102B300085B0019343680D001C68200003F06DFD13
:102B40000222236820009343236003F066FDEA79A4
:102B5000002A0DD1019BDA7121686668B304DB0F8E
:102B600002932B79012B06D0022B07D0002B03D028
:102B70008620404259E002931A0001E002920122AD
:102B8000019803716B79012B51D00120032BEFD1F8
:102B9000039001984371AF79042FE9D8264B1206B0
:102BA0001940114387712000216003F036FD039B1B
:102BB00007219A013B000B4005330B401343029A57
:102BC0002000520313431D4A32401343360C9BB27C
:102BD00036041E43666003F020FD2B68184A190B6B
:102BE00018050023801859410023164AFDF77EFB83
:102BF00001267642F71702000B00B6185F41002F3E
:102C000017D111498E4214D8524292B22000A281AB
:102C100003F003FD2B68019A200013600223226851
:102C20001343236003F0F9FC380005B0F0BD002029
:102C3000AEE722209DE7C046FFFFFFF0B8DFFFFFB1
:102C400000366E01006CDC02FEFF000070B58025CE
:102C50001049114B8C681B680E6810488A686D0219
:102C6000002C08D1002A11D11A002E4209D1006887
:102C70001818801A70BD002A0AD02E4201D1A24233
:102C8000F5D90468E41804600968F0E71C00F4E76B
:102C90001A00F2E710E000E0C8090020BC0900209B
:102CA0000A4A0020136A1B021B0A13629622084B71
:102CB00052011A60074B084A1860084B5A600722F5
:102CC000986019680A431A607047C04600ED00E03A
:102CD000C8090020BC090020BF12000010E000E07D
:102CE00070B5FFF7B3FF0C4B0C4A186811680C4C19
:102CF000401810609621002225681A604901401B87
:102D0000FDF7F4F996235B0143435B19236000F060
:102D100059FFFEF797FE70BDBC090020C4090020D2
:102D2000C0090020F0B5334D334E85B0002953D093
:102D3000431C08D101222B6893432B60FF231B0601
:102D4000336005B0F0BD336801930027012848DCEB
:102D5000EFF31083039372B6FFF778FF0022AB689E
:102D60000293264B1C68264B04191A60254B1B68DE
:102D70000093E01A90423ADB96235B015F43224ABC
:102D8000C01919008018FDF7B1F996235B0158436B
:102D9000009B1B1B18188023DB00984200D21800F0
:102DA0001A4B984200D91800002330600138A968F6
:102DB0006860AB60029B02985B1A1A19884202D2C3
:102DC000019A9B181A190D4B1A60039B002BB8D15E
:102DD00062B6BFF36F8FB4E733680193431CB4D17D
:102DE0000B480C4B984200DD1800471EB0E78020CE
:102DF000C000D9E710E000E0C8090020C4090020A5
:102E0000BC090020C0090020BF12000080E8FF00BC
:102E1000A60D0000A70D000070B5EFF3108572B687
:102E2000084A094B14681B68E41AFFF70FFF0019E2
:102E3000002D02D162B6BFF36F8F96214901FDF7D5
:102E400055F970BDC4090020C009002010B5040068
:102E5000FEF77AF903480121034A03F077F92000CD
:102E600003F0BDFCE4720000017E0000F0B585B007
:102E700005000C0000AFEFF310837B6072B62D4AA3
:102E80009368FB602C4B042802D82C4B8100CB5854
:102E90006E468AB0117C6A46D361294B29489384D7
:102EA000294B5061956111621361B121274B10329A
:102EB000BB60B86800238901FEF74CFAB546002CC8
:102EC00007D0E369DB0504D00121214AB86803F08B
:102ED0003DF9FB68002B07D0180003F05CFD0028CB
:102EE00002D00378002B00D11A486E468AB06A4699
:102EF000194BD0615361FB689361114B1384174BDD
:102F0000136191210023114810328901FEF722FA42
:102F10002100B5462800FFF799FF7B68002B02D1FE
:102F200062B6BFF36F8FF868FEF766FEBD4605B068
:102F3000F0BDC046CC090020107E000010770000D4
:102F400001030000267E000005000001E47200007D
:102F50004E7E00001E7E00006F7E00000400000117
:102F6000F8B501270A4E83009D590130840033597A
:102F7000AB4200D8F8BD6868002806D0037E3B420B
:102F800001D103F006FC0835F1E72B689847FAE712
:102F900024770000012270B5234B032086B01A70FD
:102FA000FFF7DEFF00F0BAFF0420FFF7D9FF1F4C48
:102FB00026001F4DAC420ED300F0F2FAAE4220D3F1
:102FC00000F0FEFAFDF756FA01211A4A137B8B43F3
:102FD000137306B070BD636A0593236A0493E369B3
:102FE0000393A36902936369019323690093E368E0
:102FF000A2686168206800F04BF923685C65303492
:10300000D7E7B26AF36A511C01D1591C05D01100EF
:103010003068194303D100F0A9FB3036CEE70649EA
:10302000183000F03FFDF8E7030A0020207200008E
:1030300020720000280700207F6A000070B5782603
:10304000012504004643010211488022091800208E
:1030500086B004950E350395053565430D4B0590F7
:10306000029001900C48F6182D180C4B300000957A
:10307000520000F00DF90422737B2C749343737398
:103080000134074BE402E418EE606C6006B070BDDA
:1030900008180020B0060020CC0900202968000094
:1030A00008100020F0B5002087B0FFF759FF204B33
:1030B00083F308881F49204B0A6A00251A40C02361
:1030C0001B0413430B62FEF769FDFEF773FEFDF769
:1030D0009FFF1A4800F042F90120FFF741FF02204C
:1030E000FFF73EFF00F09CFA154C164B80225C6106
:1030F000154B164E05930123154904931201330015
:103100002000039502950195009500F0C1F8042276
:103110000700637B20009343637303F07AFC28006D
:10312000FFF78CFF320039002000FEF727FEC04673
:103130000818002000ED00E0FFFF00FFA0070020BE
:1031400028070020CC090020D17E0000952F000028
:103150000819002010B5064C064B9C4201D30020F4
:1031600010BD2000A268616803F03DFB1434F3E752
:10317000E4000020E400002037B5EFF3108572B6BC
:103180000468002C13D00322236893434268036031
:10319000944200D143602000012103F0C4FB0400ED
:1031A000002D02D162B6BFF36F8F20003EBD11002B
:1031B0001943F5D00830009229000200019300F075
:1031C000A7F90028F1D1024B9B681C69EDE7C046C6
:1031D000CC09002070B5EFF3108572B60468A042E8
:1031E0001AD0002C18D062682368002613605A6039
:1031F00002222000637B2660934366606373A660AF
:10320000183003F091FC2000266703F002FC29002F
:103210000B4800F099F970BD8268C3689B1A591E6B
:103220008B419B1883600221103003F03DFD002884
:10323000EDD1002DEFD162B6BFF36F8FEBE7C04643
:10324000040A002013B50400EFF3108172B6806801
:10325000002808D00138A060002902D162B6BFF36F
:103260006F8F002016BD1000184307D1002902D12E
:1032700062B6BFF36F8F10204042F3E700920193D4
:103280002200024800F044F9ECE7C046040A00209E
:10329000F0B587B00593030058338365C365109B71
:1032A00007270373042300250732BA434373D21957
:1032B0000F9BBA4383738B180E0085601900C5738A
:1032C0008561C56104000493FEF7A0FB049BC0194F
:1032D000B8431F1A0E9B3A0002930D9B31000193D5
:1032E0000C9B20000093059BFEF732FD044B6565A7
:1032F0009B68AB4200D05B6E3800636607B0F0BDE0
:10330000CC09002070B50400002086B005900E980E
:10331000119D04900D98109E03900C9802900B98AC
:1033200001900A9800902000FFF7B2FF2B00721C5A
:1033300001D1013305D02B00334305D1200000F02B
:1033400015FA200006B070BD200032002B000249A3
:10335000183000F0A7FBF4E77F6A00000223FF3378
:10336000838100234366014B98607047CC0900209D
:103370000B21084A494293681967D8668023064999
:103380005B05486803434B6062B6BFF36F8F936879
:10339000186F7047CC09002000ED00E00D2370B5D8
:1033A000C356427B002B38DBD30636D180235B42E9
:1033B00013431B4C4373A3691A49E2698B4207D13B
:1033C000016042601060E06111E09A42F8D01B6831
:1033D000002BF5D00E250E2645579E57B542F4D04A
:1033E000AE42F2DD5A680360426010605860A56921
:1033F0008D4201D0002D00D1E568A3685A7BD2062A
:1034000005D1DA897F2A02D9AA69002A06D0AB42FF
:1034100002D0280000F0A8FA656170BD6361FCE786
:10342000CC090020E40900200D2270B58256050069
:10343000437B002A04DA7F221340437303F0ADFA82
:103440000D4E0E4AB469B368944201D0002C00D1ED
:10345000F468AB4208D05A7BD20605D1DA897F2ABC
:1034600002D9A269002A05D0A34202D0200000F0B0
:103470007BFA2300736170BDCC090020E4090020B1
:1034800010B5511C01D1591C03D00249183000F06D
:1034900009FB10BD7F6A000070B51B4CA168E36991
:1034A0000A68CB1A581E834149685B420A60516022
:1034B0001340E169A268002B05D1144B51601360E1
:1034C0000A60E2610CE00E200E2510565D57A842FE
:1034D00015D0854213DD5968136051600A605A6047
:1034E000A5690A4B9D4201D0002D00D1E568A36873
:1034F0009D4202D0280000F037FA656170BD994204
:10350000DBD01B68D7E7C046CC090020E4090020C7
:1035100070B50C0011000A4A0A4B90681860EFF36E
:10352000108372B69568280003F04AFA049A059B46
:103530002800FFF7A5FF2000FFF71AFF70BDC04667
:10354000CC090020EC09002010B500290AD1EFF3C6
:103550000580002807D1064B9A685B699A4202D021
:10356000FFF706FF10BD62B6BFF36F8FFAE7C046E4
:10357000CC09002010B500280AD1EFF305800028FF
:1035800007D1064B5A699B689A4202D0FFF7F0FEBA
:1035900010BD62B6BFF36F8FFAE7C046CC090020BA
:1035A000EFF3108172B6054B9A68D37B013BD3735E
:1035B000002902D162B6BFF36F8F7047CC0900209B
:1035C00070B5EFF3108672B6134DAB68DA7B01323B
:1035D000DA73AC69114A944201D0002C00D1EC6836
:1035E0005A7BD20605D1DA897F2A02D9A269002A3C
:1035F00005D0A34202D0200000F0B6F923006B6191
:10360000002E02D162B6BFF36F8FEFF3108072B657
:10361000FFF7B0FF70BDC046CC090020E4090020D0
:10362000024B034A9A61DA617047C046CC09002018
:10363000E409002070B5EFF3108572B61C4CA16848
:10364000E3690A68CB1A581E834149685B420A60E5
:1036500051601340E169A268002B05D1154B516000
:1036600013600A60E2610CE00E200E2610569E5791
:10367000B04218D0864216DD5968136051600A6066
:103680005A60A6690B4B9E4201D0002E00D1E6681D
:10369000A3689E4202D0300000F066F928006661FF
:1036A000FFF766FE70BD8B42D8D01B68D4E7C046DA
:1036B000CC090020E4090020F8B5030007000C0045
:1036C0000B4303D1FFF7B6FF0020F8BDEFF31086E0
:1036D00072B6134D134BA8681860FFF7A5FEA868D3
:1036E00023003A001049183000F0DCF90423AA68DE
:1036F0000400517B30000B435373FFF739FEAB6876
:103700009A6A002AE0D18022DB6A12069342DBD15A
:1037100003F030FA201AC343DB171840D5E7C04640
:10372000CC090020EC0900207F6A000070B504007D
:103730000D00FFF7C1FF01002000631C01D101351E
:1037400010D00A00CB1709200021801859410A2205
:103750000023FCF7CBFD002903D180231B069842F0
:1037600000D3014870BDC046FFFFFF7F70B5040065
:10377000EFF3108572B60426437B33420DD0183028
:1037800003F0D2F9637B2000B3436373FFF706FEB7
:1037900029000548FFF7D8FE70BD002DFCD162B6A8
:1037A000BFF36F8FF8E7C046040A0020014B98680A
:1037B0007047C046CC090020F0B5037B85B00400FB
:1037C0000393EFF31083019372B6019B02930823D6
:1037D000427B1A4207D0019B002B02D162B6BFF395
:1037E0006F8F05B0F0BD1900114348B2002857DBB8
:1037F0006173A368002B02D0200003F0D6F82000EC
:103800002600183003F090F95836A56DAE4201D06D
:10381000002D4DD1304F0025BB689C4204D1EFF301
:1038200005856A1E9541EDB2BE692C4A964201D0CB
:10383000002E00D1FE68B34202D0300000F094F8B0
:1038400020007E6102F068FD002D02D02448FFF7C1
:1038500085FDBB689C4238D1EFF30583002B34D142
:10386000237BDB070FD5019B002B02D162B6BFF390
:103870006F8F62B6BFF36F8F0423181C02DFEFF364
:10388000108372B602930298FFF772FD039BDB0769
:10389000A7D562B6BFF36F8F0423181C02DFA0E721
:1038A0007F210A4013432000637303F076F8A0E7FA
:1038B000280003F07AF82800183003F035F90023C7
:1038C00028002B67FFF76AFD9FE7019B002BDDD1E6
:1038D00062B6BFF36F8FD9E7CC090020E40900205E
:1038E000A007002073B5069D079E089C00950196D1
:1038F000FFF70EFE002C03D0024B9B681B69236070
:1039000076BDC046CC0900200121044B044AC01AF0
:10391000044BC0104343D1547047C04618080020E0
:10392000040A0020ABAAAAAAC289030000207F2AA9
:1039300011D80A4A106800280DD00E21084A59569D
:1039400012680020914206DB5A7BD20603D105485B
:10395000181A431E98410123184070478400002024
:10396000F0090020B006002070B518240C4B0500AB
:103970001E7C0C4B7443E418200003F0D5F80022A1
:10398000094B28009A55FFF7CFFF002807D0074BB7
:1039900020001A680649013AD31700F083F870BD79
:1039A000CC09002018080020040A00208400002010
:1039B0000939000070B5EFF3108572B6104A114B4B
:1039C00094681868A04207D1FFF7CEFF002D02D1FE
:1039D00062B6BFF36F8F70BD00211960127C0A4B75
:1039E0009B5C8B42F2D02000FFF79EFF0028EDD0B9
:1039F000637BDB0601D1FFF74FFD2000E4E7C04603
:103A0000CC090020EC090020040A0020024B1868B1
:103A1000984200D1002070478800002070B5060051
:103A2000FFF7F4FF002810D0026943693400F5174E
:103A3000121BAB41002B08DC03D1802109068A420E
:103A400003D2D843C017104070BD0148FCE7C04600
:103A5000FFFFFF7F002010B5034B1B68834201D19D
:103A6000FFF7DAF910BDC046F409002030B5002890
:103A70000ED00B4B5B6898420AD00168002907D032
:103A80000A694B690469456912196B410A614B6106
:103A90000368426813605A6000230360436030BDCE
:103AA00088000020F0B5040015001E0085B0531CEE
:103AB00002D1731C00D17CE0A160EFF3108303936B
:103AC00072B6002E26DBFFF7C5FF00210090012013
:103AD00040197141009AD31712184B41364922619F
:103AE00063610868496812184B411E0015000123E4
:103AF0000293FFF78BFF0700304B9C465B680193F6
:103B0000002F1DD163462360019B63601C606346E8
:103B10005C6027E0284B1868596802225242D3178C
:103B2000121A8B41521BB3411100002B04DC01D14E
:103B3000002A01D101210023636121610023D7E71D
:103B40003869796922696369994202DC28D1904217
:103B500026D9801A99417B68386179616360276052
:103B60001C607C60FFF752FF84420FD1144B1B682E
:103B7000002B0BD1029B002B02D1FFF76BFF0090B3
:103B80000098FFF74BFF0021FFF7CCF8039B002BB9
:103B900002D162B6BFF36F8F2800310005B0F0BDCF
:103BA000121A8B4122616361019B9F42AAD03F6838
:103BB000A6E700250026EFE7300800208800002057
:103BC000F4090020F0B587B0EFF3108372B60193CB
:103BD0002F4B1860FFF71AFF2E4F04003A687B68DE
:103BE000029203932A4B9C461D6800280FD042691D
:103BF0000669EB179A4202DC24D1AE4222D91900A1
:103C0000226963692800121A8B412261636102985C
:103C100003992A00EB1712184B4100243A607B608D
:103C2000634620001C60FFF7F9FE2100FFF77AF8D9
:103C3000019BA34202D162B6BFF36F8FFFF7BAFEBA
:103C400007B0F0BDF31704960593049A059B0298FC
:103C5000039980185941002300220E4D22616361AF
:103C6000286069602000FFF701FF019B002B02D153
:103C700062B6BFF36F8F2000A3689847EFF31083FD
:103C800072B6034A019313689B1B1360A2E7C046F8
:103C9000F40900203008002010B5EFF3108472B64C
:103CA000FFF7D8FE02000649C31708684968801864
:103CB0005941002C02D162B6BFF36F8F10BDC046D0
:103CC00030080020F7B50400EFF3108572B60368E2
:103CD0000195002B05D0002D5CD162B6BFF36F8F2C
:103CE00058E00122C16A806A002312184B41002B60
:103CF00001D1012A33D901267642F71736184F41F0
:103D0000002F01DA0026002702F038FF01220023ED
:103D10008018594180197941002902DC3BD10028E3
:103D200039D002F02BFF002301228018594180195D
:103D30007941244B994201D1033030D802F01EFF63
:103D4000012200238018594102225242D3178019C0
:103D50007941121A8B4120001B49FFF7A3FE236B08
:103D600001332363236A002B0BD0002D02D162B6EE
:103D7000BFF36F8F2000236A9847EFF3108372B66A
:103D80000193A5691834A54201D0002D0BD1019BE8
:103D9000002BA2D0F7BD02225242D317DBE78023CB
:103DA00000221B06D7E7280002F03FFE00232B6706
:103DB000019B002B02D162B6BFF36F8F280002F087
:103DC00028FEE7E7FFFFFF7FC53C0000F8B50600CF
:103DD00014001D00EFF3108772B6511C07D1591C57
:103DE00005D1002F02D162B6BFF36F8FF8BD002B53
:103DF0000DDB14001D1E05DC002B01D1002A01D1B2
:103E00000124002501225242D317A4185D4130003D
:103E100002F08AFE069A079BB262F3620023220038
:103E2000336330002B000249FFF73CFED9E7C04660
:103E3000C53C0000F7B5846805000F00002C18D0C1
:103E40006378012B23D12600603E737B9B070ED540
:103E5000300002F02FFE0023082F01D104235B4223
:103E60003367737BDB0602D1300002F0D2FD002302
:103E700023707F210020EA68A860D3025B0E3B43D9
:103E80000B400E499B030A401A43EA60FEBD022B19
:103E9000EDD12378002BEAD02600143E336901933C
:103EA000002BE4D02000143002F03EFE002331004D
:103EB0000198336402F032FFD9E7C046FF3FE0FFCC
:103EC000F8B507000D00160002F05CFD002801D0D7
:103ED0000020F8BD0B4B9B685C6E002CF8D02A1DAF
:103EE0000435F5D2EFF3108572B604212000394372
:103EF000B047002D02D162B6BFF36F8F0028E7D024
:103F000010C0E6E7CC09002010B501000020024AED
:103F1000FFF7D6FF10BDC046B959000010B50248E2
:103F200001F0E4FD10BDC046D97E000001238022CF
:103F300013B5054C0549064800945B42D20000F0D9
:103F400017F9002016BDC0463C770000082100206C
:103F500038080020F0B5050087B0EFF3108772B67F
:103F60002E00EC6F9436002C1CD10221300002F0A0
:103F7000C0FE002867D02C008C34002201212000D4
:103F800002F0B4FD0028F8D100230293012252422E
:103F9000D317009201932A00390084323D48FFF77D
:103FA000A1FCDAE722682B1DEA67D96F8C4200D1A9
:103FB000DA6702223368134333600423E2689A43CA
:103FC000033B1343E3606368002F47D0200098470A
:103FD000EFF31083059372B6E36801211A008A4358
:103FE000100908423ED1E260E3689A071AD502221E
:103FF0009343E360284B1868002813D0002102681F
:1040000000280FD04768BC423AD10268002931D15C
:1040100059681A60814200D15A6000230360083059
:10402000FFF7D8F8022233689343059A3360DB0523
:10403000DB0F002A02D162B6BFF36F8F002B8CD149
:10404000FFF7F8FA89E73368DB069DD53060002F6B
:1040500002D162B6BFF36F8F07B0F0BD62B6BFF397
:104060006F8FB3E711229343E36020001030FFF716
:10407000B1F8B9E70A605A688242CED15960CCE7FC
:104080009446002A01D011688C4601001000624657
:10409000B6E7C046050A0020F8090020F7B5C36856
:1040A0000D00590801220F000400174011424DD1A4
:1040B0009B0813421ED12B68002B01D183682B6013
:1040C0000127E3683B4202D0A368FF192B602E68EA
:1040D000002E49D03100254B94319A68B36F01917D
:1040E0009A4223D00A68012193080B400A4204D166
:1040F00013277F4200232B6016E0002B26D1D30824
:104100000B40002B22D100232360331DDA6F002ADD
:1041100027D1DC67F467300002F0F7FD0423E26882
:104120001343E3602B68A3603800FEBD02F02AFC55
:10413000019B01221B6800280AD1D90811401342B3
:10414000D6D00029DFD09B081342DCD11027D0E75E
:10415000990811401342CBD00029F7D1DB08134056
:10416000CFE71460DC67D6E71627C2E7CC0900204A
:10417000F0B504000020261DE067F067200089B03C
:1041800084300E9D00604060083000604060012077
:10419000002D07D0287946427041FF264042B043A7
:1041A0000230FF3026009436306001267642F71741
:1041B0000696079700260F4803930496030002967D
:1041C000200001960094FFF79DF8B5420CD02968B5
:1041D000B14202D0200002F0DBFB6B79002B03D050
:1041E0000123227B134323732000FFF7BFFAA46748
:1041F00009B0F0BD553F00000CB470B588B001ACFB
:1042000006000D001C220021200002F0E9FE02231E
:10421000A3700F4B2661636000239D4206D080226D
:104220002B001206954200D91300013BF6180DAA87
:1042300020000C996661009200F0E2F8002D02D097
:10424000002223691A7008B070BC08BC02B018477D
:10425000F16F0000F7B51C00272306000F001500C2
:104260000193A30503D5114B1C4007230193E317CA
:104270000093300039002200009BFCF737F8D2B2DF
:10428000B4463B0006000F00092A02D901995218D2
:10429000D2B230322A70009A681C9A4202D802D1F7
:1042A000644500D9FEBD0500E3E7C046FFFDFFFF02
:1042B000F0B5012685B0029001910392029C039B08
:1042C000B34201DC05B0F0BD23001C0022780133AD
:1042D000002AF7D0252AF8D11B780234252BF3D0F9
:1042E00000202700844602003C001F2A1BD81D0026
:1042F000203DEDB2102D09D91D00303DEDB2092D44
:1043000021D80A2358432022281805E03B49E940D8
:104310000D0001210D4208D001377B1E1B783C00A7
:10432000002BE1D128E07F2A1CD81D00303DEDB2E2
:10433000092DE6D9242B10D16346002B46D0B0427C
:1043400046D00020E8E704251900A9432A29F8D01F
:104350006C2B09D180231A43DEE704251900A943F9
:104360002A29EED06C2B20D06C2B19D8682B22D0A8
:104370006A2B28D04C2B26D061460029A2D0B44508
:104380009DD120241C432000019965380D68022826
:1043900001D9612C1ED10723E81D9843083028E07D
:1043A000742BB9D07A2BB7D0E6E71306D2D5802389
:1043B0009B001A43CEE780235B001A42CBD08024B7
:1043C000A4002243C7E7A0239B00C4E78446B8E7C4
:1043D0006323D6E7692B04D0281D692B07D8632BEC
:1043E00007D0281D130604D5920502D5D3E7732BF9
:1043F000F7D1019B0136186060E7C04689280100AB
:10440000F0B543689FB0039013911492049383789E
:104410009B0712D50B00002717921C78002C74D034
:10442000252C0DD00133119320000399049B0137F3
:104430009847002801DB00F035FD01277F4264E04A
:104440005C789A1C1192252CEED000252E00119B31
:1044500002950C9305950C9B11931F2E25D82000D7
:10446000203810280AD8FBF72DFE1A09091E090961
:10447000093A09090918091C090915002300303BEC
:10448000DBB2092B21D80A2205994A43D318059398
:10449000202300E001231E4321E002231E430423C6
:1044A000F9E70823F7E71023F5E77F2E4ED822001F
:1044B000303AD2B2092A08D813007106E3D50A238C
:1044C00002994B439B18029309E02A2C18D1002D26
:1044D00005D1179B04CB1793710609D502920C9B4B
:1044E00001330C931193013B1C78002CB3D136E0BF
:1044F0000592002ACCDA059B5B4205932823CAE784
:104500002E2C05D140231E42C5D038001FB0F0BD6F
:10451000242C1BD1002D00D181E0149B179373062E
:104520000AD4059A139817A9FFF7C2FE179B1A1D04
:104530001B6817920593D2E7029A139817A9FFF701
:10454000B7FE179B1A1D17921B68BCE76C2C58D03E
:1045500050D8682C5DD06A2C5ED04C2C5CD0002DDD
:1045600006D0149B2A00139817A91793FFF7A0FEF3
:10457000029B002B03DA40239E4300230293202357
:104580001A0022430E92653A022A4ED90E9A612AE7
:1045900000D061E3A3431293179B5A3A0733934326
:1045A0001A0008321792C022520132430C925A6804
:1045B0001B685500069313031B0B0793069B6D0D99
:1045C0002B431C00079918A80C43D20F002C59D17B
:1045D0003025D2B2027145710D9230004022104058
:1045E000164200D12DE1029A25000C2A5FDD0D2232
:1045F0000292A5E0742C00D171E77A2C00D16EE70D
:10460000ADE780231E4200D145E780229200164389
:1046100041E780235B00F5E7A0239B003BE7029581
:10462000029B059D1E00059359E70722A3431293A1
:10463000179B073393431A001C685D680832179272
:10464000730600D412E10E9B652B00D011E100210E
:10465000029B08005A1C80235B01D2B21E43131C2C
:10466000112A00D90DE1DBB2019000912000290050
:1046700018AA00F0CBFCC3B20D930223189D0C9630
:10468000109377E03123002D01D1302301254371B0
:10469000AC4BED18D3B20D933200037140231A4096
:1046A0001E4200D1B7E0029B0C2B00DDB5E00D24CB
:1046B000029B0120E41AA400621E0021FBF7CCFD3E
:1046C00009910890089A099B1000190012184B4193
:1046D0000021504299410E900F9101204042C11794
:1046E00080185941069B1A00079B02400B4009990C
:1046F0008B420ADC02D1089B9A4206D80698079999
:104700002200FBF79BFDC00760D5069B079C08991C
:10471000099A5B185441069307948023079A5B0318
:104720009A4253DB18AA5379013353718023DB007B
:104730009D425BD00E9A069B0F991340079A114039
:104740000F2057260D2284461298361A6446080711
:104750001C401B0903430911002C78D10298904298
:1047600079DA013A002AF1D1012310930D330D9328
:1047700062330E932A0009322B00122A5AD818AB42
:104780001B7901221E000C2416401C40134200D04D
:10479000A3E00C9B9B0700D59BE004230C9A0C998B
:1047A0001A4019427AD0002C00D09AE02034C0235D
:1047B0000C9A9B011A4200D0F2E0029B002B01D11F
:1047C000013302930D9A18AB9B18C9E0069B0E9A11
:1047D00007991A400F9B06920B4007938023DB003A
:1047E0009D4231D1069B079A134319D008230D9A95
:1047F0008025134318AA13710E23ED000D93623325
:104800000E932B00504A9A18504B93429B415B42A7
:1048100003331093B3E70292E0E70D230293DDE741
:1048200004230D9A134318AA13710E230D936233B8
:104830000E932B00022210922A006332C62AE1D87E
:104840009DE7050002907BE7069B079978E7A01992
:10485000C0B2092C01D82000303018AC1419607196
:104860000298904200DB7CE702927AE706230293EB
:10487000E9E60E9B662B06D1802301219B0102985D
:104880001E431123EFE66B461A7A002A00D101225B
:10489000002165230800D2B20E93E0E6002C86D0FA
:1048A000059B032B3ADD033B08930C9B1B0729D484
:1048B000089BDC1920200399049B013798470028A6
:1048C00000DABAE5BC42F5D1002E29D000230893C6
:1048D00010E0002C1ED12B3469E7002C1CD12D34A4
:1048E00065E72026059B042BF0DD043B08930C9B19
:1048F0001B07DDD530000399049B0137984700283A
:1049000000DA9AE518AB1B79114D1B0700D4114D45
:104910003C0011E02B26E5E72D26E3E70892F1E7BE
:104920000896EFE7129B0399C01AC0B2049B0134AA
:104930009847002800DA80E5EB1B185D0028F1D1CC
:10494000270044E301FCFFFFE7030000CE0700005F
:104950001E800000057A00000D9A013AD2B20D9235
:104960000D9A002A03D01A79013B302AF4D00C9A10
:10497000029BD20600D40D9B2A1D00DA8CE0029A1D
:10498000AA4200DC88E080220C9992010A4392B28C
:104990000C9200220292AB4202DD6A1C9B1A029327
:1049A00080230C9A9B011A4015920C9A1A4275D0DA
:1049B000EB43DB172B4001332200511E8A419B1829
:1049C000029A002A72D001329B1800220892059A9E
:1049D0009A4201DDD31A089309230C9A1A4205D191
:1049E000089BDE19B74265D100230893002C07D03D
:1049F00020000399049B01379847002800DA1CE542
:104A00000C9B1B0511D530200399049B9847002867
:104A100000DA12E57820129B0399C01AC0B2049BF9
:104A200002379847002800DA07E50C9B1B0705D4DE
:104A3000089BDE19B74245D100230893159B002B34
:104A400069D0EB432A00DB171E009A432E400592E3
:104A50000D9B059A3020934203D9130018AA9B1886
:104A60005879029B013E5B427C1CB34232DC049BC2
:104A700003999847059B01330593002800DADCE48D
:104A8000731C07D12E200399049B9847002800DA55
:104A9000D3E4BC1C2700DBE7013B80E70C9A03232F
:104AA000120500D50233109AD31885E70C9AD20666
:104AB000D20F89E720200399049B013798470028EB
:104AC00090DABAE430200399049B98470137002814
:104AD000B0DAB2E4AE4208D118AB5A79352A03D81D
:104AE00003D11B79DB0600D431200399049B98473E
:104AF000002800DAA1E40C9BDB0600D420E7013695
:104B000000D01DE72E200399BC1C049B9847002869
:104B100000DB15E791E418AA5079312803D0102161
:104B200013798B4313710399049B9847002800DA8B
:104B300083E4029B002B76DD2E200399049BBC1C92
:104B40009847002800DA78E40126302733000D9AD0
:104B500038000134964202D218AAD3185879039922
:104B6000049B9847002800DA67E40136029AF6B2FF
:104B700033009642EBDD0E9B129A0399981AC0B24D
:104B8000049B9847002800DA57E4002D06DB2B2011
:104B9000002D05D118AB1B79DB0601D52D206D4208
:104BA0000399049B9847002800DA46E4109B042BE5
:104BB00046D1FA2128008900FBF7DEFA303003994C
:104BC000049BC0B203349847002800DA35E4FA2188
:104BD00028008900FBF71AFB0D0064212800FBF771
:104BE000CBFA30300399049BC0B2013498470028B7
:104BF00000DA22E428006421FBF708FB0D000A21FB
:104C00002800FBF7B9FA30300399049BC0B2013495
:104C10009847002801DAFFF710FC28000A21FBF76B
:104C2000F5FA0D0013E00C9B7C1CDB06A3D52E20AF
:104C30000399049BBC1C984700289CDAFFF7FDFBF6
:104C4000109B0234032BC8D0109B012BD7D13035D9
:104C500003990134E8B258E720006338122800D9DC
:104C600006E1FBF739FA13005500050105010501BE
:104C70000501550005010501050105010501220198
:104C800001010501050127000501C100179B18ADB1
:104C90001A1D1B6817922B700123029336072BD520
:104CA0003C00029BDE19B44228D1059B029A9B1A54
:104CB000089345E6179B1A1D17921D68002D00D119
:104CC000C64D0299730601D401214942280002F021
:104CD00034F80290E2E720200399049B98470028CB
:104CE00001DAFFF7AAFB013C029BA342F3D3059B29
:104CF0000594DF193F1BD3E7059CF5E7EB1B185D17
:104D00000399049B984701340028CCDAFFF795FB00
:104D1000179B320644D5B2053BD507220733934390
:104D20001A00083217921A685B680A920B931023D4
:104D300035009D430B9B002B3DDA0A980B9900230D
:104D400042428B410A920B938023DB001D43ADB29C
:104D500018AE0A230A980B993200FFF77BFA831BDF
:104D60000C936B0666D501232A009A4313000C9915
:104D7000029A8A4200DCBEE0002C00D1B7E010228B
:104D800029001140029E0D91154200D0B5E01D0092
:104D900020E01A1D1B6817920A93DB170B93C6E7D6
:104DA0001A1D17921B68F205F6D5B20501D55BB244
:104DB000F2E71BB2F0E70A9B0B9A1343C8D17306C4
:104DC000C6D5029B002BC3D1350011339D43029BF6
:104DD0001E000C932A00824B1A400D921D4233D0C4
:104DE000002301360D932FE010239E43063B8021C4
:104DF000300008408446179A0E425DD08020310072
:104E000080000140064253D0072107328A43110037
:104E10000831179103CA02000A4362D135001632E5
:104E20009543720660D5029A002A5DD1172335009A
:104E30000C929D4310232A001A400D921D4261D00E
:104E4000002C5DD10C9B5E1C2B076FD4EB0709D5A2
:104E50000C9B0293059BB34204DD9E1B0C9BF31835
:104E6000059E029308965AE0102378241E43BEE75D
:104E70000E9B782B05D1683B582CB8D184239B001E
:104E8000B5E725200399049B9847002801DAFFF72E
:104E9000D4FA20000399049B9847002801DAFFF711
:104EA000CCFA0237119BFFF7B8FA082300249EE7DB
:104EB000101D17901068AEE7111D8020179131006A
:104EC000400012680140064201D11000A3E780258E
:104ED0003100AD00294090B22E429CD06146D0B244
:104EE00099E706223500954318AE320035E71123C5
:104EF000029E9D436EE71D009CE71D000236A3E75E
:104F00000C9EFBE70C9E65E720200399049B9847C5
:104F1000002801DAFFF791FA089B01330893059BFB
:104F2000089A9342F0DCBF1B1600BF180D9B002BA4
:104F300014D030200399049B9847002801DAFFF72A
:104F40007CFA002C2ED0200003990237049B98474E
:104F5000002801DAFFF771FA3C0015E0204B1D42F2
:104F6000FAD02020AB0700D50B306D0500D52D20E1
:104F700003990137EAE730200399049B01349847ED
:104F8000002801DAFFF759FA029B0C9ADB191B1B68
:104F90009A42F0DB1500002D06D10C9B1C19059BD5
:104FA0009B1B85E60137D7E718AB013DE85C039909
:104FB000049B98470028EEDAFFF73FFA2020039978
:104FC000049B01379847002801DAFFF736FA089B5F
:104FD0001B19DB1B002BF1DC64E7C04622800000BC
:104FE000060400001FB502AB0093064A064B01F011
:104FF000A2FF039902984B07C0081843C90805B0DF
:1050000000BDC046CDCCCCCCCCCCCCCCF0B5A1B086
:105010000E9326AB1B78049005911393049B0B927F
:105020000D93059B059A1B03150D1B0BD20F0F92B9
:105030001A0004996E05740D0A43002E0FD1002A40
:105040001AD130230B9901364B7102238A710F99C3
:105050000B430B990B710A60300021B0F0BDCF4EAD
:10506000B44246D10823002A00D104230F9A002617
:1050700013430B9A1371EFE7012632000499C84CD1
:105080000A400C928A0F99001143049A07919200EA
:1050900006920A9304966742380000F049FB012506
:1050A000621C00DB0025451B7F1B2B193800099370
:1050B00000F044FB7D382C1A1CA9380000F036FAA9
:1050C000049B0D98029318AB019316AB00930A99B9
:1050D00023001CAA01F03CFE04900591012D00D98B
:1050E000A9E00C9B002B00D099E001273E400A96D6
:1050F0005DE0AC490126641880214903194333005F
:105100000A9104990B400C930A9B8F0F9B003B4321
:105110000793049B9B000693002A03D1A24B1D40DA
:105120006E426E410496002CB5DB200000F0FAFAC6
:105130000123032C00DC0023C31A1800099300F09C
:10514000FDFA099B7C301C1B04191CA9180000F0F7
:1051500069FA18AB019316AB00930D9823000A99D6
:1051600002961CAA01F0F4FD0027099B049005910A
:105170000A97152B1BD8069807991AAB8B4A0093F0
:105180008B4B01F0D8FE169C179D1A9B1B9A9B080F
:105190009207134305225343069A934211D106986E
:1051A000079900F0ADF9099B98427F41FFB2139B2C
:1051B0000E9E002B69D00A20002101260A2400251A
:1051C00051E00C9B002B15D1069B079C012040420F
:1051D000C1171B184C413200180021000023801A0F
:1051E000994100F08DF90C9B099988425B41DBB233
:1051F0000A93DCE70220069A079B002112184B4114
:105200001900100000F07CF93900099B984279419F
:105210003B000A00A41A9D4116941795C7E7012088
:105220004042C117169A179B12184B41012716923C
:1052300017930023DCE700270A973E2DB7D82A00F2
:1052400001204042C117FBF707F8069B079A8343EA
:105250008A4313435A425341DFB2A8E722002B008E
:105260000136FBF776F8059B994203D8F6D1049BEB
:105270009842F3D9099BF618279B9E19002E00DC53
:1052800001260E9B9E4200DD1E00002506950D9511
:1052900016981799FFF7A6FE189B14901191180005
:1052A00019991593FFF79EFE119B0C0012908B42EB
:1052B00003D83FD1149B83423CD904980599FFF74A
:1052C00091FE0A22129B19945343159A05919B1A39
:1052D0005A4253410A9A1A400A230A926A42554195
:1052E0004343049A2F40D31ADDB2149B04901693C3
:1052F000119B1793129B1893069B01330693C7E7E4
:10530000109B0A22013310930023FBF722F8059B20
:10531000994203D8F4D1049B9842F1D9109BB3422F
:105320000DDD002E03D1049B059A134307D0012302
:105330000D93C2E701230A2000211093E7E70A9B9F
:10534000002B37D0189B199918001093FFF74AFECD
:105350000A234343109A0400119193422AD11698CC
:105360001799FFF73FFE1090129104980599FFF7E7
:1053700039FE0A236A4255414343049A2F40D31A07
:10538000DDB2109B18941693129B04901793119BF7
:1053900005911993069B01330693D3E7FF0700009D
:1053A000CCFBFFFFCBFBFFFFFE070000CDCCCCCC3E
:1053B000CCCCCCCC069A099B944663440693002F30
:1053C00073D0052D71D10124049B049A234014420B
:1053D0005ED11C000D9B002B07D1189B934203D17B
:1053E000199B059A934277D00024049805990023CD
:1053F0002200801859410125049005910A201900C6
:10540000059B994203D869D1049B984266D9002C28
:1054100023D0AE4221DA139B002B0CD0069B279A97
:10542000EB18D318DE43F6171E400E9B9E4200DD9C
:105430001E00B54211DD0520049B059C00211B18B0
:105440004C410A22180021000023FAF74FFF069B67
:105450000490013305910693013D3400AE4200DD16
:105460002C006B4624B226001827DF5F0B9B3F19E8
:105470001D19013F06950995069B5B1B9C4233DC79
:105480000023099A53710B9B0F9A1F601A71E3E571
:105490000D9B002BA9D1189B049A934203D1199B11
:1054A000059A93420CD001249FE70D9B002B0ED14F
:1054B000189B049A93420AD1199B059A934206D1EC
:1054C0000C9B0124002B90D10A9B002B8DD004242F
:1054D000AC42A441644288E70425F1E70A22002394
:1054E0000135FAF736FF8BE7049805990A22002365
:1054F000FAF7FCFE30322A7104900591013DBBE7BA
:1055000070B50024064D074A074BFAF722FFA9425F
:1055100004D801D1884201D80134F4E7200070BDDD
:1055200033333333CDCCCCCCCCCCCCCCF0B50D009C
:105530008DB01A210490FAF7D9FD1A21059004982C
:10554000FAF710FE059B1C01334BE418002909D122
:10555000226863682A606B60A068E168A860E960FF
:105560000DB0F0BD2D4BC9005B1808A91E685F681F
:10557000A268E36830000091390001F0DCFC226889
:10558000636803910AA9029000913000390001F08C
:10559000D2FC0A9A0B9B029E039FB6185F410690AD
:1055A0000791BB4202D809D1B24207D9089A099B98
:1055B0000120002112184B4108920993049800F031
:1055C000BDF804001A20059B584300F0B7F8241AD0
:1055D00032003B0006980799009401F0E4FC1E227B
:1055E000049B0290039118090D49800041585B000B
:1055F0001A40D140032001400A0002980399002379
:1056000012184B4130002A606B60089A099B3900E0
:10561000009401F0C8FCA1E7D873000008730000F3
:1056200048770000F0B506000D008BB01A21193044
:10563000FAF75CFD1A274743374C0001BA1B0419DF
:10564000B74209D1226863682A606B60A068E1688C
:10565000A860E9600BB0F0BD304BD2009B181A680F
:105660005B6806A904920593A268E3680091049818
:10567000059901F060FC22686368029003910120A3
:105680004042C11712184B4108A90091049805998E
:1056900001F051FC089A099B0400049102980399B7
:1056A000801859410290039103998B4203D80AD183
:1056B00002998A4207D9069A079B012000211218F5
:1056C0004B4106920793380000F038F8070030008D
:1056D00000F034F8029A039B3F1A049920000097C7
:1056E00001F061FC33099B009C461E2273001A40A6
:1056F00063460B4C1C590323D4401C400023621CFE
:1057000012184B41029803992A606B60069A079B16
:10571000009701F048FC9BE7A874000008730000A4
:105720009C770000014B5843800C704741340100C6
:10573000014B5843000D7047FB2E0B00024B5843A2
:10574000C00C01307047C0464F9312007047C9002B
:105750004018408840087047F8B50D000400FFF776
:10576000F6FFFAF785FD1F21091A8A00A218EB003F
:1057700010691F1D0633E719E318AEB2002808D1DF
:1057800001308840E1680143E16015613E801E8080
:10579000F8BDC1000431625A3A80D200A2181880C4
:1057A000D6806652F4E730B5CD004519EB88141D5C
:1057B000994209D1012393401A00C368A40093437E
:1057C000C3600023235030BDA988A400CA008218FA
:1057D0002350D380DB00C0188180F4E770B50D0042
:1057E0000400FFF7B4FFFAF743FD1F222900121A45
:1057F0002000FFF7D8FF70BDF0B5050085B00800A8
:105800000391FAF735FD1F231B1A9E00AE19019371
:10581000336902900093002B1AD0032734692800C3
:105820002100FFF794FF039B984207D3019A2100C0
:105830002800FFF7B8FF200005B0F0BDE4002C19E8
:10584000E388013F3361002F02D0009A9A42E5D1EC
:105850002022029BD21A01235B429340EA68140083
:105860001C401A42E7D02000FAF720FD031D9B00E0
:1058700002005C59DBE7F8B5060014000D00FFF7E5
:1058800066FF210007003000FFF761FFED003F18C1
:1058900075197B00210030006B80FFF758FF24183A
:1058A000E400A753F8BDF8B514000D000600FFF79B
:1058B0004EFF2F1B621BED00751953006B803F18C4
:1058C000E300F1187800488021003000F252FFF721
:1058D0003EFF2418E400A753F8BD70B505000C0086
:1058E000FFF735FF2118CB00EB185B88DB070BD4E3
:1058F0002800FFF773FF21002800FFF728FF210091
:1059000022182800FFF7B7FFE300E95AEE18611AE2
:10591000CB00EB185B88DB070AD42800FFF75EFF9B
:1059200031882200611A2800FFF7A5FF3388E41AA6
:1059300028002100FFF710FF70BD10B500290BD023
:10594000012400680439091AC908CB00C3185A8811
:10595000A2435A80FFF7C1FF10BD70B50668002949
:1059600001D1002070BD07240C400B34E408C908A5
:10597000B36864189C4200D91C0021003000FFF776
:105980003BFF051EEDD001003000FFF7E0FEA04216
:1059900009D92C19290030002200FFF784FF2100CB
:1059A0003000FFF7D9FE0123ED007219518804354C
:1059B0000B4353807019D5E710B51100FFF7CDFFE9
:1059C00010BD0723F7B50027043ACC1D89189C4366
:1059D00099430B1BDE080460A660E760300000936B
:1059E00001912425FAF744FC20222D1A121A2000D6
:1059F00039009200103001F0F3FA0123AD000735B1
:105A0000ED086A001A436280711BEA00A0184B007F
:105A100027804380009BA552E218019B5780198084
:105A20000123F600A6197288290013437380200011
:105A3000FFF792FEF7BDF0B585B00D001C1E029079
:105A4000039229D000265B780193E0782378400008
:105A50009B00C018A378C0182018019B9E4210D349
:105A60006279237912021A43A37903991B04134321
:105A7000E279029812061A4323000833A84705B0BA
:105A8000F0BD0378471C9B0038001F51FAF75AFC01
:105A9000013038180136E0E716204042EFE770B5D4
:105AA00000240200012520001378002B01D11800EA
:105AB0000AE0002813D08C4207D1702B04D01E00BE
:105AC000403E3A2E0BD8002070BD1E00403E3A2EBC
:105AD00005D8537801320134002BE8D00020252B63
