S00F0000444953504C41592E73726563FF
S1130000B82200202D010000290100002901000070
S113001000000000000000000000000000000000DC
S113002000000000000000000000000029010000A2
S11300300000000000000000290100002901000068
S11300402901000029010000290100002901000004
S113005029010000290100002901000029010000F4
S113006029010000290100002901000029010000E4
S113007029010000290100002901000029010000D4
S113008029010000290100002901000029010000C4
S113009029010000290100002901000029010000B4
S11300A029010000290100002901000029010000A4
S11300B00000000010B5064C2378002B07D1054B37
S11300C0002B02D0044800E000BF0123237010BDC0
S11300D04C00002000000000B4180000084B10B5CC
S11300E0002B03D00749084800E000BF0748036815
S11300F0002B00D110BD064B002BFBD09847F9E72D
S11301000000000050000020B4180000B4180000E3
S11301100000000010B5024B9847024B984710BDF1
S113012011030000210D0000FEE70000F8B5234A8A
S1130130234B9A4209D0224B204A03E011681960EC
S1130140043304321F498B42F8D31F4B02E00022D0
S11301501A6004331D4A9342F9D31D4AFF211D4BF3
S11301608B439360FD3990235B001B4AD1501B4A9B
S1130170D3780325AB4302242343D370D3780C27CD
S1130180BB4308263343D370154B987B30229043EE
S1130190202210439873997BB943314399739A7B16
S11301A0AA4322439A730F4A516880230B43536036
S11301B00D4B98470D4B9847FEE7C046B418000016
S11301C0000000204C0000204C000020B40200205D
S11301D000ED00E00000000000700041005000410C
S11301E0004800410040004109150000851300004B
S11301F0F0B5D6464F464646C0B5C025ED0580222B
S113020052028423EA502B4BA8242B4A1A512B4A1E
S11302101A51D0215A5C042082435A545A5C012753
S1130220BA4301263243D2B25A5418395A5C0B30BD
S11302308146824302200243D2B25A549422904609
S11302408022D20341466A500C398C466A5080227F
S1130250D20592461A511A491951D620195CB9434C
S11302603143C9B219541B38195C4A4691430322DD
S113027091464A461143C9B21954802109044246A1
S1130280A9506246A95052461A510E4A1A51D72112
S11302905A5CBA433243D2B25A541A5CC8390A403F
S11302A030210A43D2B21A541CBC90469946A24645
S11302B0F0BDC0460044004100000240010002C0FD
S11302C0400000C0800000C0044A136A80210B4330
S11302D01362034A034B5A807047C046000400402F
S11302E019400000000C004010B5044B9847044925
S11302F00448054B9847054B984710BDC9020000B8
S1130300001C004294020020D90D0000F1010000FD
S1130310F0B5C64600B51B4B9847C021C9059426C5
S113032080231B058B5188254B51174BA822802015
S1130330C0059850154C9C50DB24A4461F5DDA3C44
S1130340A046A74364461F558027BF028F514F51D3
S113035098500F4F9F500A3CA4461F5D4446A74344
S113036064461F558851485198500A499950DE21D6
S11303705A5C404682435A54074B984704BC904603
S1130380F0BDC046450F000000440041000800C015
S1130390020000C0004000C0E902000001600271D8
S11303A04371009B8360704770B5040016001D0004
S11303B0006843689B68984720684368DB6831009D
S11303C09847206843681B682900984770BDF0B5BA
S11303D083B00400019116001D0008AB1F788368E8
S11303E01B6898470300012F0BD0002F0CD0022F5D
S11303F00DD0A2685768320001992000B84703B0B5
S1130400F0BD2843C3B2F4E7A843C3B2F1E76840A0
S1130410C3B2EEE7F8B5CE46474680B507000D00F7
S113042014001E0008AB1B7809AA12780AA90978DF
S1130430013B9D4202DC013A944203DD0CBC904630
S11304409946F8BD2000154B9847C3B29846DB0087
S1130450E41A0123A3401C00DBB29946BB681B6865
S11304602A004146380098470300012E0AD0002E86
S11304700CD0022E0DD0BA6854682A0041463800C8
S1130480A047DBE74B460343DBB2F4E7A043C3B228
S1130490F1E74B464340DBB2EDE7C046F113000001
S11304A0F8B507000D001E0006AB1C780068436811
S11304B09B681100984738684368DB6831009847A7
S11304C0386843681B686E1C29789847013CE4B27D
S11304D03500002CF4D1F8BDF8B5CE46474680B5BA
S11304E00500884691460068002803D043681B69CC
S11304F00021984700260CE0AB685F6800232200C7
S113050031002800B8470134E4B24445F4D301363D
S1130510F6B24E4501D20024F7E70CBC904699464A
S1130520F8BD30B503AC2478C568007942439B1804
S1130530EB180A781A70013CE4B201310133002C43
S1130540F7D130BD10B5C468007941435218A354A3
S113055010BD10B5C468037959435218A05C10BD8E
S113056010B584B008240294447901940479009469
S1130570014CA04704B010BD1504000010B582B0B2
S113058004AC24780094024CA04702B010BDC046CD
S1130590CF03000070B582B004000D00044900913F
S11305A00021044EB047E560200002B070BDC04693
S11305B0000000209D030000F0B585B004001F007A
S11305C00AAB1D78183000953B0003920291054E4A
S11305D0B04700953B00039A02992000024CA047C3
S11305E005B0F0BD23050000A104000010B584B0DF
S11305F0082402941834019460340094014CA047F8
S113060004B010BD15040000F0B583B0040016005A
S11306101F0018300191054DA8473B003200019995
S11306202000034CA04703B0F0BDC04645050000C0
S1130630A903000010B51830014B984710BDC046FF
S11306405305000010B582B004AC24780094024C29
S1130650A04702B010BDC046CF030000F0B5D64697
S1130660474680B587B004000391049205930EAB0E
S1130670187880460FAB1F7825000C35104B00937B
S113068020238022290020000E4EB04700974346C5
S1130690059A049928000C4DA847200018302023FF
S11306A080220399094DA847042280212000084B89
S11306B09847200007B00CBC90469A46F0BDC0464F
S11306C0140000209D030000F508000095050000BB
S11306D0D90400000160426070470000F8B5440985
S11306E01F23184001268640E401C023DB059C46F5
S11306F0644466618DB22800024FB847A6612800A1
S1130700B847F8BDB90D0000F0B583B006000B0082
S11307106A46D11D0B700068B27A53091F252A401E
S11307200124270097403A00DB01C027FF05BC469F
S113073063449A61327A53092A40270097403A0069
S1130740DB01674663445A61036801229847327AA1
S113075053091540AC40DB01BC4663449C6103B0C3
S1130760F0BD00207047F0B583B006000B006A4668
S1130770D11D0B700068B27A53091F252A40012449
S1130780270097403A00DB01C027FF05BC466344BD
S11307905A61327A53092A40270097403A00DB0114
S11307A0674663445A61036801229847327A5309C1
S11307B01540AC40DB01BC4663449C6103B0F0BD12
S11307C010B507230B4050214942194349B2C9B21D
S11307D0014B984710BDC0466707000070B5040080
S11307E00D007F212940090910231943C9B2034E82
S11307F0B0470F2129402000B04770BD67070000B3
S113080010B50B003F2119404023194349B2C9B226
S1130810014B984710BDC0466707000010B5407AE9
S11308200A21014B984710BDDD06000010B5AF2129
S1130830014B984710BDC0466707000070B506001D
S11308400C008121034DA84721003000A847200057
S113085070BDC0466707000070B50400214B98477F
S1130860A8212000204DA8471F212000A847D321FC
S11308702000A84700212000A84740212000A847C5
S1130880A1212000A847C8212000A847DA21200080
S1130890A84702212000A8478F212000134B984726
S11308A0A4212000A847A6212000A847D521200084
S11308B0A84780212000A8478D212000A8471421A3
S11308C02000A847DB212000A84740212000A8479A
S11308D0D9212000A847F1212000A8472000044B7B
S11308E0984770BD1D080000670700003D08000020
S11308F02D080000F8B5040017001E0006AB1D7893
S1130900054A064B984727726672A5722000044B6D
S113091098472000F8BDC04628000020D5060000F6
S11309205908000001607047F0B5D6464F46464668
S1130930C0B582B005000F000AA90878FC18296820
S113094009798C4201DDCB1BDBB2D408E100521AD9
S11309500121914089460A1C6946CA71CA799046A8
S1130960002B05D001281DD0002835D002284DD0F9
S113097002B01CBC90469946A246F0BD2868836824
S11309801B684A46BE18F6B2320021009847434617
S11309901843C3B228688268526892463200210024
S11309A0D0474B465A1ED2B29146002BE6D1DFE720
S11309B0286883681B684246BE18F6B232002100DC
S11309C098474B469843C3B2286882685268924657
S11309D032002100D04743465A1ED2B29046002B23
S11309E0E6D1C5E7286883681B684A46BE18F6B294
S11309F032002100984743465840C3B228688268B1
S1130A005268924632002100D0474B465A1ED2B259
S1130A109146002BE6D1ABE7F0B5D6464F464646A5
S1130A20C0B584B0070003910CA90E78002B4CD0FC
S1130A309B18DBB2013BDBB29A4221D000684179BA
S1130A404C1EA34200DBE3B2D408DD0807210A40B0
S1130A500B409946F8310B009340DBB298460723CC
S1130A604A469B1A1941CBB29946AC420FD08368CF
S1130A701B699A4600964346039A2100D04718E022
S1130A8000688368DC6833000399A0471DE0424690
S1130A901340826817690096039A2100B84714E04E
S1130AA0386883681B699A460096FF23039A2100DD
S1130AB0D0470134E4B2A542F2D8386883681C698F
S1130AC000964B46039A2900A04704B01CBC9046EC
S1130AD09946A246F0BD0000F0B587B00C0019009D
S1130AE00CAB1F780DAB1E78009605910B00049299
S1130AF0210003900F4DA847049BDA19D2B2013AA2
S1130B00D2B20096059B21000398A84700963B00AB
S1130B10049A21000398084DA84705998C4664441B
S1130B20E1B20139C9B200963B00049A0398A84780
S1130B3007B0F0BD29090000190A0000F0B587B01C
S1130B4003900491160005930CAB1B780DAA15783D
S1130B50002B09D10CE0A219D2B20095059B04998F
S1130B600398044FB84723005C1EE4B2002BF2D173
S1130B7007B0F0BD29090000F0B5DE4657464E46E1
S1130B804546E0B583B083460F0001921C000C98E3
S1130B90431E9841C0B2F5222549264B98470C9B29
S1130BA01A7AD308520700D001330C9A527A91462C
S1130BB00C9A927ABF1A4A4653435F43BFB20C9BC6
S1130BC05B689C466744009424E06BB2002B0CDB0A
S1130BD00136F6B26D00EDB20134E4B244450FD2F1
S1130BE06307F2D13D780137EFE75B461B6818686D
S1130BF08368DB689A460123009A3100D047E7E70F
S1130C00009B0133DBB200934B46013BDBB29946B8
S1130C10002B06D00C9B1B7A9846019E00250024CD
S1130C20DCE703B03CBC90469946A246AB46F0BD17
S1130C30E4170000190F000001607047F0B585B09B
S1130C4007000291110003921E000A9C237A0022DD
S1130C500192627A0092320000680A4DA847237814
S1130C60002B06D0442208490020084B984705B0C1
S1130C70F0BD00943300039A02993800044CA04755
S1130C80F5E7C0463D0B0000E4170000190F000013
S1130C90790B0000F0B5D6464F464646C0B584B041
S1130CA002900C001600039299460C9D194F0800FF
S1130CB0431E9841C0B253223900174B98469847B7
S1130CC02800431E9841C0B254223900C04737005F
S1130CD00AE06B7A4B44DBB20133DBB29946039FE3
S1130CE001342378002B0ED021780A29F1D00D2964
S1130CF0F6D000954B463A000298084EB0472B7A3E
S1130D00FF18FFB2ECE704B01CBC90469946A2461B
S1130D10F0BDC046E4170000190F00003D0C0000B0
S1130D20F0B583B0C023DB0588248026B6021E51AB
S1130D301549A8228020C0058850144D8D50802567
S1130D402D051D518850124F8F5018518850114C49
S1130D508C50103A9E509D5098500F4D3E23019355
S1130D60033B00930A3B0D4A0D4928000D4CA04754
S1130D700D4C290020000D4B984721000C480D4BC9
S1130D80984703B0F0BDC04600440041020000C0D3
S1130D90000800C0004000C068020020A00200203B
S1130DA0680000205D060000AC0200202509000058
S1130DB0B0020020390C000010B5044B1C68044B31
S1130DC0984701002000034B984710BD9002002073
S1130DD0210F00003D0F000070B504000D00002835
S1130DE017D0002913D0012040220B490B4B984700
S1130DF06560201D29000A4B9847002806DB094B33
S1130E00A382094B2361094BE360002070BD0020DD
S1130E10EAE70020E8E7C04600180000190F0000C8
S1130E20E50F00000080FFFFDD0E0000A10E0000B2
S1130E3010B50400431E9841C0B257220349044B25
S1130E409847201D034B984710BDC046001800006A
S1130E50190F0000E111000030B587B004000D0047
S1130E60002815D0002911D00120B32209490A4BCA
S1130E7098472B6803936B680493AB6801930593BD
S1130E80201D03A9054B984707B030BD0020ECE7AF
S1130E900020EAE700180000190F000015120000F6
S1130EA070B584B004000E001500431E9841C0B212
S1130EB0A3220749074B984720000C3800230293CC
S1130EC00196039501A9044B984704B070BDC04630
S1130ED000180000190F0000590E000070B584B00E
S1130EE004000E001500431E9841C0B28722074932
S1130EF0074B984720000C38029600230193039572
S1130F0001A9044B984704B070BDC0460018000006
S1130F10190F0000590E0000002800D100BE7047D0
S1130F2010B50300642058432C30FF30962149004B
S1130F30014B984710BDC046F11300000139FDD89C
S1130F407047000010B5064B5A685A60054B984725
S1130F50054B9847054B9847FF20054B984710BD14
S1130F6000400041950F0000291300007513000094
S1130F70750F0000C3070AD5054B802252009A6002
S1130F80832252025A60024B5B78DB09FBD1704723
S1130F90000C0040064B1A7AD2B21A725A7AD2B2B4
S1130FA05A729A7AD2B29A72DA7AD2B2DA727047F2
S1130FB000040040024B9C466044800AC0B2704763
S1130FC000F8FFBDC369DB0708D40368022213439A
S1130FD00360C3699B07FCD1002070470420404292
S1130FE0FBE7000070B506000C000800714B984741
S1130FF00023002B00D184E00025002E00D18DE0D9
S1131000002C00D188E001206B4A6C496C4B984756
S1131010002D00D1CBE0E369DB0721D42A786B787B
S11310201B021343AA7812041343EA7812061A43E4
S11310301C231A40E3699B07FCD123689B0709D54D
S1131040236802218B432360E3699B07FCD1E36996
S11310509B07FCD4012313432360E3699B07FCD162
S1131060E369DB07FCD434602B786A7812021A43F4
S1131070AB781B041A43EB781B0613431C22134062
S1131080082B4DD0002C00D18DE0002D00D188E03C
S113109001204C4A49494A4B98472B786A781202F6
S11310A01A43AB781B041A43EB781B061343464AD6
S11310B013402360E3699B07FCD12B796A79120200
S11310C01A43AB791B041A43EB791B0613433F4ABB
S11310D013408022920213436360E3695B07FCD1EF
S11310E02B7B23736A7B3023E2542B795B075CD11F
S11310F001233371AA7BEB7B1B021343F380002093
S113110070BD052802D00133DBB272E71D01EA1875
S11311102F4D3C35AD1870E7002075E7002073E7CC
S1131120002C3CD0002D38D001202A4A2349244BDE
S113113098472B786A7812021A43AB781B041A4337
S1131140EB781B061343204A13402360E3699B0793
S1131150FCD12B796A7912021A43AB791B041A4326
S1131160EB791B0613431C4A13401C4A1343636068
S1131170E3695B07FCD12B7A6A7A12021A43AB7AD1
S11311801B041A43EB7A1B06134363626A7B302306
S1131190E254E369002BFCD1A7E70020C5E7002057
S11311A0C3E7002075E7002073E70223A1E70D20C1
S11311B04042A5E7B50F0000250900006C180000A7
S11311C0190F0000EF080000FCFEFFFFBF1DFDFF2C
S11311D01C18000003090000BFDDFDFF40020200EF
S11311E010B5041E0ED00368002B09D001209822EC
S11311F012010549054B98472068054B984710BDD7
S11312000020F4E70020F2E76C180000190F00003A
S1131210C50F0000F0B5CE46474680B589B081467B
S11312200D0004680B6803934B6804930023059333
S113123006930679002814D0002C10D00120374AD8
S11312403749384B9847E3695B0764D1E3699B07E7
S1131250FCD123689B0720D41420404256E0002090
S1131260EDE70020EBE700222DE048780002474636
S11312700743B84602310391013205924246A26205
S11312805BB2002B35DB002000283ADB0598AB6805
S1131290984202D3069A934233D9237EDBB25A078B
S11312A0E1D5A16A049A002A08D0501C0490117058
S11312B0012E03D9901C0490090A5170069A0192D8
S11312C0013206920122002ADAD10699059A914246
S11312D0D6D34946C888D907D2D50399002906D060
S11312E0481C039008788046012EBED8C4E7804687
S11312F0C2E701235B426383813323761320404298
S1131300C2E7237E9B07FCD00323237609B00CBCE1
S113131090469946F0BD04204042F7E7850A000054
S11313206C180000190F00000F4B196A090C1A6A97
S1131330920F920709040D4801400A430C490A43DD
S11313401A629A6902210A439A611A7F1D310A407E
S11313501A77054BDB681B07FBD5034A136A802108
S11313600B4313627047C046000800400000FF0FA3
S113137002030000024A936902218B439361704780
S11313800008004030B587B00F4B984703AC0F4BB3
S1131390220023CB23C20E480E4B98470E4B98478E
S11313A0012301931F3300936033002200210B4873
S11313B00B4DA8470B4B00930C23142221000A4821
S11313C00A4CA047FEE7C04615010000881800003B
S11313D094020020310E0000210D0000AC02002018
S11313E0D90A00003C000020B0020020950C000047
S11313F0002243088B4274D303098B425FD3030A50
S11314008B4244D3030B8B4228D3030C8B420DD362
S1131410FF22090212BA030C8B4202D312120902F0
S113142065D0030B8B4219D300E0090AC30B8B422E
S113143001D3CB03C01A5241830B8B4201D38B03DC
S1131440C01A5241430B8B4201D34B03C01A524181
S1131450030B8B4201D30B03C01A5241C30A8B42C4
S113146001D3CB02C01A5241830A8B4201D38B02AF
S1131470C01A5241430A8B4201D34B02C01A524153
S1131480030A8B4201D30B02C01A5241CDD2C309C5
S11314908B4201D3CB01C01A524183098B4201D341
S11314A08B01C01A524143098B4201D34B01C01A2C
S11314B0524103098B4201D30B01C01A5241C308A4
S11314C08B4201D3CB00C01A524183088B4201D313
S11314D08B00C01A524143088B4201D34B00C01AFF
S11314E05241411A00D20146524110467047FFE76B
S11314F001B5002000F006F802BDC0460029F7D06F
S113150076E770477047C04670B500260C4D0D4C09
S1131510641BA410A64209D1002600F0BBF90A4DB1
S11315200A4C641BA410A64205D170BDB300EB584D
S113153098470136EEE7B300EB5898470136F2E7D7
S1131540A0180000A0180000A0180000A4180000B3
S11315500000000000000020202020200020505027
S113156050000000005050F850F850502078A070FF
S113157028F020C0C810204098186090A040A8907F
S113158068602040000000001020404040201040CF
S1131590201010102040005020F82050000020207F
S11315A0F820200000000000602040000000F80047
S11315B0000000000000006060000810204080006F
S11315C0708898A8C88870206020202020707088B7
S11315D008102040F8F8102010088870103050903F
S11315E0F81010F880F008088870304080F088887F
S11315F070F80810204040407088887088887070A7
S11316008888780810600060600060600000606096
S113161000602040081020402010080000F800F866
S11316200000804020102040807088081020002096
S113163070880868A8A87070888888F88888F088F6
S113164088F08888F070888080808870E09088882E
S11316508890E0F88080F08080F8F88080E08080D6
S11316608070888080988870888888F888888870D6
S1131670202020202070381010101090608890A036
S1131680C0A09088808080808080F888D8A88888CE
S113169088888888C8A89888887088888888887086
S11316A0F08888F080808070888888A89068F088A6
S11316B088F0A09088788080700808F0F8202020B6
S11316C0202020888888888888708888888888501E
S11316D020888888A8A8D888888850205088888836
S11316E0885020202020F80810204080F83820203E
S11316F02020203800804020100800E020202020F6
S113170020E020508800000000000000000000F8E5
S11317104020100000000000007008788878808065
S1131720B0C88888F00000708080887008086898C5
S113173088887800007088F88070304840E0404025
S113174040000078887808308080B0C88888882075
S1131750006020202070100030101090604040483D
S113176050605048602020202020700000D0A8A89D
S113177088880000B0C888888800007088888870CD
S11317800000F088F0808000006898780808000065
S1131790B0C8808080000070807008F04040E04055
S11317A040483000008888889868000088888850FD
S11317B02000008888A8A850000088502050880085
S11317C00088887808700000F8102040F810202065
S11317D040202010202020202020204020201020E5
S11317E0204000002E2E2F6766785F6D6F6E6F2F7E
S11317F06766785F6D6F6E6F5F746578742E6300D3
S11318002E2E2F68616C2F7372632F68616C5F7367
S113181070695F6D5F73796E632E63000000000072
S113182000000000000000000000000000000000B4
S113183000000000000000000000000000000000A4
S11318400000000000000000000000000000000094
S113185000000000000000000C0001000000020075
S1131860000000000900FF01050000002E2E2F6873
S1131870706C2F736572636F6D2F68706C5F736526
S113188072636F6D2E63000048656C6C6F20576F38
S1131890726C6400F8B5C046F8BC08BC9E4670473C
S11318A0DD000000F8B5C046F8BC08BC9E46704791
S10718B0B50000007B
S11318B453050000450500002305000061050000F0
S11318C47D0500003506000009060000B905000086
S11318D4ED05000045060000090700006307000049
S11318E4C1070000DD07000001080000000000003B
S10F18F4501500000607207D08000000CD
S9030000FC
