:10000000E8130020A9120000D13B00009512000067
:1000100000000000000000000000000000000000E0
:100020000000000000000000000000007913000044
:10003000000000000000000019130000C1200000B3
:10004000C1140000C1140000C1140000C11400005C
:10005000C1140000C1140000C1140000C11400004C
:10006000C1140000C1140000C1140000C11400003C
:10007000C1140000C1140000C1140000C11400002C
:10008000C1140000C1140000C1140000C11400001C
:10009000C1140000C1140000C1140000C11400000C
:1000A000C1140000C1140000C1140000C1140000FC
:1000B00002B4714649084900095649008E4402BC01
:1000C0007047C04602B4714649084900095C4900BE
:1000D0008E4402BC7047C04603B4714649084000D4
:1000E0004900095A49008E4403BC70470022430866
:1000F0008B4274D303098B425FD3030A8B4244D3F0
:10010000030B8B4228D3030C8B420DD3FF22090231
:1001100012BA030C8B4202D31212090265D0030BF0
:100120008B4219D300E0090AC30B8B4201D3CB03E6
:10013000C01A5241830B8B4201D38B03C01A524128
:10014000430B8B4201D34B03C01A5241030B8B422A
:1001500001D30B03C01A5241C30A8B4201D3CB0215
:10016000C01A5241830A8B4201D38B02C01A5241FA
:10017000430A8B4201D34B02C01A5241030A8B42FD
:1001800001D30B02C01A5241CDD2C3098B4201D315
:10019000CB01C01A524183098B4201D38B01C01A93
:1001A000524143098B4201D34B01C01A524103090A
:1001B0008B4201D30B01C01A5241C3088B4201D3B9
:1001C000CB00C01A524183088B4201D38B00C01A66
:1001D000524143088B4201D34B00C01A5241411A8D
:1001E00000D20146524110467047FFE701B500209A
:1001F00000F006F802BDC0460029F7D076E7704748
:100200007047C0461C2101231B04984201D3000CF7
:1002100010391B0A984201D3000A08391B09984279
:1002200001D30009043902A2105C40187047C0468F
:1002300004030202010101010000000000000000AF
:10024000414208401C2101231B04984201D3000CA9
:1002500010391B0A984201D3000A08391B09984239
:1002600001D30009043902A2105C401A7047C0464D
:100270001B1C1D1D1E1E1E1E1F1F1F1F1F1F1F1F9D
:10028000002B11D1002A0FD1002900D1002802D063
:100290000021C943080007B4024802A14018029097
:1002A00003BDC0465DFFFFFF03B4684601B5029879
:1002B00003F0A0F9019B9E4602B00CBC7047C046FB
:1002C00010B5002903D1FFF79DFF203002E00800A0
:1002D000FFF798FF10BDC0460023C25C0133002A1F
:1002E000FBD1581E7047000010B588B06B46D8711E
:1002F0000733029301230C000393002302A90B721E
:100300000733CC600A610B7502220B7D044813434E
:1003100084680B75A4682923A04708B010BDC046A7
:100320003C4400001FB56B465970187001930223BE
:1003300001A94B600B7205480C7A826823430B724B
:10034000946829230122A0471FBDC0463C440000F9
:1003500070B58EB07B4C200003F042FE7A4D002831
:100360000AD17A4B012202932900030001900090E8
:1003700003F00DFA0EB070BD23681E26002403930F
:10038000734B6E4403222900200002930194230042
:10039000009403F0FCF90122310020003470FFF7D3
:1003A000A3FF3378032203936A4B290002932000B2
:1003B00023000194009403F0EAF93378A02B08D0CD
:1003C000654B012202932900230020000194009430
:1003D000CEE7624B03222900200002930194230000
:1003E000009403F0D4F921003D20FFF79BFF192072
:1003F00003F0DBF920213F20FFF794FFAF208000BE
:1004000003F0D3F921003D20FFF78CFF192003F002
:10041000CCF90C213D20FFF785FF142003F0C5F92E
:100420004F4B0322290020000293019423000094E3
:1004300003F0ADF94B4B0322029329002300200067
:100440000194009403F0A3F908AC210006221A20BD
:10045000FFF74AFF0F220423E15E0AAECB171340D9
:100460005B181B1105930223E15ECB1713405B1849
:100470001B1104930023E15E0024CB1713405B188B
:100480001B110393384B2900200002930194230091
:1004900000940C3A03F07BF9062231000820FFF7A4
:1004A00023FF0422B35E290005930222B35E2000DD
:1004B00004930022B35E0CAE03932C4B03220293F1
:1004C00001942300009403F062F906223100142005
:1004D000FFF70AFF0422B35E290005930222B35EF0
:1004E000200004930022B35E1F260393204B6E442A
:1004F0000293032223000194009403F048F9310091
:10050000012234203470FFF7EFFE0023F356290058
:100510000393184B200002930322230001940094BC
:1005200003F035F9144B2000029303222300290025
:100530000194009403F02BF99620400003F035F964
:1005400082E7C0463C440000FC4500005C470000D8
:10055000734700008247000092470000AC4700004C
:10056000C1470000E2470000FF4700002E4800009E
:10057000504800006848000085480000F0B597B07A
:10058000049304230A921A400A9B0B92DA08072369
:100590001A40013207001C9E02910D92820700D082
:1005A000BEE1041D002851D10A001A401300141D99
:1005B0000822D31A0293049B0425013B06930023CF
:1005C00007930C9305930193013B08930395002F28
:1005D00001D0049B23600D9B002B00DDEDE09C4BC4
:1005E000049A9A4203D39B4B9A4200D2E5E002223E
:1005F0000A990A98E31B1140104200D0EAE00A0071
:1006000005990F2900D9E3E0002F00D1E8E09B080D
:10061000DBB29C46080061460EAB1954059B089955
:1006200012A8C154002A00D1D6E08022634652426B
:100630001343059A0EA98B54079B01330793059B1F
:1006400001330593069B0434013B09E0029B072B11
:10065000B1D81C204042F8E008250395069B0133E1
:100660000693069B9878002800D1E4E0019B002BBC
:1006700008D12528F2D1089B013308930123019367
:100680000425EAE77A284FD84B2813D847284BD8B7
:10069000292831D8252844D0002301932528DDD8E6
:1006A00003002038233B5A42534142425041034306
:1006B0000193D3E74C382E2836D8FFF7F9FCCF3515
:1006C00035353535353535353535373535353535D8
:1006D00035353562353737626262CF37CD35CF3544
:1006E00018371835357AE13735353735E1000023CD
:1006F00009930425019327E001210B002A38C0B299
:100700008340554A1342A9D1E222180092051040B5
:10071000134236D11A000A4001920B429ED0099032
:1007200013E0089B013B08930023C1E70022069BCE
:1007300009925B7801926C2B07D10425069B0395E7
:100740001B786C2B01D16D190395013C60192900B0
:10075000FFF7CCFC68430400002F06D0039B029AED
:10076000DB1B1B18934200D973E7099B002B49D070
:10077000069B023306930D9B013B0D9308CE049319
:1007800025E7072107368E4364188C430CCE002FD3
:1007900008D00131C91B02980919814200D958E7D4
:1007A000226063600023082501932B000834039323
:1007B00054E7019B099300239BE70A9B9B0700D406
:1007C00040E70122E31B802189008B4200D217E71A
:1007D00016203FE70022F6E70C9B01330C932EE72F
:1007E000029B002A02D00133029328E702330293CE
:1007F0000B9B002B00D022E70498FFF76DFD029BB6
:100800001B18F1E7039B042B07D1331D002F01D0E8
:10081000326822601E00043420E70722F31D934350
:100820001E000836002F03D01A685B6822606360E0
:1008300008230834BBE78022E31BD2009342C7D2CF
:10084000002F0BD102980838C01817B0F0BDC04671
:100850004C430000F44C0000DAFF00009B083022FB
:1008600038603B706B469B180B9A1B78002A0BD0A4
:10087000FB70079BBB70002B1AD100250EAE059BA9
:10088000AB421CD1E01BE0E77B70F2E7C656195C77
:10089000002E08DA65462940029D1619AE4200D99D
:1008A000D7E621700134013305999942EED1E4E78E
:1008B0007F2294467E3A00230EA8D21BF4E7079BC2
:1008C000002B02D033787F2B1BD80B9B002B1BD027
:1008D00012ABEB5C23700023013401930123019AD6
:1008E000DB1B1B199B18029A934200D9B1E633789F
:1008F000019A237001342000049903F071FC019BDC
:100900001C1901350136BAE733789B00FB181A68C9
:1009100004920B9A04981A60FFF7DEFC431CDCE794
:100920000E2097E6014B18607047C046000000207B
:1009300010B52E4B2E4A196A114042220A431A6200
:10094000DA681207FCD500212A4A91605178C9095A
:10095000FCD18321490251605178C909FCD16F3122
:10096000FF319982D9688907FCD50221FF31916056
:100970005178C909FCD1204951605178C909FCD18D
:100980008221C90151809121890099841B481C4909
:10099000006809688005890E8902800D014399620B
:1009A0001849D962D968C906FCD50221988C01433F
:1009B0009984D9680906FCD5D9684906F9D51E215C
:1009C000114C606888431A390143616080214900F5
:1009D00091605178C909FCD10C4951605178C9091D
:1009E000FCD11A6A02318A431A6210BD0008004025
:1009F0000000FFCF000C00400105210028608000AE
:100A000024608000B805FF7D004000410007010020
:100A1000F0B585B001903048039102F0E0FF061E6A
:100A200050D005B0F0BD2B7B002B11D02B68DB68BC
:100A3000002B01D0280098476B689F712B681B69B9
:100A4000002B37D16B6804222800196802F0E3FFFD
:100A500001361035214B9D42E5D3019B002BE0D0A0
:100A6000002CDED027002000FFF7EAFB01238340A3
:100A7000DA431B4E05019C43731901931B7B0292C1
:100A8000002B0CD0AB591B69002B1FD1029B761990
:100A90001F40736804221968019802F0BCFF002C03
:100AA000E1D1039B002B03D06420002103F034FB31
:100AB0003C00D5E7280098470028C3D03B00B3404E
:100AC0001C43C5E704000127054DC3E7019898477B
:100AD0000028E4D1DAE7C046B80100201C46000037
:100AE0000C460000014B8000C05870471C460000B7
:100AF000030010B50800002B05D0044A136000F075
:100B00005BFA002010BD16204042FBE704000020E5
:100B10000023FA210B4A10B513700B4A89001360A9
:100B20000A4A0B481360FFF7E3FF0A4B0A49180013
:100B30008B4200D310BD1A1A5C6812110132227167
:100B40001033F5E7E0020020B0010020B4010020DE
:100B5000CF3900000C4600001C46000070B50C4D5B
:100B60002978002908D10120FFF752FF094C0A4BD0
:100B70009C4202D301232B7070BD63685B79002B0C
:100B800003D0236820009B6898471034EFE7C046E5
:100B9000E00200200C4600001C46000010B50400D6
:100BA000044802F01CFF002C03D00121024803F08E
:100BB0000AFB10BDB0010020B401002070B50A4B43
:100BC00005001B689847094CA860094B9C4200D35C
:100BD00070BD63685B79002B04D023682900200076
:100BE0001B6898471034F0E7040000200C46000012
:100BF0001C460000044B054A00209B1ADB08994262
:100C000001D2C900885870470C460000C445000056
:100C1000F0B589B004AF3E6B0400150079603B600D
:100C2000002E1CD07B6B1021FB6000930020330052
:100C3000FA6AFFF7A3FC802301001B01984210D33E
:100C400000201D4B022203931C4B1D49029301906F
:100C50000300009002F003FFBD4605B0F0BD310077
:100C600030000722230015401340DB00AD011D4377
:100C7000BC6ABB6A40021B05173405431D43631859
:100C800093430333043A93430733D34093406A4674
:100C9000D31A9D4604AC002E07D020007B6B103089
:100CA0000093FA6A3300FFF769FC2A0020003B68D2
:100CB000796802F0BBFECFE7FF070000C3480000E1
:100CC000E44500004068002804D0044BC01AC00866
:100CD00000B2704701204042FBE7C046C445000017
:100CE0000EB417B5054C05AB04CB010020000193F1
:100CF00000F0F6FB1EBC08BC03B018479B3A00008E
:100D000010B5CB0604D4890603D50349FFF7E8FFE5
:100D100010BD0249FAE7C046FC480000FB4800004D
:100D2000F0B591B01E0017AB1B7807000C000892BD
:100D30000593002B00D199E002251B9B1B9A1D40B7
:100D400001231A400A921B9A07331A400B921B9AEE
:100D5000F8331A400C9202F05CFE00230200069366
:100D6000984204D038008049FFF7BAFF0690002D62
:100D70000BD044231B9A1A423CD1220038007B49F5
:100D8000FFF7AEFF069B1B1806930A9B002B0AD0A9
:100D9000059A774B9200D258002A00D1754A380044
:100DA0007549FFF79DFF0C9B00245A4253415B425B
:100DB0001E400B9BA34208D0059A704B920038004E
:100DC0006F49D258FFF78CFF0400089B002B05D019
:100DD0001A0038006B49FFF783FF2418002E05D056
:100DE000320038006849FFF77BFF2418069BE4189F
:100DF00066483FE00020664B1D688542C2D0654BC7
:100E000020001968FFF772F9FA242900FFF7F4F9B6
:100E1000A4006143079008002900FFF7EDF90E9147
:100E2000E1210D9009010798FFF7E6F9099109986A
:100E30003C21FFF75BF9E1210F9009010798FFF7CB
:100E400055F907900E9829006043FFF74FF90D9B65
:100E500002903C2109980193FFF7CEF938000091E8
:100E60000F9B079A4C49FFF73BFF8BE74B48059CCC
:100E7000012EBDD0189B002B03D03A00484902F048
:100E800009FD1A9B002B54D01A9E102E00D9102653
:100E900038001B99FFF734FF0025AC4219DC002510
:100EA0002B00199A3800D25C3E49FFF719FF013533
:100EB000102D14D007231D4203D138003A49FFF703
:100EC0000FFF2B00AE42ECD838003849FFF708FF7F
:100ED000EDE738003449FFF703FF0135DDE7002572
:100EE00038003349FFF7FCFE2B00199AD25C13003F
:100EF000203B5E2B00D92E2238002E49FFF7F0FE52
:100F00000135102D0ED007231D4203D1380026498C
:100F1000FFF7E6FE2B00AE42E7D838002249FFF784
:100F2000DFFEEDE7199B9B1919931A9B9B1B1A93E4
:100F3000A8E7059B002B0BD01B9BDB0704D53800D3
:100F40000C4A0D49FFF7CCFE38001B99FFF7D8FE7D
:100F50007A68B9680CCA386802F090FD00227B6894
:100F60001A6011B0F0BDC0460349000007490000F7
:100F70002C460000FE4800007F470000404600006D
:100F80002C49000032490000364900009B3A00001D
:100F9000C0010020BC01002010490000B33A00004D
:100FA000E11400003B4900004349000041490000B2
:100FB0004549000047490000012310B500211C00ED
:100FC000074A904207D8074A002900D1012313603D
:100FD000054B186010BD210040085B00F1E7C046DA
:100FE00040420F00BC010020C001002070B50D0080
:100FF00004004618B44201D1280070BD217803488E
:10100000013483685B689847F4E7C0461C440000DD
:1010100010B5034A03480021121A02F0BCFD10BDAE
:10102000E4020020400000200648074A10B5121ACA
:10103000064902F0B4FD064A06480749121A02F0B2
:10104000AEFD10BD000000203C000020F44C00006C
:101050000000002000000020F44C0000F0B5070064
:101060000D0087B0002939D000248B68264E0593E7
:101070004B68012204930B6820000393234B31003B
:10108000029301942300009402F08DFD6B6901220C
:1010900005932B6931000493EB68200003931C4BEC
:1010A000019402930094230002F07DFDEB6901227C
:1010B0000393184B31002000029301942300009405
:1010C00002F071FDAB6901220393134B31000293CF
:1010D000200023000194009402F065FD012F0DD142
:1010E000EFF305830020103B03930C4B3A0002936F
:1010F000054903000190009002F055FD29003800D9
:1011000001F0AAF807B0F0BD0446000084490000D1
:10111000B3490000E2490000F14900001F4A000005
:1011200030BFFDE7054B5A699B689A4205D0802382
:10113000034A5B0551680B4353607047B4020020BB
:1011400000ED00E0F0B5424B91B05F680400FB0594
:10115000DB0D079362B6BFF36F8F3E4E130EFF2B6E
:101160000DD1F33B1340082B52D100203A4B012202
:101170000293310003000190009002F02FFD002542
:101180002C00079B032B49D10020344B01220293F2
:10119000310003000190009002F020FDA369304A65
:1011A000934202D32F4A934205D32F4A934249D305
:1011B0002E4A934246D2023B1B88FF221800DF21B1
:1011C0009043090288423DD11340022B3AD10020BE
:1011D000236831000393264B019002930090030093
:1011E000FE3A02F0FBFC276808AE20222100300006
:1011F00002F0F6FFF369002D26D0DA0502D11D4A70
:101200001343F36131003800FFF728FF11B0F0BD40
:1012100001251207B5D50C000025B2E7F8235B00C5
:10122000154A1F4200D1154A0020079B0392103B2C
:101230000493134B012202933100030001900090AC
:1012400002F0CCFC0027CFE75B0A5B02D9E7C0467F
:1012500000ED00E004460000604A00008B4A0000F8
:10126000B000000044430000000000200000002007
:10127000A24A0000FF010000474A0000324A000075
:10128000BE4A00000821024A53698B4353617047EC
:1012900000ED00E0EFF30880EFF3098101B572463D
:1012A000FFF750FF01BDC0460A4880F30888FFF7EA
:1012B0003FFB72B608480949401880F30988EFF3EC
:1012C00014800221084380F31488BFF36F8F02F06B
:1012D0009AFC0000E8130020E8020020000800004B
:1012E00010B50A4B9B6883420DD1EFF30583002BA9
:1012F00009D08022064B520559680A435A605A6A3F
:1013000004490A405A6201F0A3FB10BDB402002058
:1013100000ED00E0FF7FFFFF13498A681348104487
:10132000EFF3098CF0C043464C4655465E4667468F
:10133000F8C072B60E4F0F4E4A698A603E60906EDA
:1013400000239366002800D162B6084C10191030B3
:10135000F8C89846A146AA46B346BC462438F0C809
:101360008CF3098870470000B402002030000000B0
:1013700004ED00E00000000804207146014202D0A4
:10138000EFF3098001D1EFF3088081690239097810
:101390000229FFD001B5724602F014FC01BDC0461F
:1013A00043B2000605D41F221A4001239340014A8C
:1013B0001360704700E100E030B5FF2503220B0009
:1013C000290040B20240D20091409B012B40C9430A
:1013D000934000280ADBC0240A4A80088000801855
:1013E000A40002590A401343035130BD0F2210409C
:1013F0000838054A800880008018C26911401943E6
:10140000C161F2E700E100E000ED00E0FF22044BE3
:101410009343044A9360BFF34F8FBFF36F8F7047BE
:101420000000000000ED00E010B5203A1360029BC0
:1014300001245360039B06499360049BA143D3603E
:1014400080235B04D361002391610265836610BD34
:10145000173900000A4B70B50E00150098602C1C5F
:1014600086F309880020044B9847201C00210022A5
:101470000023024C20470000233C000017390000E5
:10148000B40200201022014B1A61704700ED00E009
:10149000F0B5C02400220326FF25A40010002F0071
:1014A0003040C0008740054993089B005B181959DC
:1014B0000132B94319511C2AF0D1F0BD00E100E01E
:1014C00010B5EFF30583054A103BDB00D1184968DE
:1014D00098588847FFF726FE10BDC0465C440000C0
:1014E000F0B589B002AC07000D0001920021102276
:1014F00020001E0002F07DFE0223A370054B320087
:101500002000019903930697079501F0AFFD09B0FC
:10151000F0BDC0463D3C000010B5024B1B6898472B
:10152000002010BDE8010020034B044A186002238C
:1015300091780B4393707047E80100201000002061
:10154000072310B50449054A99430548521A02F089
:1015500061F9002010BDC046EF130020008000207C
:10156000EC010020024A5378DB09FCD17047C046E9
:1015700000180040F8B500250F4A066913699CB2AF
:10158000DBB21461AB4201D1240A08350127002CDB
:1015900000D1F8BD3C420CD0380073191A7E5306B6
:1015A0009B0FDB00D206F318D20E904059681A68E0
:1015B000904764080135EAE700180040402310B561
:1015C0000B4A042091690B4393610A4B0A4A5A80E3
:1015D00000221100FFF7F0FE0420FFF7E1FE0223D6
:1015E000064A11780B431370FFF7BCFF002010BDB3
:1015F00000040040000C00400540000000180040BE
:1016000010B5094B04009B181B7E00207F2B09D9C5
:101610005A06920F944205D1D806C00E401A434292
:101620005841C0B210BDC046F8010020F0B585B0E9
:1016300003933F4B009242019B185B5C04009C4665
:10164000FF2B00D171E06246012393400193D31038
:101650000293072313409B00EFF3108672B6022714
:10166000344D2A78BA432A70334A6244177E7F2F5A
:1016700015D97A06920F824203D1FF06FF0E8F42E0
:101680000DD002232A7813432B70FFF76BFF002E37
:1016900002D162B6BFF36F8F102040423BE0264A72
:1016A0000A98E700B8500B98D71978601F200327D5
:1016B000084080213C404942014364010C4362449C
:1016C00014760F249C40029A00989100194A8918B8
:1016D0008A69A24304280CD8FEF7F4FC0307091F0B
:1016E000210001209840024303E00220FAE79F40D6
:1016F0003A430398002802D008209840024302236E
:101700008A612A7813432B70FFF72CFF019B2B6112
:10171000002E06D0002005B0F0BD0420E2E7052031
:10172000E0E762B6BFF36F8FF4E78620B5E7C04607
:10173000924C000000180040F8010020F7B51F4B44
:1017400042019B185C5C0E000190FF2C33D0EFF33C
:10175000108772B602221A4D2B7893432B70FFF735
:1017600001FF220031000198FFF74AFF002814D042
:101770007F200122134BA2401B19197E01407838AB
:101780001976E3100440A4000830A0409B005B19C8
:10179000996981439961AA602A6102232A781343D7
:1017A0002B70FFF7DFFE002F01D00020FEBD62B6D8
:1017B000BFF36F8FF9E786204042F7E7924C0000B5
:1017C00000180040F80100200B4B42019B1810B597
:1017D0005C5CFF2C0BD02200FFF712FF002809D021
:1017E0000123A3400020054A1361D36010BD862069
:1017F0004042FBE71020FBE7924C0000001800403D
:101800000B4B42019B1810B55C5CFF2C0BD02200E7
:10181000FFF7F6FE002809D00123A3400020054A67
:101820009360136110BD86204042FBE71020FBE768
:10183000924C0000001800400022F0B50100012485
:1018400010000C4B0C4E1D69B3181B7E7F2B0CD95E
:101850005F06BF0F8F4208D12F00D740274204D028
:101860002700DB06DB0E9F4038430132102AEBD104
:10187000F0BDC04600180040F801002010B508482F
:1018800002F0AEFB002808D0064C2000FFF74CFE0B
:101890002000FFF747F8002010BD13204042FBE76F
:1018A0001C440000A918000070B50400074D0A2868
:1018B00004D1AB680D2128005B689847AB6828000D
:1018C0005B68E1B29847200070BDC0461C44000030
:1018D000F0B585B0170002938023466802697568E9
:1018E0000C0069184031097850603548C9B2384059
:1018F000DB0398421FD080239B039F4202D0162017
:10190000404216E0012399430391307A2100FFF70A
:1019100077FF03001022103393430AD12100307A5D
:10192000FFF70CFF002804D16B462D191B7B4035B7
:101930002B7005B0F0BD880740D528680123E04032
:1019400018423BD1180008436108691803903031F0
:101950000F201C4228D00B78184008708021029B71
:10196000C9048B4224D0C021C9048B4224D08021D9
:1019700089048B42C3D180230121DB039F4200D124
:10198000033193680120E3400340307A01920D4A0D
:1019900000920A002100FFF749FE0028C9D121006A
:1019A000307AFFF711FFBDE70B7883431800D4E7C7
:1019B00080230021DB03E1E70221E2E786209FE7A5
:1019C000FFFFFFFE6F3D000010B5046808072368A5
:1019D000174A400F01381340032826D8FEF772FB40
:1019E000020D131C2360200002F0DAF9E823200026
:1019F000E36002F0D5F9002010BD2360200002F062
:101A0000CFF93423F3E790225204134323602000DC
:101A100002F0C6F9074BEAE78822920413432360D9
:101A2000200002F0BDF9044BE1E786204042E3E7E5
:101A3000FFFFCFFC0B16000030300408F0B5002586
:101A40008BB01600079006910993AA4278D043689C
:101A500004691D6801225242D317200000F08EFD58
:101A600023000127303308931E70069BE362002E8B
:101A700001D1350061E0069B5B68002B03D1069B1A
:101A80001B7A3B4268D183232B752B76334B28007E
:101A90006B8302F085F9E36A1A6822625A6862620F
:101AA0000022A2621B7A099A56003B4207D06B685B
:101AB0002B4A280013406B603E4302F071F9E36A41
:101AC0001B7A1B0702D580231B021E43EFF31083F2
:101AD000069372B628006E6202F062F98023AB753D
:101AE000E36A1B7AAF753B4201D00223AB75069BBC
:101AF000002B02D162B6BFF36F8F20000023194A7A
:101B0000103000F03BFD002815D1A36A002B1AD03D
:101B1000022218000B25104013420DD10493079B9D
:101B200011491B68013A0393104B019002930090F6
:101B3000030002F044F905256D42200000F0ECFCA2
:101B400028000BB0F0BD089B1E78013EF6B21E7057
:101B5000E36A0C33069388E71625EDE7430400009B
:101B6000FFFFFBFF88130000DC450000134B000063
:101B7000F0B546680369F26889B031690593136866
:101B800035680B431360F0223F21736912011B0279
:101B90001340328B07000A4013438022D2011343C3
:101BA000334A0021538083232B75706807AA02F003
:101BB0003AF9041E4FDB079B00221979186800F0E0
:101BC00007F9041E47DB2B4B28002B6002F0E8F8D6
:101BD00080235B006B60280002F0E2F8B368264ABD
:101BE0000621934214D039D8244A043993420FD0A5
:101BF000234A023193420BD00024224B2249029304
:101C00000122230020000194009402F0D8F8210062
:101C10007868FFF7D9FE041E26D10122059811002D
:101C200002F004FA059801222100103002F0FEF9BA
:101C30003800F369984702232A68280013432B6071
:101C400002F0AEF830236A8B28009A43203B1343FE
:101C50006B8302F0A5F8200009B0F0BD0B4A082103
:101C60009342D5D00A4AC4E786246442F3E7C046CB
:101C7000000C00401400007040420F00A0860100DC
:101C8000801A0600314B0000DC45000040E13300C3
:101C9000404B4C00F8B505006B6800691B684A4E64
:101CA000197EC9B219766A681468678B3A003240A7
:101CB00037421AD1456A012D2ED0CC0751D5002DBF
:101CC00042D183221A75020030321278012A06D9D5
:101CD000C26A117A890702D4127D520704D4C02245
:101CE000596892020A435A6012E0638B2D69200002
:101CF000AB62364B638302F053F883232375237E54
:101D00009B0704D0C02362689B02134363602800D2
:101D1000103000F001FCF8BD040030342478012CB0
:101D2000CBD9C66A347A367DB446042667463E402F
:101D3000022727403E4367467C402C403443BCD1B9
:101D40008A07E8D02A00B8E7016A283309781970B1
:101D5000036A01330362436A013B4362002A1DD1D7
:101D6000D9E78907FAD5002A0BD1012D09D18021A5
:101D70005C68C90221435960C0215C688902214323
:101D800059601C002834016A24780C70016A013102
:101D90000162416A01394162002A0FD0C36A010021
:101DA0001A000C32C26230310A78013A0A70DA68DD
:101DB00002621B69436200238362ACE70029AAD157
:101DC00083221A7590E7C0464707000043040000CD
:101DD000F0B504001F27890085B04518AC4202D138
:101DE000002005B0F0BD0F2023680D491A0C0240F9
:101DF0009200515830301A0D1E013A401840760FAB
:101E0000012E04D11B0F1B0403434020184301ABD8
:101E10000390180001910292043401F0A1FDDDE766
:101E2000E4460000F0B5456803692A6987B069692E
:101E3000039313682C680B431360F0223F21AB69B6
:101E4000029012011B021340AA8B20000A40134388
:101E50008022D20113432B4A5380BF23237501F004
:101E6000F5FFAA68284B20001343236001F0EEFF22
:101E70000021686A05AA01F0D6FF00283DDB059B1A
:101E8000002219791868FFF7A3FF002835DB039AB1
:101E90001E4B20005360013BFF3B636001F0D6FF07
:101EA00069681B480B0B0A05002180185941002363
:101EB000184AFEF7E5F901267642F71700900191DE
:101EC000009A019BB6185F41002F18D1124B9E4219
:101ED00015D843429BB22000A38101F0B7FF6B6885
:101EE000039A029813602B6A984702232268200005
:101EF0001343236001F0AAFF380007B0F0BD222091
:101F00004042FAE7000C00400400006000010300BA
:101F100000366E01006CDC02FEFF0000F0B50369C4
:101F200087B0019343680D001C68200001F08EFF0C
:101F30000222236820009343236001F087FFEA799F
:101F4000002A16D1019BDA712B7921686768012B71
:101F500012D0022B12D0002B0BD1BA04D20F049254
:101F60001A00019803716B79012B0AD00120032B11
:101F700008D08620404254E00493F1E70492012205
:101F8000EFE70020059001984371AE79042EF0D858
:101F9000264B12061940114386712000216001F082
:101FA00055FF059B07219A0133000B4005330B4079
:101FB0001343049A2000520313431D4A3A4013432B
:101FC0003F0C9BB23F041F43676001F03FFF2B684B
:101FD000184A190B18050023801859410023164A86
:101FE000FEF74EF901267642F71702900391029A06
:101FF000039BB6185F41002F15D1104B9E4212D89B
:1020000043429BB22000A38101F020FF2B68019A7C
:1020100020001360022322681343236001F016FF9F
:10202000380007B0F0BD2220A4E7C046FFFFFFF054
:10203000B8DFFFFF00366E01006CDC02FEFF00001F
:1020400030B50C490C4A8C6812680D688B68002CFE
:1020500000D11400002B00D113000848ED0301D477
:102060009C4203D20468A4180460096800688018C0
:10207000C01A30BD10E000E0B0020020A402002031
:102080000A4A0020136A1B021B0A13629622084B9D
:1020900052011A60074B084A1860084B5A60072221
:1020A000986019680A431A607047C04600ED00E066
:1020B000B0020020A4020020BF12000010E000E0E7
:1020C00070B5FFF7BDFF0C4B0C4A186811680C4C3B
:1020D000401810609621002225681A604901401BB3
:1020E000FEF704F896235B0143435B19236000F07D
:1020F0009DFEFFF717F870BDA4020020AC0200207F
:10210000A8020020F0B5334D334E85B0002953D0DE
:10211000431C08D101222B6893432B60FF231B062D
:10212000336005B0F0BD336801930027012848DC17
:10213000EFF31083039372B6FFF782FF0022AB68C0
:102140000293264B1C68264B04191A60254B1B680A
:102150000093E01A90423ADB96235B015F43224AE8
:10216000C01919008018FDF7C1FF96235B01584381
:10217000009B1B1B18188023DB00984200D218001C
:102180001A4B984200D91800002330600138A96822
:102190006860AB60029B02985A1AA318884202D268
:1021A000019B9B181B190D4A1360039B002BB8D190
:1021B00062B6BFF36F8FB4E733680193431CB4D1A9
:1021C0000B480C4B984200DD1800471EB0E78020FA
:1021D000C000D9E710E000E0B0020020AC0200200F
:1021E000A4020020A8020020BF12000080E8FF0027
:1021F000A60D0000A70D000070B5EFF3108572B6B4
:10220000084A094B14681B68E41AFFF719FF001904
:10221000002D02D162B6BFF36F8F96214901FDF701
:1022200065FF70BDAC020020A80200201FB50400AD
:10223000FEF794FC0020064B0190029300900300EF
:102240000122044901F0D8FE200001F0E4FEC0465E
:10225000754B000004460000F0B505000E0089B083
:10226000EFF31083079372B6264A274B976804282A
:1022700002D8264B8100CB58002425492000069126
:10228000127C0493234B05920293012223000395B1
:102290000194009401F0B0FEA6420DD0F369DB0575
:1022A000A34209D01C4B012202932000230006996F
:1022B0000194009401F0A0FE002F07D0380001F037
:1022C000C2FE002802D00378002B00D113480490EE
:1022D0000020134B01220699029301900300009005
:1022E000039701F089FE31002800FFF79FFF079B4D
:1022F000002B02D162B6BFF36F8F3800FEF7F0FFFC
:1023000009B0F0BDB4020020844B0000304700004B
:10231000044600009A4B0000C24B0000924B0000A4
:10232000E34B0000F8B501270A4E83009D590130A8
:1023300084003359AB4200D8F8BD6868002806D045
:10234000037F3B4201D101F032FE0835F1E72B68F3
:102350009847FAE744470000012270B5234B86B046
:1023600003201A70FFF7DEFF00F0DEFD0420FFF708
:10237000D9FF1F4C26001F4DAC420ED300F07EFA51
:10238000AE4220D300F08AFAFDF7E2FF01211A4A9B
:10239000137B8B43137306B070BD636A0593236A86
:1023A0000493E3690393A369029363690193236927
:1023B0000093E368A2686168206800F005F923686B
:1023C0005C653034D7E7B26AF36A511C01D1591CFD
:1023D00005D011003068194303D100F013FB3036EB
:1023E000CEE70649183000F091FCF8E7E202002041
:1023F0003C4500003C450000B00000200D410000BD
:1024000070B5702601250400464301021148802260
:102410000918002086B004950E35039505356543EF
:102420000D4B0590029001900C48F6182D180C4B9E
:1024300030000095520000F0C7F80422737B2C7422
:10244000934373730134074BE402E418EE606C604D
:1024500006B070BDE80A002040000020B402002051
:102460001F400000E8020020F0B5002087B0FFF711
:1024700059FF204B83F308881F49204B0A6A002527
:102480001A40C0231B0413430B62FEF7FBFEFEF74A
:10249000F9FFFEF73DFB1A4800F0C2F80120FFF7F4
:1024A00041FF0220FFF73EFF00F028FA154C164BC3
:1024B00080225C61154B164E059301231549049348
:1024C000120133002000039502950195009500F05C
:1024D0007BF804220700637B20009343637301F0C1
:1024E000EEFD2800FFF78CFF320039002000FEF7D8
:1024F000B1FFC046E80A002000ED00E0FFFF00FF4A
:1025000020010020B0000020B4020020A0480000FC
:1025100059230000E80B002070B5EFF3108572B668
:102520000468A0421AD0002C18D0626823680026E4
:1025300013605A6002222000637B2660934363731A
:102540006660A660183001F003FE2000E66601F028
:10255000B6FD2900084800F065F970BD8268C368BF
:102560009B1A591E8B419B188360002DF5D162B6D2
:10257000BFF36F8FF1E7C046E302002013B50400FC
:10258000EFF3108172B68068002808D00138A0608F
:10259000002902D162B6BFF36F8F002016BD100074
:1025A000184307D1002902D162B6BFF36F8F102004
:1025B0004042F3E7009201932200024800F016F92E
:1025C000ECE7C046E30200207FB504005830A06568
:1025D000E0650C9800262073042060730B98073286
:1025E000A0730820404202408D180A9AA660E67344
:1025F000A661E6610292099A20000192089A00926F
:102600002A00FEF711FF054B66659B68B34200D0B8
:102610005B6E2800636604B070BDC046B402002043
:102620000223FF33838100234366014B9860704788
:10263000B40200200B21084A49429368D966986683
:10264000802306495B05486803434B6062B6BFF3CD
:102650006F8F9368D86E7047B402002000ED00E0E1
:102660000D2370B5C356427B002B31DBD3062FD12F
:1026700080235B4213431A4C4373A3691949E269EF
:102680008B4207D1016042601060E0610FE09A4226
:10269000F8D01B68002BF5D00E260E259E57455707
:1026A000AE42F4DD5A680360426010605860A5696C
:1026B0008D4201D0002D00D1E568A3685A7BD20677
:1026C00007D1DA897F2A04D9AA69002A01D1636176
:1026D00070BDAB4202D0280000F07CFA6561F7E7DC
:1026E000B4020020CC0200200D2270B582560500F5
:1026F000437B002A04DA7F221340437301F0A5FCD8
:102700000D4E0E4AB469B368944201D0002C00D13A
:10271000F468AB4208D05A7BD20605D1DA897F2A09
:1027200002D9A269002A05D0A34202D0200000F0FD
:1027300051FA2300736170BDB4020020CC02002066
:1027400010B5511C01D1591C03D00249183000F0BA
:10275000DDFA10BD0D4100000D2270B58256040057
:10276000437B002A04DA7F221340437301F06DFC9F
:102770008023627B5B4213431A4D6373AB691A4932
:10278000EA698B4207D1216062601460EC610FE05E
:102790009A42F8D01B68002BF5D00E260E209E57CB
:1027A00020568642F4DD5A682360626014605C60E3
:1027B000AE69AB688E4201D0002E00D1EE68A34214
:1027C00008D05A7BD20605D1DA897F2A02D9B269AC
:1027D000002A05D0B34202D0300000F0FBF93300EC
:1027E0006B6170BDB4020020CC02002070B50C00FB
:1027F00011000A4A0A4B90681860EFF3108372B612
:102800009568280001F034FC049A059B2800FFF726
:1028100097FF2000FFF70EFF70BDC046B4020020F6
:10282000D402002010B500290AD1EFF3058000285A
:1028300007D1064B5A699B689A4202D0FFF7FAFE0D
:1028400010BD62B6BFF36F8FFAE7C046B402002036
:1028500010B500280AD1EFF30580002807D1064BF8
:102860005A699B689A4202D0FFF7E4FE10BD62B637
:10287000BFF36F8FFAE7C046B4020020EFF3108178
:1028800072B6054B9A68D37B013BD373002902D102
:1028900062B6BFF36F8F7047B402002070B5EFF3DC
:1028A000108672B6134DAB68DA7B0132DA73AC690D
:1028B000114A944201D0002C00D1EC685A7BD20618
:1028C00005D1DA897F2A02D9A269002A05D0A3425C
:1028D00002D0200000F07EF923006B61002E02D1AF
:1028E00062B6BFF36F8FEFF3108072B6FFF7B0FFE1
:1028F00070BDC046B4020020CC020020024B034A47
:102900009A61DA617047C046B4020020CC02002010
:1029100070B5EFF3108572B61B4CA168E3690A68C5
:10292000CB1A581E834149685B420A6051601340CC
:10293000E169A268002B05D1144B516013600A6055
:10294000E2610AE00E260E209E571056864216DDE2
:102950005968136051600A605A60A6690B4B9E4229
:1029600001D0002E00D1E668A3689E4202D030005C
:1029700000F030F928006661FFF75CFE70BD8B4205
:10298000DAD01B68D6E7C046B4020020CC02002093
:10299000F8B5030007000C000B4303D1FFF7B8FFA5
:1029A0000020F8BDEFF3108672B6134D134BA868E4
:1029B0001860FFF799FEA86823003A001049183004
:1029C00000F0A4F90423AA680400517B30000B43F3
:1029D0005373FFF72FFEAB689A6A002AE0D180227A
:1029E000DB6A12069342DBD101F0D8FB201AC34305
:1029F000DB171840D5E7C046B4020020D4020020FF
:102A00000D41000070B50400EFF3108572B6042686
:102A1000437B33420DD0183001F09AFB637B2000DA
:102A2000B3436373FFF71CFE29000548FFF7FAFE66
:102A300070BD002DFCD162B6BFF36F8FF8E7C046C2
:102A4000E3020020014B98687047C046B4020020A2
:102A5000F7B5037B04000193EFF31083009372B684
:102A60000823427B1A4206D0009B002B02D162B69B
:102A7000BFF36F8FF7BD1900114348B2002857DB31
:102A80006173A368002B02D0200001F0E6FA200059
:102A90002600183001F05CFB5836A56DAE4201D01F
:102AA000002D4DD1304F0025BB689C4204D1EFF37F
:102AB00005856A1E9541EDB2BE692C4A964201D049
:102AC000002E00D1FE68B34202D0300000F082F840
:102AD00020007E6101F0A2F8002D02D02448FFF70B
:102AE0009FFDBB689C4238D1EFF30583002B34D1A6
:102AF000237BDB070FD5009B002B02D162B6BFF30F
:102B00006F8F62B6BFF36F8F0423181C02DFEFF3E1
:102B10001083009372B60098FFF78CFD019BDB07D2
:102B2000A8D562B6BFF36F8F0423181C02DFA1E79C
:102B30007F210A4013432000637301F086FAA0E767
:102B4000280001F08AFA2800183001F001FB002368
:102B50002800EB66FFF784FD9FE7009B002BDDD18B
:102B600062B6BFF36F8FD9E7B4020020CC02002019
:102B7000200100200121044B044AC01A044BC0105C
:102B80004343D1547047C04690010020E302002027
:102B9000ABAAAAAAC289030000207F2A11D80A4A38
:102BA000106800280DD00E21084A595612680020DE
:102BB000914206DB5A7BD20603D10548181A431E00
:102BC000984101231840704720000020D8020020BF
:102BD0004000002070B518240C4B05001E7C0C4BE7
:102BE0007443E418200001F0B3FA0022094B2800D6
:102BF0009A55FFF7CFFF002807D0074B20001A682F
:102C00000649013AD31700F081F870BDB4020020E4
:102C100090010020E302002020000020752B00001E
:102C200070B5EFF3108572B6104A114B94681868AE
:102C3000A04207D1FFF7CEFF002D02D162B6BFF34D
:102C40006F8F70BD00211960127C0A4B9B5C8B4218
:102C5000F2D02000FFF79EFF0028EDD0637BDB065B
:102C600002D12000FFF778FD2000E3E7B402002046
:102C7000D4020020E3020020024B1868984200D1E1
:102C8000002070472400002070B50600FFF7F4FF15
:102C900000280ED0026943693400F517121BAB41BE
:102CA000002B06DC01D1002A03DBD843C0171040FB
:102CB00070BD0148FCE7C046FFFFFF7F002010B554
:102CC000034B1B68834201D1FFF796FA10BDC04643
:102CD000DC02002030B500280ED00B4B5B68984218
:102CE0000AD00168002907D00A694B69046945695F
:102CF00012196B410A614B610368426813605A60A4
:102D000000230360436030BD24000020F0B50400C0
:102D100015001E0085B0531C02D1731C00D17CE04D
:102D2000A160EFF31083039372B6002E26DBFFF74A
:102D3000C5FF00210090012040197141009AD3176E
:102D400012184B41364922616361086849681218BC
:102D50004B411E00150001230293FFF78DFF070072
:102D6000304B9C465B680193002F1DD16346236066
:102D7000019B63601C6063465C6027E0284B186819
:102D8000596802225242D317121A8B41521BB34187
:102D90001100002B04DC01D1002A01D10121002304
:102DA000636121610023D7E7386979692269636922
:102DB000994202DC28D1904226D9801A99417B6839
:102DC00038617961636027601C607C60FFF754FFA5
:102DD00084420FD1144B1B68002B0BD1029B002B9C
:102DE00002D1FFF76BFF00900098FFF74DFF002125
:102DF000FFF788F9039B002B02D162B6BFF36F8FF8
:102E00002800310005B0F0BD121A8B4122616361C8
:102E1000019B9F42AAD03F68A6E700250026EFE766
:102E2000A801002024000020DC020020F0B50500ED
:102E300089B0EFF3108672B62E4B03961D60FFF734
:102E40001BFF2D4904000A684B68E817049205939C
:102E5000002C10D02669676900950190874202DC3A
:102E600024D1AE4222D932003B00009E019F921B2A
:102E7000BB41226163612A00049C059D0300121975
:102E80006B4100240A604B601A4B20001C60FFF766
:102E9000FBFE2100FFF736F9039BA34202D162B685
:102EA000BFF36F8FFFF7BCFE09B0F0BDF3170696B6
:102EB0000793069A079B04980599801859410023A7
:102EC00000220D4D22616361286069602000FFF7D8
:102ED00001FF039B002B02D162B6BFF36F8F20006E
:102EE000A3689847EFF3108372B60393014B1D68F4
:102EF000AD1BA3E7DC020020A801002010B5EFF312
:102F0000108472B6FFF7DAFE02000649C31708689C
:102F1000496880185941002C02D162B6BFF36F8F07
:102F200010BDC046A801002010B5024800F0E8FC22
:102F300010BDC046484C0000F0B5012585B0029098
:102F400001910392039BAB4201DC05B0F0BD029CF2
:102F500023001C0022780133002AF6D0252AF8D15C
:102F60001A780234252AF3D00020060003000094CA
:102F7000009C1F2B27D8202149428C46944461464F
:102F8000102907D867463849F9400127394251D1FD
:102F90002E2A3DD02E2A24D8242A35D02A2A37D0CA
:102FA000002ED2D0AE42D3D1202414432000019968
:102FB00065380E68022801D9612C41D10723F01D24
:102FC000984308304BE07F2BE2D96C2A27D021D8D8
:102FD000682A2CD06A2A01D04C2AE1D1A022920082
:102FE00023E0302149428C46944461460929ECD8BB
:102FF0000A23584316336044009A01320092227823
:10300000002AB5D1009CCBE7002E15D0A84215D0E0
:103010000020F1E7742AEFD07A2AEDD0C0E78022B1
:10302000134202D0802189000B431343E4E780223E
:103030005200F5E70023DFE70600E9E76322B3E784
:10304000692A04D0301D692A07D8632A07D0301DA9
:103050001A0604D59B0502D5B0E7732AF7D1019B68
:10306000013518606EE7C04689280100F0B5436855
:103070009FB002900A910B92069383789B0717D515
:103080000B0000240D921878002800D1A1E025281B
:1030900011D0013309930299069B01349847002807
:1030A00000DBE3E1029B9A7804231343029A9370B6
:1030B000012464428DE05D789A1C0992252DEAD0A6
:1030C000099B079300231F001E0003930193079B96
:1030D00009931F2E19D828002038102818D8FCF77B
:1030E000F1FF0E171712171717521717170C171093
:1030F0001717090001231E4345E002231E43042342
:10310000F9E70823F7E71023F5E77F2E00D97BE0E6
:103110002E2D5BD02ED8242D5ED02A2D43D0039B9C
:10312000002B06D00B9B039A0A980DA90D93FFF76D
:1031300003FF002F02DA402300279E4320232B4366
:103140001A00653A022A02D9612B00D07FE00727D6
:103150000D9B9C4D0733BB4308330D93360700D4BA
:10316000B7E0E6190394039B9E4200D0B3E0019BB5
:10317000DF1BDBE12A00303A092A45D80A23710611
:103180000BD55F43BF18079B01330793099B1D783D
:10319000002D9CD1079B0993C1E701994B439B18D4
:1031A00001932023A7E7039B002BECD10D9B1A1D55
:1031B0000D92710601D51F68E5E71B680193002B8E
:1031C000EFDA019B5B420193282394E740231E42E0
:1031D00091D020001FB0F0BD039B002B31D00B9B82
:1031E00035000D934023019A1D401E4200D03A0045
:1031F0000A980DA9FFF7A0FE0D9B1A1D0D92002D38
:10320000D9D11B680193BEE76C2D0FD009D8682D6A
:1032100014D06A2D02D04C2D00D080E7A0239B0053
:1032200069E7742DAFD07A2DADD078E780231E42A8
:1032300000D160E78022920016435CE780235B00A8
:10324000F5E7039F019B3E00019703939BE728004E
:103250006338122800D9F2E0FCF73EFF13004A0061
:10326000F100F100F100F1004A00F100F100F1007D
:10327000F100F1000A01BA00F100F1001B00F100B9
:10328000AF000D9A0EAD131D0D93126801272A7021
:1032900064E70D9B1A1D0D921D68002D00D14A4D4B
:1032A000730601D401277F423900280000F0A9FFEE
:1032B000070053E720200299069B9847002800DA70
:1032C000F0E6013EB742F5D3019B01961C19A41B01
:1032D00047E7019EF6E7039A2B1B985C0299069B31
:1032E0009847039B01330393002800DB3BE7D9E6B3
:1032F0000D9B320643D5B2053AD5072207339343D7
:103300001A0008320D921A685B6804920593102324
:1033100032009A43059B0892002B3BDA04980599EA
:10332000002342428B41049205938023089ADB00DC
:1033300013439BB208930EAE0A23049805993200FA
:1033400000F06AFF831B0793079B089E03933300DB
:103350005B0600D4B3E001239E43079B9F4200DC41
:10336000ADE0002D00D0A9E01123089E9E431CE093
:103370001A1D0D921B680493DB170593C7E71A1DEE
:103380000D921B68F205F6D5B20501D55BB2F2E7E6
:103390001BB2F0E7049B059A1343CCD17306CAD540
:1033A000002FC8D1112307979E430397074B334043
:1033B0005A1E9341039AD3188AE010239E43063B7A
:1033C000039309E08A4C0000834C000006040000CF
:1033D000102378251E4303938021300008400D9A66
:1033E00007900E424ED080203100800001400642FE
:1033F00044D0072107328A43110008310D9103CAD6
:1034000002000A4353D133001632934308937206E5
:1034100050D5002F4ED1172307979E4303973307AC
:103420006AD4F30709D5019B039A079F934204DDF1
:103430009F1A079BFF18019B0393039B53E0782B74
:1034400003D15A1B683B1343BAE7622B14D02520E3
:103450000299069B9847002800DA23E60299069B0A
:10346000E8B29847002800DA1CE60234099B0AE615
:10347000082300250393AFE70223A1E7101D0D9059
:103480001068BDE7111D80200D91310040001268C9
:103490000140064201D11000B2E780239B001900D1
:1034A00090B231401E42ABD00799D0B2A8E70622B5
:1034B000964308960EAE3200039B41E70397F3064E
:1034C00000D473E72B005A1E9341039A9B180133D3
:1034D0000393A4E720200299069B9847002800DA6E
:1034E000E0E5089B01330893089A019B9342F1DCC5
:1034F000039B0392E41AA418F30621D53020029905
:10350000069B9847002800DACCE5002D10D1013445
:103510002600079A3B199B1B9A421DDB1700002FC0
:1035200022D1079B039A9E19019B9F1A34002CE01D
:103530000234E8B20299069B98470028E8DAB1E520
:10354000144B1E42E4D02B20B30700D40B38760571
:1035500000D52D200134EDE730200299069B01367D
:1035600098470028D5DA9DE50EAB013FF85C02993B
:10357000069B98470028D2DA94E520200299069B02
:1035800001349847002800DA8CE5F3191B1B002B47
:10359000F3DC6BE706040000F0B5CE469946030C59
:1035A0009C46130447461B0C1D000E006146040494
:1035B000240C80B50700100C4B4365434143604326
:1035C0002C0CC01824188C46A34203D980235B021C
:1035D0009846C444494679435643230C2D042D0C88
:1035E0008919634424046019C918C0BCB946B0469F
:1035F000F0BDC046F0B557464E464546DE46E0B5FE
:1036000004000D009246994683B08B4230D82DD0ED
:1036100049465046FCF754FE290006002000FCF7FE
:103620004FFE331A9846203B34D49B4653465A46A5
:10363000934042461F00534693401E00AF423BD882
:10364000AF4200D179E05B46A41BBD41002B00DAFC
:1036500076E0002200230092019301235A46934012
:103660000193012342469340009329E08242CFD93F
:1036700000220023009201930C9B002B01D01C60C0
:103680005D600098019903B0F0BCBB46B246A94604
:10369000A046F0BD42469B4620239B1A5246DA4084
:1036A000414613004A468A40170042461F4353468C
:1036B00093401E00AF42C3D9002200230092019321
:1036C0004346002BD8D0FB0772081A4346467B08B6
:1036D0000EE0AB4201D1A2420CD8A41A9D410120B8
:1036E00024196D410021013E24184D41002E06D0C1
:1036F000AB42EED9013E24196D41002EF8D100985D
:1037000001995B4600196941002B24DB2B005A46C6
:103710004646D3402A001C00F2405B461500002BB1
:103720002ADB26009E40330026004746BE4032007A
:10373000801A9941009001919EE7A342BCD882E78C
:103740004246202300219B1A00220091019201226F
:10375000DA40019285E7424620239B1A2A0046461A
:103760009A402300F340464613432A001C00F240CF
:103770005B461500002BD4DA202342462F009B1B0A
:1037800097402600DE403B003343CDE770477FB5CE
:1037900000200BAB059303930A9B019002930090CA
:1037A0000300FDF735FA07B000BD10B50A2200236B
:1037B000C117FFF7F1FE00F0AFFC10BDC9004018C3
:1037C000408840087047F8B50D000400FFF7F6FF89
:1037D000FCF718FD1F21091A8A00A218EB001069D6
:1037E0001F1D0633E719E318AEB2002808D10130D7
:1037F0008840E1680143E16015613E801E80F8BDAC
:10380000C1000431625A3A80D200A2181880D680D2
:103810006652F4E70723F7B50027043ACC1D891850
:103820009C4399430E1BF6080460A660E7603000D5
:1038300000912425FCF7E6FC20222D1A121A200004
:1038400039009200103000F0D4FC0122AD000735A1
:10385000ED08A9B24B0013436380731BEA009BB2CF
:103860000193A018030001982780400084461800A7
:1038700063464380A1520122009B0199F6005F80BC
:103880001980A61973882900134373802000FFF75D
:103890009AFFF7BDF0B585B00D001C1E0290039293
:1038A00029D000265B780193E078237840009B00C4
:1038B000C018A378C0182018019B9E4210D36279CB
:1038C000237912021A43A37903991B041343E27963
:1038D000029812061A4323000833A84705B0F0BD2A
:1038E0000378471C9B0038001F51FCF7F5FC0130A2
:1038F00038180136E0E716204042EFE70020704715
:103900000FB407B504A901C9019100F074F803B020
:1039100008BC04B0184710B50400080011001A00D4
:10392000A047FFF78FF8FDF7DBFC704770B50F2558
:103930004B08C3182A403033CC070DD51C7816012C
:1039400022002A4032431A70012340184030027886
:1039500013430370002070BD1C78AC432243F2E790
:1039600070B504000021012500686368A268C318CF
:10397000403319700E1C290063689940416029008A
:103980006368994041616168530604D51203120FC0
:10399000FFF7CCFF70BD930704D02A4201D08D40C1
:1039A000856104260121D3080B408B403343D506A3
:1039B00002D56568A94081609206D20F9201134337
:1039C0006268801840300370E4E70020704710B54B
:1039D00000F0E8FB0A220023FCF752FC10BD10B5F2
:1039E000012100F0E3FB10BD002110B50800FDF738
:1039F0000FF8002010BD1FB50290002003910300B6
:103A00000200010001900090FDF702F905B000BD31
:103A1000704700207047436810B5DA71012243688F
:103A2000196043685A71FFF7F3FF10BD70B50E00BF
:103A3000040015001900002802D1FDF7AFF870BD91
:103A4000002B06D013035B0D1030C018120D00F0D0
:103A5000C7FB200025606660FDF7B0F8EFE77FB593
:103A600000200BAB059303930A9B02220293019063
:103A700003000090FDF7CCF807B000BDF8B50600D4
:103A80000D0014001F00002C00D1F8BD21002800FB
:103A90003A00B047241A2D18F5E713B56B464A686B
:103AA000D87107330C68180001215268A047002024
:103AB00016BD70B504000D000A2802D10D20FFF7D5
:103AC000ECFF29002000FFF7E8FF002070BDF0B5F3
:103AD0008B6889B006930B880790DB0508000D788A
:103AE0000C005E0F1700FDF7EDF80023AD06010096
:103AF0006D0F984203DB2800FDF77CF803002100DE
:103B0000226810311203520D60888C18551EAA418C
:103B10005242114000220009049002910798069930
:103B20000597039401960092FDF7FAF809B0F0BDED
:103B3000436800201B685B681961704743681B6815
:103B40001A68526853607047F7B5012143681B68D3
:103B50005A6811751D686B682F681C685B68AE68D1
:103B60000193002C02D16B681C60F7BD210030006E
:103B7000019AB847241A3618F3E770B543680C0069
:103B80001D686B681869FCF7ADFF0F220300210068
:103B90002868984770BD10B500F02BFB10BD10B51C
:103BA00000F01EFB10BD7FB500200BAB0593039307
:103BB0000A9B01220293019003000090FDF728F870
:103BC00007B000BD10B501000068FDF747FA10BD51
:103BD00010B5FDF7A5FAFDF7A5FA10BD7FB50020D9
:103BE0000BAB059303930A9B012202930190030000
:103BF0000090FDF70DF807B000BD10B500210120C1
:103C0000FDF72CFA10BD10B5FDF700FCFDF700FA2A
:103C1000FDF70AFAFDF73CFCFEF726FC8620404241
:103C20007047002802D162B6BFF36F8F7047BFF3B1
:103C30004F8F30BF62B6BFF36F8F704710B50B69FF
:103C400049699847002010BD10B5FDF765FC0020BC
:103C500010BDF0B543680D0006695968930702D599
:103C600086204042F0BD0123100C184098403027B8
:103C70009C46041C1740930317D5002FF0D16346D0
:103C8000AB4050030DD54B618B60B068D20519D5A0
:103C9000A20717D5184349194031B06000200C70B5
:103CA000E0E71003F0D58B61EEE76346AB404B6075
:103CB000002FEAD004240443D00601D58B61E4E749
:103CC0004B61E2E79843E6E7436800205B681B6AC4
:103CD0000B60704743685B6818694240114041407F
:103CE000196100207047436800205B689961704744
:103CF000436800205B6859617047436800205B6837
:103D0000D961704730B503690024D86800280FD105
:103D1000002A1BD11620404230BD20601869814224
:103D200010D11C610EE005680400002DF0D02800C1
:103D30008842F8D10868002CEFD11C69D860A142F4
:103D400000D1186100200860824206D0DA680A605B
:103D50001A69D960002A00D119610020DCE700202F
:103D6000704710B54368187AFDF766FD10BD70B551
:103D70000B00C9680500002903D05E680C680029A3
:103D800000D170BD8B681A002A402B4202D030004F
:103D90004B689847231E00D0236821001C00EEE7E3
:103DA0000723C2691A42FCD17047002210B51100E6
:103DB0000A20FDF701FB0A20FDF7F2FA10BD7FB5DE
:103DC00000200BAB059303930A9B01220293019001
:103DD00003000090FCF71CFF07B000BDF8B507001A
:103DE0000D00CB061AD50E23194215D002264368C2
:103DF0001C6823682000B3432360FFF7D1FF29002C
:103E00007868FDF7E1FD236805001E432000266069
:103E1000FFF7C6FF002D04D10020F8BD1620404258
:103E2000FBE78620FBE730B503681360057904687B
:103E3000ED006419A34202D30220404230BD083392
:103E4000DC1E24788C42F0D10020F7E70723C269FA
:103E50001A42FCD1704743681B681A7E520703D58B
:103E600000201B8D0B70704710204042FBE7436819
:103E70001B681A7ED207FCD519857047022210B53F
:103E800043681868438B418B5B07DB0F114200D0FE
:103E900013430122448B1440A4001C430723428B8C
:103EA00013434383FFF7D2FF200010BD10B5026912
:103EB0009368002B01D0D168984710BD10B54368B6
:103EC0001C68237EDB07D80F002B05D00020824220
:103ED00002DD0B780130238510BD032243681B6887
:103EE0009A757047032243681B681A7570474368C8
:103EF00000201B681A7ED20702D5987DC007C00F2C
:103F00007047026903000020127C824204D05B6883
:103F10001B68987D8007C00F7047042243681B68A8
:103F20009A757047042243681B681A757047436886
:103F300000201B681A7E520702D5987D4007C00FEB
:103F4000704710B5436800201B681C7E640705D5C8
:103F50001B8DDBB2824202DD0B70013010BD1620DA
:103F60004042FBE743681B689A7D187E1040431E61
:103F7000984170470822436801201B681A767047F1
:103F800003699960DA607047030010B508000822E1
:103F9000196900F025F9002010BD002210B51100AC
:103FA0000920FDF709FA0920FDF7FAF910BD10B54F
:103FB00043690400002B07D100230122E1684878FF
:103FC00002434A70584210BD98470028F4D0C117E8
:103FD0004318E2684B40FF2B00DDFF231370ECE732
:103FE000002808D0C36800205A78D20703D5187873
:103FF00043425841C0B270477FB500200BAB0593D8
:1040000003930A9B01220293019003000090FCF7A6
:10401000FFFD07B000BDEFF3108372B6FEE710B5E9
:10402000EFF3108372B6FFF702FEF9E7002A07D01C
:104030008A4205D38160C260006040600020704702
:1040400016204042FBE70020704703684268136077
:104050005A60002303604360704710B50400FFF707
:10406000F4FF0222637B934363730023A36010BDBC
:1040700070B504000D00FEF737FB0223627B13438B
:104080006373002D1AD0A5602B689D4209D16B681F
:10409000256063601C606C6010E06A689A42F6D02C
:1040A0001B68002BF3D00E210E225956A2569142C6
:1040B000F3DD5A682360626014605C6070BD10B507
:1040C000EFF3108472B6FEF7CBFA002C02D162B681
:1040D000BFF36F8F10BD70B50400EFF3108572B69B
:1040E0002823427B1A420BD18368002B01D0FFF7B3
:1040F000B4FF0422637B200093436373FEF7B0FA9E
:10410000002D02D162B6BFF36F8F70BD10B50121D3
:104110001838FFF7E0FF10BD70B504000D00FEF782
:1041200037FC03002000621C01D101350DD01800BE
:10413000D9170922002380185941092801D10029E3
:1041400004D00A220023FCF79BF870BD0800FCE7AE
:1041500070B50400EFF3108572B60368002B1AD017
:10416000FEF78AFD06002000FEF7B4FD8023002242
:104170001B0622616361A64206D1FEF79FFDFEF792
:1041800083FD0021FDF7BEFF0020002D02D162B6A5
:10419000BFF36F8F70BD16204042F6E710B5FEF7F3
:1041A000ADFE10BD10B5FEF7A9FE10BD0300EFF384
:1041B000108272B6006841181960002A02D162B6F6
:1041C000BFF36F8F70470300EFF3108272B6006881
:1041D000411A1960002A02D162B6BFF36F8F70478F
:1041E000002310B59A4200D110BDCC5CC4540133F9
:1041F000F8E703008218934200D170471970013329
:10420000F9E7030041188B4202D01A78002A01D145
:10421000181A70470133F6E7F0B50D0037211F2754
:1042200004001600C91A8FB0C9B20D911F40E3B245
:104230000C93082F19D0102F23D0EB07022F31D168
:1042400001220C9911406208944660466A0818439E
:104250000400150022003031731C31702A4302D152
:1042600018000FB0F0BD1E00E1E707230C99E2082B
:1042700019406B079C466046EB08104304001D0084
:10428000E8E70F230C99220919402B079C4660464A
:104290002B09104304001D000929DBD90D9B591877
:1042A000C9B2D7E762081A436B0806920793A208BF
:1042B000AB071A43AB080892099308980999069A24
:1042C000079B12184B4119078C46604611090143A0
:1042D0000091190901910098019912184B41190692
:1042E0008C466046110A01430291190A0391029813
:1042F000039912184B4119048C466046110C014376
:104300000491190C05910498059912184B4100214C
:104310000A930B910A980B9912184B415907DD0823
:104320000523D4080C4363430C9A5B00D11AC9B22D
:10433000092900D88EE7012200230A39A4185D411B
:04434000C9B2A9E76E
:08434400B0F2FF7F0100000050
:10434C0000000000FC430000000000009C43000043
:10435C0000000000BC43000000000000DC43000033
:10436C00000000001C4400007D180000000000004C
:10437C008120000000000000E9390000000000006E
:10438C004115000000000000000000003C4400004B
:10439C00D84A000000000000000000002C000020A3
:1043AC00F8010020BD150000000000000000000016
:1043BC00E54A0000884600003C4500002E00002025
:1043CC00200200205F3D0000000000000000000003
:1043DC00F34A0000944600003C45000030000020E9
:1043EC00340200205F3D00000000000000000000CF
:1043FC00014B0000A04600003C45000032000020AC
:10440C00480200205F3D000000000000000000009A
:10441C00654B0000F0460000784500003600002097
:10442C0090020020251E000000000000000000008B
:10443C004C4B0000AC4600006045000034000020EE
:10444C005C020020711B0000000000000000000056
:10445C0000000000FB3B000000000000FB3B0000E4
:10446C0000000000FB3B000000000000FB3B0000D4
:10447C009C4300007515000000000000FB3B000091
:10448C0000000000FB3B000000000000FB3B0000B4
:10449C0000000000FB3B00001C440000AD3E00008F
:1044AC003C440000951C000000000000FB3B000099
:1044BC0000000000FB3B000000000000FB3B000084
:1044CC0000000000FB3B000000000000FB3B000074
:1044DC0000000000FB3B000000000000FB3B000064
:1044EC0000000000FB3B000000000000FB3B000054
:1044FC0000000000FB3B000000000000FB3B000044
:10450C0000000000FB3B000000000000FB3B000033
:10451C0000000000FB3B000000000000FB3B000023
:10452C0000000000FB3B000000000000FB3B000013
:10453C00533C0000C93C0000D53C0000E73C0000A7
:10454C00F13C0000FB3C0000D1180000053D0000D0
:04455C00633D0000BB
:10456000DD3D0000000000003D1A000000000000DA
:08457000000000000000000043
:10457800573E00006F3E00007D3E00001D1F0000FA
:10458800893F0000BD3E0000433F0000DB3E0000C5
:10459800E53E0000EF3E00001B3F0000253F000005
:1045A800033F00002F3F0000000000000000000053
:0C45B800653F0000753F0000813F0000DF
:1045C400A548000003000000D14A000003000000D9
:1045D4000F4B0000030000005C4B000003000000D0
:1045E400B648000003000000BA48000003000000C1
:1045F4007B49000003000000A04800000300000005
:08460400454C0000030000001A
:10460C006C460000080000206A4900000100000010
:10461C00CF3A000000000000000000000000000085
:10462C00000000004A490000524900000000000050
:10463C0000000000000000005A4900005E49000024
:10464C0062490000664900005C460000C40100207D
:10465C00ED0F0000DC010020E10200200100000051
:10466C007B3B000000000000493B00003D3B00008C
:10467C0000000000313B000000000000FFFFFFFFC6
:10468C000045004102000000FFFFFFFF8044004195
:10469C0001000000FFFFFFFF00440041000000008C
:1046AC00000C0042CC460000801A0600200400409A
:1046BC00080000000000000015000000AB3D0000E9
:1046CC00D446000001000000DC460000020000009F
:1046DC0000000023000010230044004180440041EE
:1046EC00004500410008004200C20100000010001B
:1046FC000000000020040040040000000000000046
:10470C00140000009B3F00001847000020470000E9
:10471C0001000000284700000200000000004032A9
:10472C0000005032FB4B0000094C00001D4C0000F7
:10473C002C4C0000384C00004C4300004C43000053
:10474C007C430000844300009C4300009C43000019
:10475C00493243206EC3A36F20657374C3A12070CC
:10476C00726F6E746F21004932432070726F6E74D9
:10477C006F3A20257300436869702049443A203011
:10478C00782530325800424E4F303535204EC38399
:10479C004F206964656E746966696361646F21009A
:1047AC00424E4F303535206964656E7469666963B5
:1047BC0061646F2100424E4F30353520636F6E6659
:1047CC006967757261646F20656D206D6F646F2011
:1047DC004E444F462E004C656E646F206461646FCE
:1047EC007320636F6E74696E75616D656E74652E82
:1047FC002E2E0045756C6572202D2048656164690C
:10480C006E673A202564C2B02C20526F6C6C3A2033
:10481C002564C2B02C2050697463683A202564C2A8
:10482C00B000416363656C202D20583D2564206DDC
:10483C00672C20593D2564206D672C205A3D25643A
:10484C00206D67004779726F202D20583D25642C10
:10485C0020593D25642C205A3D25640054656D700B
:10486C006572617475726120616D6269656E7465E3
:10487C003A20256420C2B043002D2D2D2D2D2D2D39
:10488C002D2D2D2D2D2D2D2D2D2D2D2D2D2D2D2D4C
:10489C002D2D2D006D61696E0063627072696E74EE
:1048AC00665F7061636B616765006C6F67006C6F4E
:1048BC00675F6D676D74004D657373616765206428
:1048CC00726F7070656420626563617573652069D1
:1048DC007420657863656564732073697A65206CF0
:1048EC00696D69746174696F6E2028257529000DD6
:1048FC000A001B5B306D00257320005B2530386C83
:10490C00755D20005B253032753A253032753A25BD
:10491C003032752E253033752C253033755D2000E3
:10492C003C25733E200025732F0025733A2000256B
:10493C003032782000202020007C002563001B5B97
:10494C00313B33316D001B5B313B33336D00657292
:10495C00720077726E00696E6600646267006C6F3D
:10496C00675F6261636B656E645F75617274006C26
:10497C006F675F756172740072302F61313A20205D
:10498C00307825303878202072312F61323A20204F
:10499C00307825303878202072322F61333A20203D
:1049AC003078253038780072332F61343A2020303B
:1049BC007825303878207231322F69703A202030C7
:1049CC007825303878207231342F6C723A202030B0
:1049DC0078253038780020787073723A202030783F
:1049EC0025303878004661756C74696E6720696E85
:1049FC00737472756374696F6E206164647265732D
:104A0C007320287231352F7063293A203078253085
:104A1C00387800556E68616E646C6564204952513B
:104A2C006E3A202564005265736572766564204584
:104A3C007863657074696F6E2028005370757269A5
:104A4C006F757320696E7465727275707420284965
:104A5C0052512000535053454C20696E207468729B
:104A6C00656164206D6F646520646F6573206E6F83
:104A7C007420696E64696361746520505350002A18
:104A8C002A2A2A2A2048415244204641554C542077
:104A9C002A2A2A2A2A00415243485F455843455046
:104AAC0054207769746820726561736F6E20257865
:104ABC000A002A2A2A2A2A20257320256429202A3A
:104ACC002A2A2A2A006765746F707400656963402E
:104ADC003430303031383030006770696F403431E9
:104AEC00303034353030006770696F4034313030DD
:104AFC0034343830006770696F40343130303434BE
:104B0C00303000693263005472616E736163746992
:104B1C006F6E206572726F72206F6E2025733A2053
:104B2C002530385800496E76616C696420493243EF
:104B3C002062697420726174652076616C75650001
:104B4C00736572636F6D40343230303063303000D7
:104B5C006932635F73616D3000736572636F6D40B2
:104B6C0034323030303830300048616C74696E67E4
:104B7C002073797374656D00556E6B6E6F776E2054
:104B8C006572726F7200756E6B6E6F776E003E3E63
:104B9C003E205A455048595220464154414C2045DC
:104BAC0052524F522025643A202573206F6E2043B9
:104BBC005055202564004661756C742064757269CB
:104BCC006E6720696E746572727570742068616EA0
:104BDC00646C696E670A0043757272656E7420743A
:104BEC0068726561643A202570202825732900437A
:104BFC00505520657863657074696F6E00556E68EA
:104C0C00616E646C656420696E7465727275707423
:104C1C0000537461636B206F766572666C6F7700FE
:104C2C004B65726E656C206F6F7073004B65726EA6
:104C3C00656C2070616E6963006F73002A2A2A20EC
:104C4C00426F6F74696E67205A6570687972204F75
:104C5C0053206275696C642076342E322E302D36DA
:104C6C003833332D67386162613265336633616185
:104C7C0038202A2A2A0A00286E756C6C29002A66AC
:104C8C006C6F61742A000001FFFF04050607FF0921
:104C9C000A0B0C0D0E0F0001020304FF06070C0D8E
:104CAC00FF0F08FF0A0B00FF0203FFFFFFFF0809BD
:104CBC00FFFFFFFF0E0F0001FFFFFFFF0607FFFFC7
:104CCC00FFFFFFFF0E0FFFFFFFFFFFFFFFFFFFFFC9
:104CDC00FFFFFFFFFFFFFFFFFFFFFFFFFFFFFFFFD8
:084CEC00FFFFFFFFFFFF0000C6
:104CF400FD380000CB3900005446000000000000DD
:104D040000000000493C000000000000000000001A
:0C4D1400C8000000240000202400002043
:0C4D200000000000000000000000000087
:044D2C000000000083
:044D300015E015E095
:04000003000012A93E
:00000001FF
