:10000000081800206D190000DD4900005919000092
:1000100000000000000000000000000000000000E0
:100020000000000000000000000000003D1A000079
:100030000000000000000000DD190000A127000002
:10004000851B0000851B0000851B0000851B000030
:10005000851B0000851B0000851B0000851B000020
:10006000851B0000851B0000851B0000851B000010
:10007000851B0000851B0000851B0000851B000000
:10008000851B0000851B0000851B0000851B0000F0
:10009000851B0000851B0000851B0000851B0000E0
:1000A000851B0000851B0000851B0000851B0000D0
:1000B00002B4714649084900095649008E4402BC01
:1000C0007047C04602B4714649084900095C4900BE
:1000D0008E4402BC7047C04603B4714649084000D4
:1000E0004900095A49008E4403BC70470022430866
:1000F0008B4274D303098B425FD3030A8B4244D3F0
:10010000030B8B4228D3030C8B420DD3FF22090231
:1001100012BA030C8B4202D31212090265D0030BF0
:100120008B4219D300E0090AC30B8B4201D3CB03E6
:10013000C01A5241830B8B4201D38B03C01A524128
:10014000430B8B4201D34B03C01A5241030B8B422A
:1001500001D30B03C01A5241C30A8B4201D3CB0215
:10016000C01A5241830A8B4201D38B02C01A5241FA
:10017000430A8B4201D34B02C01A5241030A8B42FD
:1001800001D30B02C01A5241CDD2C3098B4201D315
:10019000CB01C01A524183098B4201D38B01C01A93
:1001A000524143098B4201D34B01C01A524103090A
:1001B0008B4201D30B01C01A5241C3088B4201D3B9
:1001C000CB00C01A524183088B4201D38B00C01A66
:1001D000524143088B4201D34B00C01A5241411A8D
:1001E00000D20146524110467047FFE701B500209A
:1001F00000F006F802BDC0460029F7D076E7704748
:100200007047C0461C2101231B04984201D3000CF7
:1002100010391B0A984201D3000A08391B09984279
:1002200001D30009043902A2105C40187047C0468F
:1002300004030202010101010000000000000000AF
:10024000414208401C2101231B04984201D3000CA9
:1002500010391B0A984201D3000A08391B09984239
:1002600001D30009043902A2105C401A7047C0464D
:100270001B1C1D1D1E1E1E1E1F1F1F1F1F1F1F1F9D
:10028000002B11D1002A0FD1002900D1002802D063
:100290000021C943080007B4024802A14018029097
:1002A00003BDC0465DFFFFFF03B4684601B5029879
:1002B00003F014FE019B9E4602B00CBC7047C04682
:1002C00010B5002903D1FFF79DFF203002E00800A0
:1002D000FFF798FF10BDC0460023C25C0133002A1F
:1002E000FBD1581E7047000070B5174803F085FF1A
:1002F000164E3068002803D004F06EFD002803D0AD
:10030000134803F081FA70BD306883684221DB68CE
:10031000984730680F4D83682A000D211B69984764
:1003200030680D4C836822001B691021984706CD68
:100330000A4803F069FA06CC094803F065FA00217F
:10034000084804F003FEDFE7AC560000B8060020C2
:10035000CC560000B0060020A8060020F55600008C
:100360000D570000204E0000F0B597B00493042311
:100370000A921A400A9B0B92DA0807231A400132AC
:1003800007001C9E02910D92820700D0BEE1041D61
:10039000002851D10A001A401300141D0822D31A54
:1003A0000293049B0425013B0693002307930C93BF
:1003B00005930193013B08930395002F01D0049B03
:1003C00023600D9B002B00DDEDE09C4B049A9A42CC
:1003D00003D39B4B9A4200D2E5E002220A990A9885
:1003E000E31B1140104200D0EAE00A0005990F29F2
:1003F00000D9E3E0002F00D1E8E09B08DBB29C4687
:10040000080061460EAB1954059B089912A8C15407
:10041000002A00D1D6E08022634652421343059A57
:100420000EA98B54079B01330793059B013305935A
:10043000069B0434013B09E0029B072BB1D81C202A
:100440004042F8E008250395069B01330693069B7E
:100450009878002800D1E4E0019B002B08D12528E2
:10046000F2D1089B01330893012301930425EAE7A5
:100470007A284FD84B2813D847284BD8292831D869
:10048000252844D0002301932528DDD803002038F7
:10049000233B5A4253414242504103430193D3E725
:1004A0004C382E2836D8FFF703FECF353535353595
:1004B00035353535353537353535353535353562BD
:1004C000353737626262CF37CD35CF3518371835BB
:1004D000357AE13735353735E100002309930425B6
:1004E000019327E001210B002A38C0B28340554A0E
:1004F0001342A9D1E222180092051040134236D1CE
:100500001A000A4001920B429ED0099013E0089B0A
:10051000013B08930023C1E70022069B09925B7808
:1005200001926C2B07D10425069B03951B786C2B3D
:1005300001D16D190395013C60192900FFF7D6FD23
:1005400068430400002F06D0039B029ADB1B1B1894
:10055000934200D973E7099B002B49D0069B0233D5
:1005600006930D9B013B0D9308CE049325E70721CD
:1005700007368E4364188C430CCE002F08D001310F
:10058000C91B02980919814200D958E722606360AB
:100590000023082501932B000834039354E7019BA3
:1005A000099300239BE70A9B9B0700D440E70122A5
:1005B000E31B802189008B4200D217E716203FE71A
:1005C0000022F6E70C9B01330C932EE7029B002AD6
:1005D00002D00133029328E7023302930B9B002BD6
:1005E00000D022E70498FFF777FE029B1B18F1E783
:1005F000039B042B07D1331D002F01D032682260EA
:100600001E00043420E70722F31D93431E00083622
:10061000002F03D01A685B682260636008230834E7
:10062000BBE78022E31BD2009342C7D2002F0BD13D
:1006300002980838C01817B0F0BDC046F451000049
:100640007C5C0000DAFF00009B08302238603B70C1
:100650006B469B180B9A1B78002A0BD0FB70079BEC
:10066000BB70002B1AD100250EAE059BAB421CD1EE
:10067000E01BE0E77B70F2E7C656195C002E08DA53
:1006800065462940029D1619AE4200D9D7E6217071
:100690000134013305999942EED1E4E77F22944673
:1006A0007E3A00230EA8D21BF4E7079B002B02D052
:1006B00033787F2B1BD80B9B002B1BD012ABEB5C32
:1006C00023700023013401930123019ADB1B1B19C2
:1006D0009B18029A934200D9B1E63378019A2370AD
:1006E00001342000049904F0C6FC019B1C1901355B
:1006F0000136BAE733789B00FB181A6804920B9A0C
:1007000004981A60FFF7E8FD431CDCE70E2097E62B
:10071000F0B59BB000AFF863F9623A63BB620029A1
:100720000BD104788378A400E41845780419FB6A97
:100730009D4227D8FB6BE31AFB62FB6B80219B7801
:100740007A18BB6301231268BD6B1A40FA616A1EF6
:100750009541FB691D40FB6BDB787B62002B03D06E
:100760007B181B689B0717D4002D15D13B6B002B02
:1007700003D0BA6AF96AF86B9847FE6A3000BD4642
:100780001BB0F0BD01342000FFF7A6FDFB6A01306D
:1007900001332418FB62CAE78023FA6BFB189446E6
:1007A0001B681B07DB0FBB61FB6B1B78BB609B00EF
:1007B0003B61FB6B5B68FB603B6963443B623B6B8B
:1007C000002B00D096E0BA6B3B6A944663441A0053
:1007D000FE6A7B63002D08D03C6A3D6B7B6B9C42BC
:1007E0004CD1BB6B3A6A9C46624480210523791840
:1007F0000968BA630B4059424B410133BB62002385
:100800007B637B6B7A6A9342B8D2BB6BFA6B5B7883
:100810009B009B583B633A6BBB4B9A4200D268E10A
:10082000BA4CBB69A242A4416442002B3FD0BB6BCF
:10083000F8681B781900FB6203F0BDFC002836D075
:100840006C468AB06A46B24B0593FB680693FB6A16
:10085000079380239B001384AE4B049392210023C3
:10086000AD481032890100F087FCA546023E7B6B43
:1008700001337B63BB6B0233BB63C2E72378FA6B44
:100880009B009858FFF728FD8422BB181B68013095
:10089000002B09D08823FB181B689D4204D2BA188C
:1008A00012686B00985201353618013496E7002C17
:1008B00005D0FB69002B08D1BB6AF61AD7E7802365
:1008C0000222FB181B681342D1D0386BFFF704FDDE
:1008D00084217B181B68002B0AD08823FB181B6817
:1008E0009D4205D2791809686B00421C5A520135A5
:1008F0003618BCE7BB6B7B63002D6DD11C1E0FD07F
:100900008023FB181B682C007D635B0708D5182328
:10091000BC6B40229B18396ABA6BD81904F0ABFB48
:10092000BA6B3B6A944663443B603B6200237B6145
:100930007B697A6A934252D3FB6B00215D787B6BB3
:100940005A198023FB181B68D2B29B0700D4610898
:100950000023F869984205D18033FB181B685B07B8
:10096000DB172340F86B42708370C170BA6A396933
:100970003B6B9847061E00DA00E7FB6BBA68402025
:100980001A70BA6B5D709A707A6A2100DA70182357
:100990001B18D819BA6A3B6B9847041E00DAA4E00A
:1009A0007B6ABA6A58003B691918BB6BC918FB6AA5
:1009B000591A3B6818183B6B9847002800DA96E0F4
:1009C0000025361936187B6B9D425BD30021BA6A2D
:1009D00008003B6B9847D1E60024082399E73B6A5F
:1009E000FA6B1B787B603B6A5E78B3009D58464B80
:1009F0009D4200D283E0454B9D42AD41BB696D42B3
:100A0000002B05D07968F86803F0D5FB00281CD1CD
:100A1000002D21D0FB69002B0AD008227B6B01330B
:100A200040215218796BD219DBB256547B630CE02B
:100A300080230422FB181B68134206D04021143285
:100A40005218631CD2191655DCB27B6901337B61E5
:100A50003B6A02333B626BE780230222FB181B6870
:100A6000134203D07B6B06320133D9E740211822B1
:100A700052187968631CD2191155DBB20234E4B202
:100A8000D654E2E7402208239B18DB19EB5C0732BF
:100A9000B818FA6B03709B009B588422BB63BB1889
:100AA0001C68002C09D08823FB181B6800249D4279
:100AB00003D2BA1812686B00D45A0121BA6A3B6B90
:100AC0009847002813DB3618002C04D1B86BFFF7C9
:100AD00003FC013084B22100BA6AB86B3B6B9847C3
:100AE000002804DB361801356DE7060046E60600EF
:100AF00044E6BB69002B00D1E1E6002497E6BB6920
:100B0000002BA9D000257DE7F45100007C5C00009B
:100B1000235700000400000194540000014B1860AA
:100B20007047C0460000002010B52E4B2E4A196AAF
:100B3000114042220A431A62DA681207FCD50021EA
:100B40002A4A91605178C909FCD183214902516038
:100B50005178C909FCD16F31FF319982D968890771
:100B6000FCD50221FF3191605178C909FCD120499F
:100B700051605178C909FCD18221C901518091216C
:100B8000890099841B481C49006809688005890E02
:100B90008902800D014399621849D962D968C90652
:100BA000FCD50221988C01439984D9680906FCD5AB
:100BB000D9684906F9D51E21114C606888431A3955
:100BC000014361608021490091605178C909FCD1DD
:100BD0000C4951605178C909FCD11A6A02318A4323
:100BE0001A6210BD000800400000FFCF000C00405A
:100BF000010521002860800024608000B805FF7D89
:100C00000040004100070100F7B50500060028007C
:100C1000FFF716FB01238340DA430F4F04019D4386
:100C20003B1901931B7B0092002B0CD0E3591B69ED
:100C3000002B0CD1009B3C191E40636804221968EC
:100C4000019803F0C9FD002DE1D13000FEBD381937
:100C500098470028F7D1EDE7D4540000F0B5002202
:100C600089B00F490F4804F0BBF900240026002783
:100C70000E20C0220C4D03900696079728000B4BC0
:100C80000B490494029401940094920002F046F8F7
:100C90000849280004F0CAF8200009B0F0BDC04699
:100CA000B90C00000005002088000020BD0F0000E6
:100CB00008080020D757000010B5024801F0AAFF2D
:100CC00010BDC04678000020F7B500901F48019184
:100CD00003F061FD061E35D000252800FEBD237BF4
:100CE000002B11D02368DB68002B01D0200098472F
:100CF00063689F7123681B69002B1BD16368042202
:100D00002000196803F068FD01361034104B9C4236
:100D1000E5D3009B002BE0D0002DDDD02800FFF7AD
:100D200073FF019B0500002BF6D00021642004F026
:100D30000DF9F1E7200098470028DFD03B00B340D1
:100D40001D43E1E705000127024CDFE7CC06002048
:100D5000E4540000D4540000014B8000C058704798
:100D6000F8540000030010B50800002B05D0044A19
:100D7000136000F087FC002010BD16204042FBE706
:100D80000400002010B5054C2378002B02D1044844
:100D900001F040FF0123237010BDC0460008002071
:100DA0007800002010B50400074803F0F4FC002C84
:100DB00003D00121054804F045F9054804F01CF969
:100DC000044801F027FF10BDC4060020C80600201B
:100DD000000500207800002010B50021014804F033
:100DE0003EF910BDC406002070B5FFF7F5FF050001
:100DF000084C094B9C4200D370BD63685B79002BA3
:100E000006D023685B68002B02D029002000984799
:100E10001034EEE7D4540000E454000010B5044C44
:100E20000449200003F0FDFA034B1C6010BDC046CE
:100E30003C000020E4540000BC0600200023FA21FE
:100E40000C4A10B513700C4A890013600B4A0C4809
:100E50001360FFF787FFFFF7E1FF0A4B0A4918000D
:100E60008B4200D310BD1A1A5C6812110132227134
:100E70001033F5E701080020C4060020C806002052
:100E8000A1470000D4540000E454000010B5044C05
:100E9000010000220023200003F0E4FA10BDC04648
:100EA0003C00002010B5024803F076FB10BDC046A0
:100EB0003C00002010B5034B0100186803F0B8FB9C
:100EC00010BDC046BC06002010B5024803F0E9FB87
:100ED00010BDC0463C00002070B5204B187800289B
:100EE00026D0FFF7DFFF1E4C051E2CD11D4B1E4CDC
:100EF0001B68002B11DD04F06FF80A220023FFF7B6
:100F0000BFF922686368801A9941002903D1FA2346
:100F10009B00984201D9FFF767FF22686368FA20B7
:100F20000021800012184B4122606360FFF7CCFF64
:100F300070BD63685B79002B04D023682900200012
:100F40001B6898471034094B9C42F2D32800FFF7E6
:100F5000B1FF0121064804F075F8C7E7000800203A
:100F6000D4540000C4060020F8040020E45400001B
:100F7000C806002070B50E4D297800290CD101203B
:100F8000FFF7A2FE0B4C0C4B9C4206D3FFF7A4FFCD
:100F90000028FBD101232B7070BD63685B79002BA7
:100FA00003D0236820009B6898471034EBE7C046C5
:100FB00001080020D4540000E4540000F7B50021DB
:100FC0000800FFF781FE041E2BD0FA2700267F00C1
:100FD00002F0E2F81B4B1860002806D01A4B1B6881
:100FE000092B02DD194801F015FE00230093002CA7
:100FF00007D02000FFF708FE041E02D101277F4220
:101000003E00FFF769FF0190002808D1009B104DBA
:10101000002B13D10D483A00330001F02DFE019B47
:10102000E4E701277F423E00D2E72B689B69002B53
:1010300003D000222800110098471035054B9D422F
:10104000F3D3E7E7C0060020C806002078000020A0
:10105000D4540000E454000013B5154803F09BFB82
:10106000144B1B78002B0AD0EFF3108472B6FFF7F5
:1010700033FF002C02D162B6BFF36F8F13BD0E4B4E
:101080001B68002BFAD0002809D1002200230B484E
:101090000092019300230A4A02F078FBEEE7092848
:1010A000ECD1064803F0A8FF064801F0B3FDE5E7E0
:1010B000C806002001080020C0060020000500200E
:1010C000102700007800002010B5064B04001B68B4
:1010D00098472100A060044803F042FAFFF7BCFFE4
:1010E00010BDC046040000203C000020044B054A0F
:1010F00000209B1ADB08994201D2C900885870472A
:10110000D454000094540000F0B55E1C85B0B500C6
:1011100000902800072317309843033080080F0001
:101120000192FFF7B3FE02AB04000322581D002119
:1011300003F0AAFF03AB1E70002C0BD0039B210011
:101140002361002314312A1F0198C058C85004336A
:101150009342F9D1E023BA015B001A406D02054BBE
:101160002A431A4020000023009903F059FB05B0E0
:10117000F0BDC046C0FF0F00F0B591B004AF3B60BA
:101180000B035B0D0E0078607A613B610C0D002B48
:1011900000D172E0BB6018220C239B18DD190023DC
:1011A0007B626B60AB60043302939B18FB18019366
:1011B0000A23009300222B00B9687869FFF7A8FA88
:1011C0008023F8601B01984224D37B696C461A790E
:1011D0005B798AB01B0213437A69927912041A432D
:1011E0007B69DB791B06134304AA9361284B2949C9
:1011F000D36180239B001384274B5161136192219B
:101200000023264810328901FFF7B6FFA546BD46E8
:101210000DB0F0BDFB6817345B055A0D3A61204AEA
:101220001B0B16401E43FB68E0180723984303304E
:101230008008FFF72BFE041E13D0030010337B62DF
:10124000FB68184A6B600023AB60043302931833C9
:10125000FB1801930A230093B9682B007869FFF704
:1012600057FA3B690E4A5B0216401E4332002000CB
:101270003B68796803F0D4FAC9E7200007231730E8
:10128000984303308008FFF701FE0400E9E7C046F9
:10129000FF070000EC57000004000001B4540000F8
:1012A000FF01F0FFEF470000F0B587B00E9E05008C
:1012B000140002910393002E15D00F9B102105936B
:1012C0000093002033000D9AFFF74EF880230700AB
:1012D0001B01984209D30221174A1848184B03F002
:1012E000BFFA07B0F0BD3700300007232A001C40CA
:1012F0000C9D1A40D200A401144340021735044348
:10130000E8190C9A98430330120580081443FFF73C
:10131000BDFD051E09D0002E07D00F9B390000939C
:101320000D9A33001030FFF71FF822002800039BAE
:10133000029903F075FAD4E72B580000B45400006A
:10134000FF0700004068002804D0044BC01AC00802
:1013500000B2704701204042FBE7C04694540000B1
:101360000EB417B5054C05AB04CB0100200001936A
:1013700000F018FC1EBC08BC03B01847A9480000C8
:1013800010B5CB0604D4890603D50349FFF7E8FF5F
:1013900010BD0249FAE7C0466458000063580000D7
:1013A000F0B591B01F0017AB1B7804000D00089238
:1013B0000593002B00D199E002261B9B1B9A1E402F
:1013C00001231A400A921B9A07331A400B921B9A68
:1013D000F8331A400E9203F0FDF900230200069341
:1013E000984204D020007D49FFF7BAFF0690002EF6
:1013F0000BD044231B9A1A423CD12A002000784982
:10140000FFF7AEFF069B1B1806930A9B002B0AD022
:10141000059A744B9200D258002A00D1724A2000DB
:101420007249FFF79DFF0E9B00255A4253415B42D4
:101430001F400B9BAB4208D0059A6D4B92002000D9
:101440006C49D258FFF78CFF0500089B002B05D094
:101450001A0020006849FFF783FF2D18002F05D0E0
:101460003A0020006549FFF77BFF2D18069BED1819
:1014700063483FE00020634B1E688642C2D0624B47
:1014800028001968FEF732FEFA253100FEF7B4FE97
:10149000AD006943079008003100FEF7ADFE0D91E5
:1014A000E1210C9009010798FEF7A6FE0991099821
:1014B0003C21FEF71BFEE1210F9009010798FEF782
:1014C00015FE07900D9831006843FEF70FFE0C9B48
:1014D00002903C2109980193FEF78EFE20000091B6
:1014E0000F9B079A4949FFF73BFF8BE74848059D4B
:1014F000012FBDD0189B002B03D02200454902F0DC
:1015000026FE1A9B002B54D01A9F102F00D91027AB
:1015100020001B99FFF734FF0026B54219DC002696
:101520003300199A2000D25C3B49FFF719FF0136BE
:10153000102E14D007231E4203D120003749FFF795
:101540000FFF3300BE42ECD320003549FFF708FF00
:10155000EDE720003149FFF703FF0136DDE7002604
:1015600020003049FFF7FCFE3300199AD25C1300CB
:10157000203B5E2B00D92E2220002B49FFF7F0FEE6
:101580000136102E0ED007231E4203D1200023491E
:10159000FFF7E6FE3300B742E7D820001F49FFF708
:1015A000DFFEEDE7199BDB1919931A9BDB1B1A93DE
:1015B000A8E7059B002B0BD01B9BDB0704D5200065
:1015C000094A0A49FFF7CCFE20001B99FFF7D8FE15
:1015D000200003F05DF911B0F0BDC0466B5800006B
:1015E0006F5800000855000066580000945800002D
:1015F0001C550000975800009D580000A15800009D
:10160000A9480000D4060020D00600207858000029
:10161000CF480000A51B0000A6580000AE580000EF
:10162000AC580000B0580000B258000073B5114A21
:1016300004000B000568914200D91300052168469B
:101640000D4A02F0F1F80600636828000B220B49EE
:101650005B6803F00EF963683200280069465B6836
:1016600003F007F9636828001B2205495B6803F053
:1016700000F973BD0F2700009A590000305C00008C
:10168000145C0000012310B500211C00074A9042A1
:1016900007D8074A002900D101231360054B1860C1
:1016A00010BD210040085B00F1E7C04640420F003A
:1016B000D0060020D406002070B50D0004004618A6
:1016C000B44201D1280070BD2178034801348368F9
:1016D0005B689847F4E7C046AC52000010B5034A77
:1016E00003480021121A03F06BF910BD080800200E
:1016F000880000200648074A10B5121A064903F070
:1017000063F9064A06480749121A03F05DF910BD4D
:1017100000000020880000207C5C00000000002009
:10172000000000207C5C0000F0B585B000AF0C1E0E
:10173000B86036D06E468AB06D4609686268A368A4
:101740000893052320480691059007920493A12150
:101750006A461E481032002389017A60F860FFF75C
:101760000BFDB546E168AD46226963692B6205232E
:101770001748A9616861EA612B61A12100237A6899
:10178000F8688901FFF7F8FCB546E3690121114AC1
:10179000F86803F065F8A36901210F4AF86803F0BF
:1017A0005FF8BB68012B07D1EFF305830B4A0748AD
:1017B000B968103B03F054F82100B86801F0B6F89E
:1017C000BD4605B0F0BDC046EF580000CC54000047
:1017D0001E5900004D5900005C5900008A59000054
:1017E00030BFFDE7054B5A699B689A4205D08023BC
:1017F000034A5B0551680B4353607047D4070020D0
:1018000000ED00E0F0B5424B8BB05B6800AF7B6051
:10181000DB05DB0D04003B6062B6BFF36F8F3D4D0F
:10182000130EFF2B08D1F33B1340082B45D10121A8
:101830002800394A03F00DF8002634003B68032BDA
:1018400041D1364A0121280003F003F8A369344A44
:10185000934202D3334A934205D3334A934251D33E
:10186000324A93424ED2023B1B88FF221800DF21EE
:1018700090430902884245D11340022B42D123688C
:10188000012128002A4A02F0EBFF23687B6008232D
:10189000FD1820222100280003F0EDFBEB69002E4B
:1018A00032D0DA0502D1234A1343EB61290078686C
:1018B000FFF73AFFBD460BB0F0BD01261207BDD5BC
:1018C0000C000026BAE7F822796852001A4B114240
:1018D00000D11A4B6A468AB07A606A4606933B6822
:1018E0001749103B079380239B0005911384154BE8
:1018F000049391210023280010328901FFF73CFC5A
:101900007B689D460023C1E75B0A5B02CDE7C046CA
:1019100000ED00E0CC540000CB590000F659000067
:10192000B0000000EC51000000000020000000208A
:101930000D5A0000FF010000B25900009D5900003F
:10194000295A0000040000010821024A53698B4310
:101950005361704700ED00E0EFF30880EFF3098179
:1019600001B57246FFF74EFF01BDC0460A4880F33D
:101970000888FFF7D9F872B608480949401880F37B
:101980000988EFF314800221084380F31488BFF321
:101990006F8F03F02FF8000008180020080B0020BC
:1019A0000008000010B50A4B9B6883420DD1EFF38D
:1019B0000583002B09D08022064B520559680A4343
:1019C0005A605A6A04490A405A6201F0EBFB10BDA2
:1019D000D407002000ED00E0FF7FFFFF13498A6875
:1019E00013481044EFF3098CF0C043464C4655466B
:1019F0005E466746F8C072B60E4F0F4E4A698A605F
:101A00003E60906E00239366002800D162B6084CB9
:101A100010191030F8C89846A146AA46B346BC46ED
:101A20002438F0C88CF3098870470000D4070020E0
:101A30003000000004ED00E00000000804207146C2
:101A4000014202D0EFF3098001D1EFF308808169F0
:101A5000023909780229FFD001B5724602F0B8FFB9
:101A600001BDC04643B2000605D41F221A4001231F
:101A70009340014A1360704700E100E030B5FF2554
:101A800003220B00290040B20240D20091409B018A
:101A90002B40C943934000280ADBC0240A4A80082F
:101AA00080008018A40002590A401343035130BD3E
:101AB0000F2210400838054A800880008018C2694B
:101AC00011401943C161F2E700E100E000ED00E0E0
:101AD000FF22044B9343044A9360BFF34F8FBFF33D
:101AE0006F8F70470000000000ED00E010B5203A55
:101AF0001360029B01245360039B06499360049B7F
:101B0000A143D36080235B04D3610023916102650C
:101B1000836610BD114200000A4B70B50E0015001F
:101B200098602C1C86F309880020044B9847201CE1
:101B3000002100220023024C20470000114A00002F
:101B400011420000D40700201022014B1A61704797
:101B500000ED00E0F0B5C02400220326FF25A4001C
:101B600010002F003040C0008740054993089B00BB
:101B70005B1819590132B94319511C2AF0D1F0BD33
:101B800000E100E010B5EFF30583054A103BDB00F0
:101B9000D118496898588847FFF724FE10BDC04601
:101BA0002C530000F0B589B002AC07000D00019283
:101BB0000021102220001E0003F066FA0223A37009
:101BC000054B32002000019903930697079501F019
:101BD000EFFE09B0F0BDC0462B4A000010B5024B25
:101BE0001B689847002010BDFC060020034B044AE8
:101BF0001860022391780B4393707047FC06002015
:101C000010000020072310B50449054A99430548F0
:101C1000521A02F05CFA002010BDC0460F180020D6
:101C20000080002000070020024A5378DB09FCD125
:101C30007047C04600180040F8B500250F4A0669F5
:101C400013699CB2DBB21461AB4201D1240A08359E
:101C50000127002C00D1F8BD3C420CD0380073198C
:101C60001A7C53069B0FDB00D206F318D20E90406D
:101C700059681A68904764080135EAE7001800407F
:101C8000402310B50B4A042091690B4393610A4B22
:101C90000A4A5A8000221100FFF7F0FE0420FFF7E5
:101CA000E1FE0223064A11780B431370FFF7BCFFD5
:101CB000002010BD00040040000C00400540000062
:101CC0000018004010B5094B04009B181B7C002035
:101CD0007F2B09D95A06920F944205D1D806C00E1F
:101CE000401A43425841C0B210BDC0460C07002004
:101CF000F0B585B003933F4B009242019B185B5CAB
:101D000004009C46FF2B00D171E062460123934002
:101D10000193D3100293072313409B00EFF3108627
:101D200072B60227344D2A78BA432A70334A624485
:101D3000177C7F2F15D97A06920F824203D1FF06B6
:101D4000FF0E8F420DD002232A7813432B70FFF72A
:101D50006BFF002E02D162B6BFF36F8F102040429E
:101D60003BE0264A0A98E700B8500B98D7197860EC
:101D70001F200327084080213C4049420143640161
:101D80000C43624414740F249C40029A0098910002
:101D9000194A89188A69A24304280CD8FEF792F9D7
:101DA0000307091F210001209840024303E002209D
:101DB000FAE79F403A430398002802D00820984051
:101DC000024302238A612A7813432B70FFF72CFF0A
:101DD000019B2B61002E06D0002005B0F0BD042031
:101DE000E2E70520E0E762B6BFF36F8FF4E78620F5
:101DF000B5E7C0463C5C0000001800400C0700201E
:101E0000F7B51F4B42019B185C5C0E000190FF2C44
:101E100033D0EFF3108772B602221A4D2B7893431A
:101E20002B70FFF701FF220031000198FFF74AFFF6
:101E3000002814D07F200122134BA2401B19197CCB
:101E4000014078381974E3100440A4000830A04021
:101E50009B005B19996981439961AA602A610223F9
:101E60002A7813432B70FFF7DFFE002F01D00020EC
:101E7000FEBD62B6BFF36F8FF9E786204042F7E7F9
:101E80003C5C0000001800400C0700200B4B420196
:101E90009B1810B55C5CFF2C0BD02200FFF712FFE3
:101EA000002809D00123A3400020054A1361D36014
:101EB00010BD86204042FBE71020FBE73C5C0000A1
:101EC000001800400B4B42019B1810B55C5CFF2CC6
:101ED0000BD02200FFF7F6FE002809D00123A34013
:101EE0000020054A9360136110BD86204042FBE745
:101EF0001020FBE73C5C0000001800400022F0B519
:101F00000100012410000C4B0C4E1D69B3181B7C02
:101F10007F2B0CD95F06BF0F8F4208D12F00D7400F
:101F2000274204D02700DB06DB0E9F4038430132F6
:101F3000102AEBD1F0BDC046001800400C0700206D
:101F400010B5084802F048FF002808D0064C2000D1
:101F5000FFF74CFE2000FEF7E1FD002010BD13202E
:101F60004042FBE7AC5200006D1F000070B504005A
:101F7000074D0A2804D1AB680D2128005B689847FB
:101F8000AB6828005B68E1B29847200070BDC0468E
:101F9000AC520000F0B585B017000293802346686C
:101FA000026975680C00691840310978506035483D
:101FB000C9B23840DB0398421FD080239B039F4265
:101FC00002D01620404216E0012399430391307A53
:101FD0002100FFF777FF03001022103393430AD14B
:101FE0002100307AFFF70CFF002804D16B462D1931
:101FF0001B7B40352B7005B0F0BD880740D52868A5
:102000000123E04018423BD11800084361086918D9
:10201000039030310F201C4228D00B7818400870F4
:102020008021029BC9048B4224D0C021C9048B4269
:1020300024D0802189048B42C3D180230121DB037A
:102040009F4200D1033193680120E3400340307A7E
:1020500001920D4A00920A002100FFF749FE002874
:10206000C9D12100307AFFF711FFBDE70B78834318
:102070001800D4E780230021DB03E1E70221E2E737
:1020800086209FE7FFFFFFFE5D4B000010B5046850
:1020900008072368174A400F01381340032826D841
:1020A000FEF710F8020D131C2360200002F06FFDF4
:1020B000E8232000E36002F06AFD002010BD2360E9
:1020C000200002F064FD3423F3E79022520413430E
:1020D0002360200002F05BFD074BEAE788229204B0
:1020E00013432360200002F052FD044BE1E78620F9
:1020F0004042E3E7FFFFCFFC0B160000303004083E
:10210000F0B5002585B000AF1600B860F9603B60FF
:10211000AA4200D183E0436804691D68012252424B
:10212000D317200000F0A8FD230030337B601E7021
:10213000FB68E362002E01D135006DE0FB685B684F
:10214000002B05D10122FB681B7A134200D076E0F8
:1021500083232B752B763B4B28006B8302F017FDF6
:10216000E36A1A6822625A6862620022A2623A68CE
:102170001B7A56000122134207D06B681643324A7D
:10218000280013406B6002F002FDE36A1B7A1B0714
:1021900002D580231B021E43EFF31083FB6072B64F
:1021A00028006E6202F0F3FC80230122AB75E36A23
:1021B0001B7A134237D00223AA75AB75FB68002B3C
:1021C00002D162B6BFF36F8F200000231F4A103088
:1021D00000F052FD00281DD1A16A002925D002225D
:1021E0000B000B251340114215D1BA686D468AB019
:1021F00010686A4607918021154E89000596069061
:102200001184144904919121134810328901FEF779
:10221000B3FFAD4605256D42200000F0FBFC280011
:10222000BD4605B0F0BD0123C7E77B681B78013BC5
:10223000DEB27B681E70E36A0C33FB6078E716251C
:10224000E9E7C04643040000FFFFFBFF88130000DE
:10225000705A000004000001AC540000F0B546685C
:102260000369F26885B031690193136835680B43DF
:102270001360F0223F21736912011B021340328B5D
:1022800007000A4013438022D2011343304A002141
:10229000538083232B75706803AA02F0ACFC041EE4
:1022A00049DB039B00221979186800F001F9041E2C
:1022B00041DB284B28002B6002F069FC80235B0087
:1022C0006B60280002F063FCB368234A0621934246
:1022D0000ED033D8214A0439934209D0204A023122
:1022E000934205D001211F4A1F4802F0B2FA002193
:1022F0007868FFF7CBFE041E26D101220198110059
:1023000002F081FD019801222100103002F07BFDD6
:102310003800F369984702232A68280013432B608A
:1023200002F035FC30236A8B28009A43203B13438C
:102330006B8302F02CFC200005B0F0BD0B4A082195
:102340009342D5D00A4ACAE786246442F3E7C046DE
:10235000000C00401400007040420F00A0860100F5
:10236000801A06008E5A0000AC54000040E1330091
:10237000404B4C00F8B505006B6800691B684A4E7D
:10238000197EC9B219766A681468678B3A003240C0
:1023900037421AD1456A012D2ED0CC0751D5002DD8
:1023A00042D183221A75020030321278012A06D9EE
:1023B000C26A117A890702D4127D520704D4C0225E
:1023C000596892020A435A6012E0638B2D6920001B
:1023D000AB62364B638302F0DAFB83232375237EE3
:1023E0009B0704D0C02362689B02134363602800EC
:1023F000103000F00FFCF8BD040030342478012CBC
:10240000CBD9C66A347A367DB446042667463E4048
:10241000022727403E4367467C402C403443BCD1D2
:102420008A07E8D02A00B8E7016A283309781970CA
:10243000036A01330362436A013B4362002A1DD1F0
:10244000D9E78907FAD5002A0BD1012D09D18021BE
:102450005C68C90221435960C0215C68890221433C
:1024600059601C002834016A24780C70016A01311B
:102470000162416A01394162002A0FD0C36A01003A
:102480001A000C32C26230310A78013A0A70DA68F6
:1024900002621B69436200238362ACE70029AAD170
:1024A00083221A7590E7C0464707000043040000E6
:1024B000F0B504001F27890085B04518AC4202D151
:1024C000002005B0F0BD0F2023680D491A0C024012
:1024D0009200515830301A0D1E013A401840760FC4
:1024E000012E04D11B0F1B0403434020184301ABF2
:1024F0000390180001910292043402F004F9DDE720
:10250000B8550000F0B5456803692A6987B0696964
:10251000039313682C680B431360F0223F21AB69CF
:10252000029012011B021340AA8B20000A401343A1
:102530008022D20113432B4A5380BF23237502F01C
:102540006DFBAA68284B20001343236002F066FB52
:102550000021686A05AA02F04EFB00283DDB059BBE
:10256000002219791868FFF7A3FF002835DB039ACA
:102570001E4B20005360013BFF3B636002F04EFBAB
:1025800069681B480B0B0A0500218018594100237C
:10259000184AFDF775FE01267642F7170090019163
:1025A000009A019BB6185F41002F18D1124B9E4232
:1025B00015D843429BB22000A38102F02FFB6B6829
:1025C000039A029813602B6A98470223226820001E
:1025D0001343236002F022FB380007B0F0BD222035
:1025E0004042FAE7000C00400400006000010300D4
:1025F00000366E01006CDC02FEFF0000F0B50369DE
:1026000087B0019343680D001C68200002F006FBB0
:102610000222236820009343236002F0FFFAEA7944
:10262000002A16D1019BDA712B7921686768012B8A
:1026300012D0022B12D0002B0BD1BA04D20F04926D
:102640001A00019803716B79012B0AD00120032B2A
:1026500008D08620404254E00493F1E7049201221E
:10266000EFE70020059001984371AE79042EF0D871
:10267000264B12061940114386712000216002F09A
:10268000CDFA059B07219A0133000B4005330B401F
:102690001343049A2000520313431D4A3A40134344
:1026A0003F0C9BB23F041F43676002F0B7FA2B68F0
:1026B000184A190B18050023801859410023164A9F
:1026C000FDF7DEFD01267642F71702900391029A8C
:1026D000039BB6185F41002F15D1104B9E4212D8B4
:1026E00043429BB22000A38102F098FA2B68019A22
:1026F00020001360022322681343236002F08EFA45
:10270000380007B0F0BD2220A4E7C046FFFFFFF06D
:10271000B8DFFFFF00366E01006CDC02FEFF000038
:1027200030B50C490C4A8C6812680D688B68002C17
:1027300000D11400002B00D113000848ED0301D490
:102740009C4203D20468A4180460096800688018D9
:10275000C01A30BD10E000E0D0070020C407002000
:102760000A4A0020136A1B021B0A13629622084BB6
:1027700052011A60074B084A1860084B5A6007223A
:10278000986019680A431A607047C04600ED00E07F
:10279000D0070020C4070020BF12000010E000E0B6
:1027A00070B5FFF7BDFF0C4B0C4A186811680C4C54
:1027B000401810609621002225681A604901401BCC
:1027C000FDF794FC96235B0143435B19236000F003
:1027D000D7FEFFF707F870BDC4070020CC07002024
:1027E000C8070020F0B5334D334E85B0002953D0D3
:1027F000431C08D101222B6893432B60FF231B0647
:10280000336005B0F0BD336801930027012848DC30
:10281000EFF31083039372B6FFF782FF0022AB68D9
:102820000293264B1C68264B04191A60254B1B6823
:102830000093E01A90423ADB96235B015F43224A01
:10284000C01919008018FDF751FC96235B0158430D
:10285000009B1B1B18188023DB00984200D2180035
:102860001A4B984200D91800002330600138A9683B
:102870006860AB60029B02985A1AA318884202D281
:10288000019B9B181B190D4A1360039B002BB8D1A9
:1028900062B6BFF36F8FB4E733680193431CB4D1C2
:1028A0000B480C4B984200DD1800471EB0E7802013
:1028B000C000D9E710E000E0D0070020CC070020DE
:1028C000C4070020C8070020BF12000080E8FF00F6
:1028D000A60D0000A70D000070B5EFF3108572B6CD
:1028E000084A094B14681B68E41AFFF719FF00191E
:1028F000002D02D162B6BFF36F8F96214901FDF71B
:10290000F5FB70BDCC070020C807002010B50400FF
:10291000FEF730FB03480121034A01F09AFF200033
:1029200002F066FACC540000F25A0000F0B585B00F
:1029300005000C0000AFEFF310837B6072B62D4AE8
:102940009368FB602C4B042802D82C4B8100CB5899
:102950006E468AB0117C6A4629480793294B059038
:10296000069508919384284B0493B121274B10328C
:10297000BB60B86800238901FEF7FEFBB546002C5A
:1029800007D0E369DB0504D00121214AB86801F0D2
:1029900060FFFB68002B07D0180002F04AFA0028FD
:1029A00002D00378002B00D11A486E468AB06A46DE
:1029B000194B07900593FB680693124B1384174B32
:1029C000049391210023114810328901FEF7D4FBB2
:1029D0002100B5462800FFF799FF7B68002B02D144
:1029E00062B6BFF36F8FF868FEF7DCFFBD4605B037
:1029F000F0BDC046D4070020015B000080560000F7
:102A0000175B00000103000005000001CC5400002A
:102A10003F5B00000F5B0000605B000004000001F2
:102A2000F8B501270A4E83009D59013084003359BF
:102A3000AB4200D8F8BD6868002806D0037F3B424F
:102A400001D102F0B0F90835F1E72B689847FAE7B1
:102A500094560000012270B5234B86B003201A70F3
:102A6000FFF7DEFF00F0C8FE0420FFF7D9FF1F4C80
:102A700026001F4DAC420ED300F0AAFAAE4220D37E
:102A800000F0B6FAFDF730FC01211A4A137B8B43A4
:102A9000137306B070BD636A0593236A0493E369F8
:102AA0000393A36902936369019323690093E36825
:102AB000A2686168206800F005F923685C6530341D
:102AC000D7E7B26AF36A511C01D1591C05D0110035
:102AD0003068194303D100F03FFB3036CEE706499A
:102AE000183000F0BDFCF8E7030800200C5400008B
:102AF0000C540000A8050020174F000070B5702688
:102B000001250400464301021148802209180020D3
:102B100086B004950E350395053565430D4B05903C
:102B2000029001900C48F6182D180C4B30000095BF
:102B3000520000F0C7F80422737B2C749343737324
:102B40000134074BE402E418EE606C6006B070BD1F
:102B50000813002038050020D4070020F94D00009C
:102B6000080B0020F0B5002087B0FFF759FF204B7D
:102B700083F308881F49204B0A6A00251A40C023A6
:102B80001B0413430B62FEF7DFFEFEF7DDFFFEF7CB
:102B900055F91A4800F0EEF80120FFF741FF022036
:102BA000FFF73EFF00F054FA154C164B80225C6193
:102BB000154B164E0593012315490493D20033009B
:102BC0002000039502950195009500F07BF8042202
:102BD0000700637B20009343637302F066F92800CB
:102BE000FFF78CFF320039002000FEF795FFC0464A
:102BF0000813002000ED00E0FFFF00FF1806002092
:102C0000A8050020D4070020C25B0000552A000060
:102C10000814002070B5EFF3108572B60468A04266
:102C20001AD0002C18D062682368002613605A60FE
:102C300002222000637B2660934363736660A66074
:102C4000183002F09FF92000E66602F02EF9290004
:102C5000084800F091F970BD8268C3689B1A591E3C
:102C60008B419B188360002DF5D162B6BFF36F8F47
:102C7000F1E7C0460408002013B50400EFF310810B
:102C800072B68068002808D00138A060002902D1FF
:102C900062B6BFF36F8F002016BD1000184307D136
:102CA000002902D162B6BFF36F8F10204042F3E7D4
:102CB000009201932200024800F042F9ECE7C0467E
:102CC000040800207FB504005830A065E0650C982A
:102CD00000262073042060730B980732A07308202D
:102CE000404202408D180A9AA660E673A661E6612A
:102CF0000292099A20000192089A00922A00FEF797
:102D0000F5FE054B66659B68B34200D05B6E2800FC
:102D1000636604B070BDC046D407002070B50400DF
:102D2000002086B005900E98119D04900D98109E7D
:102D300003900C9802900B9801900A980090200044
:102D4000FFF7C0FF2B00721C01D1013305D02B000F
:102D5000334305D1200000F0FFF9200006B070BD1C
:102D6000200032002B000249183000F079FBF4E714
:102D7000174F00000223FF33838100234366014B7A
:102D800098607047D40700200B21084A4942936895
:102D9000D9669866802306495B05486803434B6003
:102DA00062B6BFF36F8F9368D86E7047D407002068
:102DB00000ED00E00D2370B5C356427B002B31DBE4
:102DC000D3062FD180235B4213431A4C4373A3696C
:102DD0001949E2698B4207D1016042601060E061ED
:102DE0000FE09A42F8D01B68002BF5D00E260E2576
:102DF0009E574557AE42F4DD5A680360426010604A
:102E00005860A5698D4201D0002D00D1E568A36806
:102E10005A7BD20607D1DA897F2A04D9AA69002A07
:102E200001D1636170BDAB4202D0280000F07CFA92
:102E30006561F7E7D4070020EC0700200D2270B58C
:102E400082560500437B002A04DA7F221340437335
:102E500001F0F1FF0D4E0E4AB469B368944201D0FF
:102E6000002C00D1F468AB4208D05A7BD20605D1C1
:102E7000DA897F2A02D9A269002A05D0A34202D0AA
:102E8000200000F051FA2300736170BDD4070020C8
:102E9000EC07002010B5511C01D1591C03D0024988
:102EA000183000F0DDFA10BD174F00000D2270B58C
:102EB00082560400437B002A04DA7F2213404373C6
:102EC00001F0B9FF8023627B5B4213431A4D6373A9
:102ED000AB691A49EA698B4207D1216062601460CC
:102EE000EC610FE09A42F8D01B68002BF5D00E265B
:102EF0000E209E5720568642F4DD5A682360626099
:102F000014605C60AE69AB688E4201D0002E00D1C7
:102F1000EE68A34208D05A7BD20605D1DA897F2A0F
:102F200002D9B269002A05D0B34202D0300000F0C5
:102F3000FBF933006B6170BDD4070020EC07002063
:102F400070B50C0011000A4A0A4B90681860EFF344
:102F5000108372B69568280001F080FF049A059BE3
:102F60002800FFF797FF2000FFF70EFF70BDC04657
:102F7000D4070020F407002010B500290AD1EFF390
:102F80000580002807D1064B5A699B689A4202D0F7
:102F9000FFF7FAFE10BD62B6BFF36F8FFAE7C046C7
:102FA000D407002010B500280AD1EFF305800028CF
:102FB00007D1064B5A699B689A4202D0FFF7E4FE9C
:102FC00010BD62B6BFF36F8FFAE7C046D40700208A
:102FD000EFF3108172B6054B9A68D37B013BD37334
:102FE000002902D162B6BFF36F8F7047D40700206B
:102FF00070B5EFF3108672B6134DAB68DA7B013211
:10300000DA73AC69114A944201D0002C00D1EC680B
:103010005A7BD20605D1DA897F2A02D9A269002A11
:1030200005D0A34202D0200000F07EF923006B619E
:10303000002E02D162B6BFF36F8FEFF3108072B62D
:10304000FFF7B0FF70BDC046D4070020EC0700209A
:10305000024B034A9A61DA617047C046D4070020E8
:10306000EC07002070B5EFF3108572B61B4CA16819
:10307000E3690A68CB1A581E834149685B420A60BB
:1030800051601340E169A268002B05D1144B5160D7
:1030900013600A60E2610AE00E260E209E57105669
:1030A000864216DD5968136051600A605A60A6694D
:1030B0000B4B9E4201D0002E00D1E668A3689E42D1
:1030C00002D0300000F030F928006661FFF75CFEA6
:1030D00070BD8B42DAD01B68D6E7C046D40700200B
:1030E000EC070020F8B5030007000C000B4303D1E8
:1030F000FFF7B8FF0020F8BDEFF3108672B6134D4E
:10310000134BA8681860FFF799FEA86823003A00DF
:103110001049183000F0A4F90423AA680400517B78
:1031200030000B435373FFF72FFEAB689A6A002AF7
:10313000E0D18022DB6A12069342DBD101F048FF26
:10314000201AC343DB171840D5E7C046D407002038
:10315000F4070020174F000070B50400EFF310854E
:1031600072B60426437B33420DD0183001F00AFFBB
:10317000637B2000B3436373FFF71CFE29000548FF
:10318000FFF7FAFE70BD002DFCD162B6BFF36F8F62
:10319000F8E7C04604080020014B98687047C04615
:1031A000D4070020F7B5037B04000193EFF31083ED
:1031B000009372B60823427B1A4206D0009B002B74
:1031C00002D162B6BFF36F8FF7BD1900114348B249
:1031D000002857DB6173A368002B02D0200001F0A8
:1031E00032FE20002600183001F0CCFE5836A56DC6
:1031F000AE4201D0002D4DD1304F0025BB689C421E
:1032000004D1EFF305856A1E9541EDB2BE692C4AE3
:10321000964201D0002E00D1FE68B34202D03000A9
:1032200000F082F820007E6101F0EFFB002D02D05B
:103230002448FFF79FFDBB689C4238D1EFF305831C
:10324000002B34D1237BDB070FD5009B002B02D151
:1032500062B6BFF36F8F62B6BFF36F8F0423181C83
:1032600002DFEFF31083009372B60098FFF78CFD36
:10327000019BDB07A8D562B6BFF36F8F0423181C30
:1032800002DFA1E77F210A4013432000637301F0AE
:10329000D2FDA0E7280001F0D6FD2800183001F08B
:1032A00071FE00232800EB66FFF784FD9FE7009B7B
:1032B000002BDDD162B6BFF36F8FD9E7D4070020B2
:1032C000EC070020180600200121044B044AC01A14
:1032D000044BC0104343D1547047C04688060020B9
:1032E00004080020ABAAAAAAC289030000207F2AF2
:1032F00011D80A4A106800280DD00E21084A5956E4
:1033000012680020914206DB5A7BD20603D10548A1
:10331000181A431E984101231840704720000020CE
:10332000F80700203805002070B518240C4B050064
:103330001E7C0C4B7443E418200001F023FE002295
:10334000094B28009A55FFF7CFFF002807D0074BFD
:1033500020001A680649013AD31700F081F870BDC1
:10336000D407002088060020040800202000002048
:10337000C932000070B5EFF3108572B6104A114BD8
:1033800094681868A04207D1FFF7CEFF002D02D144
:1033900062B6BFF36F8F70BD00211960127C0A4BBB
:1033A0009B5C8B42F2D02000FFF79EFF0028EDD0FF
:1033B000637BDB0602D12000FFF778FD2000E3E706
:1033C000D4070020F407002004080020024B1868EE
:1033D000984200D1002070472400002070B50600FC
:1033E000FFF7F4FF00280ED0026943693400F51797
:1033F000121BAB41002B06DC01D1002A03DBD843B2
:10340000C017104070BD0148FCE7C046FFFFFF7FBA
:10341000002010B5034B1B68834201D1FFF75CFA13
:1034200010BDC046FC07002030B500280ED00B4B65
:103430005B6898420AD00168002907D00A694B6985
:103440000469456912196B410A614B61036842685E
:1034500013605A6000230360436030BD24000020E5
:10346000F0B5040015001E0085B0531C02D1731C7A
:1034700000D17CE0A160EFF31083039372B6002EBD
:1034800026DBFFF7C5FF00210090012040197141A4
:10349000009AD31712184B413649226163610868BC
:1034A000496812184B411E00150001230293FFF7D3
:1034B0008DFF0700304B9C465B680193002F1DD1A8
:1034C00063462360019B63601C6063465C6027E089
:1034D000284B1868596802225242D317121A8B419E
:1034E000521BB3411100002B04DC01D1002A01D191
:1034F00001210023636121610023D7E738697969DD
:1035000022696369994202DC28D1904226D9801A47
:1035100099417B6838617961636027601C607C60D9
:10352000FFF754FF84420FD1144B1B68002B0BD1C3
:10353000029B002B02D1FFF76BFF00900098FFF772
:103540004DFF0021FFF74EF9039B002B02D162B61D
:10355000BFF36F8F2800310005B0F0BD121A8B4108
:1035600022616361019B9F42AAD03F68A6E70025C4
:103570000026EFE7A006002024000020FC07002022
:10358000F0B5050089B0EFF3108672B62E4B0396A6
:103590001D60FFF71BFF2D4904000A684B68E81700
:1035A00004920593002C10D026696769009501905C
:1035B000874202DC24D1AE4222D932003B00009E79
:1035C000019F921BBB41226163612A00049C059DFF
:1035D000030012196B4100240A604B601A4B200053
:1035E0001C60FFF7FBFE2100FFF7FCF8039BA342E2
:1035F00002D162B6BFF36F8FFFF7BCFE09B0F0BD1A
:10360000F31706960793069A079B04980599801866
:103610005941002300220D4D2261636128606960D9
:103620002000FFF701FF039B002B02D162B6BFF31E
:103630006F8F2000A3689847EFF3108372B603934F
:10364000014B1D68AD1BA3E7FC070020A00600206E
:1036500010B5EFF3108472B6FFF7DAFE02000649E8
:10366000C3170868496880185941002C02D162B616
:10367000BFF36F8F10BDC046A0060020F7B5040051
:10368000EFF3108572B603680195002B05D0002D6D
:103690005FD162B6BFF36F8F5BE0826AC36A0021BD
:1036A000012080185941002901D1012836D9002B69
:1036B00004DC01D1002A01D1012200230126764237
:1036C000F717B6185F4101F087FC0122002380182C
:1036D000594180197941002902DC3BD1002839D0B9
:1036E00001F07AFC002301228018594180197941A8
:1036F000244B994201D1033030D801F06DFC0122F6
:1037000000238018594102225242D317801979416F
:10371000121A8B4120001C49FFF7A2FE236B0133D4
:103720002363236A002B0BD0002D02D162B6BFF3B6
:103730006F8F2000236A9847EFF3108372B60193CE
:10374000A5691834A54201D0002D0BD1019B002B97
:103750009FD0F7BD02225242D317DBE7802300221D
:103760001B06D7E7280001F0ACFB0023EB66019BAA
:10377000002B02D162B6BFF36F8F280001F095FBDA
:10378000E7E7C046FFFFFF7F7D360000F7B5040086
:1037900000920193EFF3108572B6511C07D1591CAA
:1037A00005D1002D02D162B6BFF36F8FF7BD002B9C
:1037B0000FDB16001F1E05DC002B01D1002A01D1F2
:1037C0000126002701225242D317B6185F41009606
:1037D0000197200001F0D6FB089A099BA262E362E0
:1037E0000023200023630349009A019BFFF738FE62
:1037F000D7E7C0467D36000010B5024800F0FDFC5A
:1038000010BDC046CA5B00000FB407B5054B04AA43
:1038100002CA1868019200F0CBF803B008BC04B0EB
:103820001847C046645500000CB470B58AB002ACAD
:1038300005000E0020220021200001F025FC0223BB
:10384000A3700D4B25616360002E13DB01D0731E46
:10385000ED180FAA20000E996561019200F0A8F8FA
:10386000002E02D0002223691A700AB070BC08BC76
:1038700002B018470025ECE7DB510000F0B5012548
:1038800085B0029001910392039BAB4201DC05B02D
:10389000F0BD029C23001C0022780133002AF6D0E0
:1038A000252AF8D11A780234252AF3D00020060000
:1038B00003000094009C1F2B27D8202149428C46EE
:1038C00094446146102907D867463849F9400127D2
:1038D000394251D12E2A3DD02E2A24D8242A35D03F
:1038E0002A2A37D0002ED2D0AE42D3D1202414437E
:1038F0002000019965380E68022801D9612C41D158
:103900000723F01D984308304BE07F2BE2D96C2A47
:1039100027D021D8682A2CD06A2A01D04C2AE1D19C
:10392000A022920023E0302149428C469444614613
:103930000929ECD80A23584316336044009A01320F
:1039400000922278002AB5D1009CCBE7002E15D03A
:10395000A84215D00020F1E7742AEFD07A2AEDD0E2
:10396000C0E78022134202D0802189000B43134319
:10397000E4E780225200F5E70023DFE70600E9E7ED
:103980006322B3E7692A04D0301D692A07D8632A65
:1039900007D0301D1A0604D59B0502D5B0E7732A5F
:1039A000F7D1019B013518606EE7C04689280100F8
:1039B000F0B543689FB002900A910B92069383780A
:1039C0009B0717D50B0000240D921878002800D112
:1039D000A1E0252811D0013309930299069B0134F7
:1039E0009847002800DBE3E1029B9A780423134305
:1039F000029A9370012464428DE05D789A1C0992CA
:103A0000252DEAD0099B079300231F001E00039376
:103A10000193079B09931F2E19D8280020381028DE
:103A200018D8FCF74FFB0E17171217171752171756
:103A3000170C17101717090001231E4345E0022336
:103A40001E430423F9E70823F7E71023F5E77F2E49
:103A500000D97BE02E2D5BD02ED8242D5ED02A2DD0
:103A600043D0039B002B06D00B9B039A0A980DA909
:103A70000D93FFF703FF002F02DA402300279E4338
:103A800020232B431A00653A022A02D9612B00D069
:103A90007FE007270D9B9C4D0733BB4308330D93F5
:103AA000360700D4B7E0E6190394039B9E4200D08A
:103AB000B3E0019BDF1BDBE12A00303A092A45D83D
:103AC0000A2371060BD55F43BF18079B0133079389
:103AD000099B1D78002D9CD1079B0993C1E7019993
:103AE0004B439B1801932023A7E7039B002BECD1AA
:103AF0000D9B1A1D0D92710601D51F68E5E71B6825
:103B00000193002BEFDA019B5B420193282394E79A
:103B100040231E4291D020001FB0F0BD039B002B1C
:103B200031D00B9B35000D934023019A1D401E425E
:103B300000D03A000A980DA9FFF7A0FE0D9B1A1DB0
:103B40000D92002DD9D11B680193BEE76C2D0FD0CB
:103B500009D8682D14D06A2D02D04C2D00D080E7F2
:103B6000A0239B0069E7742DAFD07A2DADD078E704
:103B700080231E4200D160E78022920016435CE75A
:103B800080235B00F5E7039F019B3E0001970393B1
:103B90009BE728006338122800D9F2E0FCF79CFA72
:103BA00013004A00F100F100F100F1004A00F100B9
:103BB000F100F100F100F1000A01BA00F100F1009A
:103BC0001B00F100AF000D9A0EAD131D0D9312688E
:103BD00001272A7064E70D9B1A1D0D921D68002DA8
:103BE00000D14A4D730601D401277F4239002800D5
:103BF00001F052FA070053E720200299069B9847EC
:103C0000002800DAF0E6013EB742F5D3019B0196A9
:103C10001C19A41B47E7019EF6E7039A2B1B985C2F
:103C20000299069B9847039B01330393002800DB0E
:103C30003BE7D9E60D9B320643D5B2053AD50722BC
:103C4000073393431A0008320D921A685B68049296
:103C50000593102332009A43059B0892002B3BDA10
:103C600004980599002342428B41049205938023D6
:103C7000089ADB0013439BB208930EAE0A23049804
:103C80000599320001F013FA831B0793079B089EE6
:103C9000039333005B0600D4B3E001239E43079BEC
:103CA0009F4200DCADE0002D00D0A9E01123089E6A
:103CB0009E431CE01A1D0D921B680493DB170593AD
:103CC000C7E71A1D0D921B68F205F6D5B20501D59E
:103CD0005BB2F2E71BB2F0E7049B059A1343CCD129
:103CE0007306CAD5002FC8D1112307979E430397A7
:103CF000074B33405A1E9341039AD3188AE010238E
:103D00009E43063B039309E00C5C0000055C000049
:103D100006040000102378251E4303938021300001
:103D200008400D9A07900E424ED08020310080004E
:103D30000140064244D0072107328A43110008316E
:103D40000D9103CA02000A4353D133001632934344
:103D50000893720650D5002F4ED1172307979E4324
:103D6000039733076AD4F30709D5019B039A079F8A
:103D7000934204DD9F1A079BFF18019B0393039B4B
:103D800053E0782B03D15A1B683B1343BAE7622BED
:103D900014D025200299069B9847002800DA23E6D4
:103DA0000299069BE8B29847002800DA1CE6023424
:103DB000099B0AE6082300250393AFE70223A1E746
:103DC000101D0D901068BDE7111D80200D91310070
:103DD000400012680140064201D11000B2E7802382
:103DE0009B00190090B231401E42ABD00799D0B26F
:103DF000A8E70622964308960EAE3200039B41E7E1
:103E00000397F30600D473E72B005A1E9341039ADD
:103E10009B1801330393A4E720200299069B98473F
:103E2000002800DAE0E5089B01330893089A019B1B
:103E30009342F1DC039B0392E41AA418F30621D504
:103E400030200299069B9847002800DACCE5002D27
:103E500010D101342600079A3B199B1B9A421DDBA7
:103E60001700002F22D1079B039A9E19019B9F1ACE
:103E700034002CE00234E8B20299069B98470028EF
:103E8000E8DAB1E5144B1E42E4D02B20B30700D48E
:103E90000B38760500D52D200134EDE7302002994E
:103EA000069B013698470028D5DA9DE50EAB013F09
:103EB000F85C0299069B98470028D2DA94E5202006
:103EC0000299069B01349847002800DA8CE5F31923
:103ED0001B1B002BF3DC6BE706040000F0B5574614
:103EE0004E464546DE46E0B504000D009246994632
:103EF00083B08B4230D82DD049465046FCF7E0F9CC
:103F0000290006002000FCF7DBF9331A9846203B15
:103F100034D49B4653465A46934042461F0053466C
:103F200093401E00AF423BD8AF4200D179E05B46E0
:103F3000A41BBD41002B00DA76E000220023009292
:103F4000019301235A469340019301234246934033
:103F5000009329E08242CFD90022002300920193EE
:103F60000C9B002B01D01C605D600098019903B090
:103F7000F0BCBB46B246A946A046F0BD42469B46B1
:103F800020239B1A5246DA40414613004A468A4093
:103F9000170042461F43534693401E00AF42C3D909
:103FA00000220023009201934346002BD8D0FB0748
:103FB00072081A4346467B080EE0AB4201D1A2428A
:103FC0000CD8A41A9D41012024196D410021013E05
:103FD00024184D41002E06D0AB42EED9013E2419E3
:103FE0006D41002EF8D1009801995B460019694196
:103FF000002B24DB2B005A464646D3402A001C00E7
:10400000F2405B461500002B2ADB26009E40330061
:1040100026004746BE403200801A99410090019127
:104020009EE7A342BCD882E74246202300219B1A88
:104030000022009101920122DA40019285E7424676
:1040400020239B1A2A0046469A402300F340464606
:1040500013432A001C00F2405B461500002BD4DA03
:10406000202342462F009B1B97402600DE403B004A
:104070003343CDE77047C900401840884008704777
:10408000F8B50D000400FFF7F6FFFCF7BBF81F21A1
:10409000091A8A00A218EB0010691F1D0633E719E0
:1040A000E318AEB2002808D101308840E16801432E
:1040B000E16015613E801E80F8BDC1000431625A86
:1040C0003A80D200A2181880D6806652F4E70723FF
:1040D000F7B50027043ACC1D89189C4399430E1B61
:1040E000F6080460A660E760300000912425FCF724
:1040F00089F820222D1A121A20003900920010305F
:1041000000F0C2FF0122AD000735ED08A9B24B0057
:1041100013436380731BEA009BB20193A018030052
:104120000198278040008446180063464380A152CE
:104130000122009B0199F6005F801980A6197388FF
:104140002900134373802000FFF79AFFF7BDF0B5F5
:1041500085B00D001C1E0290039229D000265B78CA
:104160000193E078237840009B00C018A378C01822
:104170002018019B9E4210D36279237912021A43C0
:10418000A37903991B041343E279029812061A4398
:1041900023000833A84705B0F0BD0378471C9B00F7
:1041A00038001F51FCF798F8013038180136E0E765
:1041B00016204042EFE730B50025020028001378B2
:1041C000002B09D0002811D08D4207D1702B04D0CC
:1041D0001C00403C3A2C09D8002030BD1C00403C5B
:1041E0003A2C03D8002001350132E8E7253B5C4238
:1041F00063415840F8E7002070470FB407B504A9A1
:1042000001C9019100F0D4FA03B008BC04B018470A
:1042100010B50400080011001A00A047FEF7BCFF0B
:10422000FDF7C0FB70B5056908242E0000230200CD
:1042300026401800254205D1D0681368984203D95A
:10424000C31A30000B6070BD126A0120D31AF9E75F
:1042500013B501A90400FFF7E5FF002804D0019B76
:10426000E268013B9B180193206A019BC01A013848
:1042700016BD10B5040050182269236AD20702D572
:10428000013B184010BD9842FCD3C01AFAE710B5A4
:1042900004000A00C168FFF7ECFF08222369E06010
:1042A0009343236110BD022270B50D008B001A43A9
:1042B0000368C1699B005A50040001682A00FFF797
:1042C000D8FFE3682060984203D108232269134392
:1042D00023612A0061682000FFF7CBFF606070BD9A
:1042E000F0B585B00393C3681700C2699B00D51869
:1042F000D25C03231A40002304001E000291022A0C
:1043000001D12E68B608039A3B601360002E07D0D7
:1043100031002000FFF7BBFFE368A360012304E046
:1043200002222369134202D1002301932BE0A369E7
:10433000280098472B780090DA07D10F0191002AC6
:10434000F2D00222134221D0029B002B03D019008D
:104350002000FFF7A8FF61682000009AFFF789FF9F
:10436000A168E36860608B4207D12000009AFFF7E4
:1043700080FF00230100A0600193082322692160CF
:104380001343E1602361019805B0F0BD200000995E
:10439000FFF77DFFE368A360029B002B03D0236837
:1043A000E2699B009E50029B009A9C46039B6244DC
:1043B0001A6021682000FFF75CFF08232269206053
:1043C0001343012223612B7893432B703D60A5E7B3
:1043D00070B504000D001600FFF74BFF2368834201
:1043E00005D10822236925609343236170BD022310
:1043F000B2001343E269AD00AB50616832002000A7
:10440000FFF737FF6060F1E770B5036904005B07F1
:1044100006D5456AFFF71CFF854200D2050065629C
:1044200070BD70B50D0004001C22002100F02CFEB0
:104430000022EB68A361AB6863612B68E3616B6882
:10444000626223622A69002B04D0591E0B4201D1FB
:1044500001231A432261200001220021283000F0AC
:10446000D2FC70BDF0B58BB0059300230492026AB4
:1044700004001E000291079309938A423BD30193E3
:10448000EFF3108772B6099A0397002A05D020002F
:104490000199FFF79DFF00230993200008A9FFF76A
:1044A000C1FE089B029A0500009393422BD3236818
:1044B000E2699B00D618D35C0322934333702168D2
:1044C0002000029AFFF7D5FEE3682060984215D0DD
:1044D0000025039B002B02D162B6BFF36F8F0799B3
:1044E000002906D06369002B01D0200098470023E3
:1044F0000793002DC4D130000BB0F0BD0822236912
:1045000013432361E4E7002804D020000099FFF75B
:10451000CAFEDEE7049B059A134317D000F080FC27
:10452000002813D1002F11D162B6BFF36F8F200086
:10453000049A059B2830FEF79FFB0500EFF31083DC
:1045400072B603936B425D41EDB2C2E7236820006F
:104550000193009909AB07AAFFF7C2FE0500B8E76F
:1045600070B50400836908000D0098470200EFF35E
:10457000108672B60123297820000B432B706168E6
:10458000FFF777FE60602000FFF73EFF002E02D1AC
:1045900062B6BFF36F8F70BDF8B50400EFF31087FC
:1045A00072B608212269A3680A4203D16268D51A4B
:1045B0009A4201D2256AED1A002D34D0E2699B009F
:1045C000D5180321D35C03221A400B422ED0022AB5
:1045D00002D12E68B60805D1DA0717D42800A369DE
:1045E00098470600A16832002000FFF742FE310024
:1045F000A0602000FFF74BFE002FCFD1013762B63D
:10460000BFF36F8F002FC9D12800F8BD02221343DA
:104610002B70A3692800A66898473100020020008B
:10462000FFF727FEA060002FE9D0EDE71500FAE7BD
:10463000F8B50400836908000D0098470600EFF301
:10464000108772B601222B7893432B7023699B0746
:1046500005D5E268E36992009B189D421AD10222B7
:104660002B7893432B70A368E168994204D1320000
:104670002000FFF7FEFDA06031002000FFF707FEDD
:10468000002F02D162B6BFF36F8F20002830FEF7F3
:10469000C1FAF8BD03222E68830016401E432E6027
:1046A000EEE710B5EFF3108472B6036982681B075A
:1046B00003D441688B1A914201D2036A9B1A002CE1
:1046C00002D162B6BFF36F8F5A1E9341D8B210BDAC
:1046D000704770B50F254B08C3182A403033CC07FC
:1046E0000DD51C78160122002A4032431A7001238E
:1046F00040184030027813430370002070BD1C78CE
:10470000AC432243F2E770B50400002101250068A4
:104710006368A268C318403319700E1C29006368CF
:10472000994041602900636899404161616853067E
:1047300004D51203120FFFF7CCFF70BD930704D00E
:104740002A4201D08D40856104260121D3080B4007
:104750008B403343D50602D56568A9408160920637
:10476000D20F920113436268801840300370E4E76F
:104770000378020000205B070AD4136852881B03E9
:104780005B0D1209981807231730984303308008EF
:1047900070470020704710B5012100F046FC10BDA5
:1047A00010B500F019FC0A220023FBF769FD10BDCB
:1047B0001FB5029000200391030002000100019048
:1047C0000090FCF771FD05B000BD10B50120FCF7AD
:1047D000E9FA10BD00207047436810B5DA71012274
:1047E0004368196043685A71FCF7CCFA10BD70B584
:1047F00006000C001500081E0ED0906853681B1AA6
:1048000099420AD813680A001818310000F033FCE6
:104810002000AB681B19AB6070BD1C204042FBE759
:1048200070B50E00040015001900002802D1FCF735
:10483000B9FA70BD002B06D013035B0D1030C01801
:10484000120D00F018FC200025606660FCF73CFCAF
:10485000EFE707B50123019201AAFCF755FC07BD5C
:1048600013B5140001936A4602230094FCF74CFC34
:1048700013BDF8B506000D0014001F00002C00D178
:10488000F8BD210028003A00B047241A2D18F5E79A
:1048900010B5426804000CCA81680068FFF7E9FFA0
:1048A000002263681A6010BD70B54B6805001A6875
:1048B000CB680C009A4202D10800FFF7E9FF60685C
:1048C000012100F0B2FBA3681D54002070BD70B53B
:1048D00004000D000A2802D10D20FFF7E5FF290092
:1048E0002000FFF7E1FF002070BDF0B58B6889B0B4
:1048F00006930B880790DB0508000D780C005E0F0F
:104900001700FCF71FFD0023AD0601006D0F984254
:1049100003DB2800FCF7EAFB0300210022681031CA
:104920001203520D60888C18551EAA415242114044
:1049300000220009049002910798069905970394B4
:1049400001960092FCF72CFD09B0F0BD43680020F1
:104950001B685B681961704743681B681A68526876
:1049600053607047F7B5012143681B685A68117599
:104970001D686B682F681C685B68AE680193002C2B
:1049800002D16B681C60F7BD21003000019AB84766
:10499000241A3618F3E710B543681B681868FCF74B
:1049A00045FE10BD70B543680C001D686B68186942
:1049B000FCF7D2F90F22030021002868984770BD48
:1049C00010B500F061FB10BD10B500F054FB10BD38
:1049D00010B501000068FCF7A7FE10BD10B5FCF78C
:1049E000FFFEFCF7FFFE10BD10B500210120FCF713
:1049F0009BFE10BD10B5FDF76BF8FCF76FFEFCF7E2
:104A000079FEFDF7A7F8FEF7ADF886204042704723
:104A1000002802D162B6BFF36F8F7047BFF34F8F8C
:104A200030BF62B6BFF36F8F704710B50B6949692D
:104A30009847002010BD10B5FDF7D0F8002010BD3C
:104A4000F0B543680D0006695968930702D58620C2
:104A50004042F0BD0123100C1840984030279C467E
:104A6000041C1740930317D5002FF0D16346AB40C9
:104A700050030DD54B618B60B068D20519D5A207E4
:104A800017D5184349194031B06000200C70E0E799
:104A90001003F0D58B61EEE76346AB404B60002F0F
:104AA000EAD004240443D00601D58B61E4E74B61CE
:104AB000E2E79843E6E7436800205B681B6A0B6007
:104AC000704743685B681869424011404140196172
:104AD00000207047436800205B6899617047436815
:104AE00000205B6859617047436800205B68D961AA
:104AF000704730B503690024D86800280FD1002A18
:104B00001BD11620404230BD20601869814210D16F
:104B10001C610EE005680400002DF0D028008842DA
:104B2000F8D10868002CEFD11C69D860A14200D1EF
:104B3000186100200860824206D0DA680A601A69AB
:104B4000D960002A00D119610020DCE700207047FD
:104B500010B54368187AFDF7D1F910BD70B50B0098
:104B6000C9680500002903D05E680C68002900D1DF
:104B700070BD8B681A002A402B4202D030004B686F
:104B80009847231E00D0236821001C00EEE707236E
:104B9000C2691A42FCD17047002210B511000B20E7
:104BA000FCF76CFF0B20FCF75DFF10BDF8B50700AC
:104BB0000D00CB061AD50E23194215D002264368E4
:104BC0001C6823682000B3432360FFF7E0FF29003F
:104BD0007868FDF75BFA236805001E432000266015
:104BE000FFF7D5FF002D04D10020F8BD162040426C
:104BF000FBE78620FBE730B503681360057904689E
:104C0000ED006419A34202D30220404230BD0833B4
:104C1000DC1E24788C42F0D10020F7E70723C2691C
:104C20001A42FCD1704743681B681A7E520703D5AD
:104C300000201B8D0B70704710204042FBE743683B
:104C40001B681A7ED207FCD519857047022210B561
:104C500043681868438B418B5B07DB0F114200D020
:104C600013430122448B1440A4001C430723428BAE
:104C700013434383FFF7D2FF200010BD10B5026934
:104C80009368002B01D0D168984710BD10B54368D8
:104C90001C68237EDB07D80F002B05D00020824242
:104CA00002DD0B780130238510BD032243681B68A9
:104CB0009A757047032243681B681A7570474368EA
:104CC00000201B681A7ED20702D5987DC007C00F4E
:104CD0007047026903000020127C824204D05B68A6
:104CE0001B68987D8007C00F7047042243681B68CB
:104CF0009A757047042243681B681A7570474368A9
:104D000000201B681A7E520702D5987D4007C00F0D
:104D1000704710B5436800201B681C7E640705D5EA
:104D20001B8DDBB2824202DD0B70013010BD1620FC
:104D30004042FBE743681B689A7D187E1040431E83
:104D4000984170470822436801201B681A76704713
:104D500003699960DA607047030010B50800082203
:104D6000196900F088F9002010BD002210B511006B
:104D70000920FCF783FE0920FCF774FE10BD002219
:104D800010B511000A20FCF779FE0A20FCF76AFE34
:104D900010BD002210B511000C20FCF76FFE0C2096
:104DA000FCF760FE10BD10B543690400002B07D16D
:104DB00000230122E168487802434A70584210BD3E
:104DC00098470028F4D0C1174318E2684B40FF2BE6
:104DD00000DDFF231370ECE7002808D0C368002033
:104DE0005A78D20703D5187843425841C0B2704769
:104DF000EFF3108372B6FEE710B5EFF3108372B6CF
:104E0000FFF70CFEF9E7002A07D08A4205D381603C
:104E1000C260006040600020704716204042FBE7FF
:104E2000EFF30580431E9841C0B2704758204042BE
:104E30007047002070470368426813605A6000237F
:104E400003604360704710B50400FFF7F4FF0222CF
:104E5000637B934363730023A36010BD70B50400AC
:104E60000D00FDF7EBFF0223627B13436373002DFC
:104E70001AD0A5602B689D4209D16B6825606360DC
:104E80001C606C6010E06A689A42F6D01B68002BC8
:104E9000F3D00E210E225956A2569142F3DD5A68E4
:104EA0002360626014605C6070BD10B5EFF3108425
:104EB00072B6FDF77FFF002C02D162B6BFF36F8F91
:104EC00010BD10B5EFF3108472B68368002B01D0CB
:104ED000FFF7B9FF002C02D162B6BFF36F8F10BD90
:104EE00070B50400EFF3108572B62823427B1A4296
:104EF0000BD18368002B01D0FFF7A5FF0422637B51
:104F0000200093436373FDF755FF002D02D162B675
:104F1000BFF36F8F70BD10B501211838FFF7E0FFA8
:104F200010BD70B5EFF3108572B60468A0420BD0C7
:104F3000002C02D02000FFF786FF002D02D162B6C0
:104F4000BFF36F8F200070BD0024F6E770B504003A
:104F50000D00FEF7C7F803002000621C01D10135E7
:104F60000DD01800D91709220023801859410928AB
:104F700001D1002904D00A220023FBF781F970BD7A
:104F80000800FCE770B50400EFF3108572B6036803
:104F9000002B1AD0FEF71AFA06002000FEF744FA9A
:104FA000802300221B0622616361A64206D1FEF720
:104FB0002FFAFEF713FA0021FDF714FC0020002D54
:104FC00002D162B6BFF36F8F70BD16204042F6E784
:104FD00010B5FEF73DFB10BD10B5FEF739FB10BD57
:104FE0004262020000231832016203638261C261DF
:104FF000036043604363704710B50400FFF7C2FFCE
:10500000002811D1636A002B01D0200098472000AE
:105010001830FFF786FF002806D0FFF746FFEFF3B2
:10502000108072B6FDF7BEFF10BD0300EFF31082D3
:1050300072B6006841181960002A02D162B6BFF347
:105040006F8F70470300EFF3108272B60068411A49
:105050001960002A02D162B6BFF36F8F7047030058
:10506000EFF3108272B600681960002A02D162B6AE
:10507000BFF36F8F7047002310B59A4200D110BD67
:10508000CC5CC4540133F8E703008218934200D18A
:10509000704719700133F9E7030041188B4202D0C1
:1050A0001A78002A01D1181A70470133F6E7F0B5D3
:1050B0000D0037211F2704001600C91A8FB0C9B28E
:1050C0000D911F40E3B20C93082F19D0102F23D05D
:1050D000EB07022F31D101220C991140620894464E
:1050E00060466A0818430400150022003031731C22
:1050F00031702A4302D118000FB0F0BD1E00E1E765
:1051000007230C99E20819406B079C466046EB08A0
:10511000104304001D00E8E70F230C9922091940F1
:105120002B079C4660462B09104304001D000929EB
:10513000DBD90D9B5918C9B2D7E762081A436B082F
:1051400006920793A208AB071A43AB08089209938B
:1051500008980999069A079B12184B4119078C4623
:1051600060461109014300911909019100980199C4
:1051700012184B4119068C466046110A01430291F0
:10518000190A03910298039912184B4119048C468D
:105190006046110C01430491190C0591049805997E
:1051A00012184B4100210A930B910A980B9912187F
:1051B0004B415907DD080523D4080C4363430C9A7F
:1051C0005B00D11AC9B2092900D88EE70122002359
:1051D0000A39A4185D41C9B2A9E70B694A6993422B
:0C51E00002D05A1C0A61187070470000D1
:0851EC00F0ECFF7F0100000060
:1051F400000000008C520000000000006C5200000F
:10520400000000004C52000000000000EC520000BE
:1052140000000000CC52000000000000AC5200006E
:10522400411F000000000000612700000000000092
:105234005D0C000000000000051C000000000000E0
:08524400000000000C53000003
:10524C00435A000000000000000000002C00002069
:10525C000C070020811C0000000000000000000072
:10526C00505A0000685500000C5400002E0000201D
:10527C002C0700204D4B0000000000000000000037
:10528C005E5A0000745500000C54000030000020E1
:10529C00400700204D4B0000000000000000000003
:1052AC00C25A0000C05500004854000034000020D1
:1052BC008807002005250000000000000000000009
:1052CC00D25A00000056000048540000360000205E
:1052DC009C070020052500000000000000000000D5
:1052EC00E25A0000405600004854000038000020EC
:1052FC00B0070020052500000000000000000000A1
:10530C00A95A0000805500003054000032000020E3
:10531C00540700205D220000000000000000000087
:10532C0000000000E949000000000000E94900000D
:10533C0000000000E949000000000000E9490000FD
:10534C004C520000391C000000000000E94900002C
:10535C0000000000E949000000000000E9490000DD
:10536C0000000000E9490000EC5200007D4C0000F8
:10537C00CC5200007D4C00000C5300007523000043
:10538C00AC5200007D4C000000000000E949000018
:10539C0000000000E949000000000000E94900009D
:1053AC0000000000E949000000000000E94900008D
:1053BC0000000000E949000000000000E94900007D
:1053CC0000000000E949000000000000E94900006D
:1053DC0000000000E949000000000000E94900005D
:1053EC0000000000E949000000000000E94900004D
:1053FC0000000000E949000000000000E94900003D
:10540C00414A0000B74A0000C34A0000D54A0000D8
:10541C00DF4A0000E94A0000951F0000F34A000033
:04542C00514B0000E0
:10543000AD4B000000000000012100000000000052
:08544000000000000000000064
:10544800274C00003F4C00004D4C0000FD2500009B
:10545800594D00008D4C0000134D0000AB4C00006E
:10546800B54C0000BF4C0000EB4C0000F54C0000B0
:10547800D34C0000FF4C00000000000000000000BA
:0C548800354D0000454D0000514D000066
:10549400C6570000030000003C5A0000030000004F
:1054A4006C5A000003000000B95A00000300000019
:1054B400DF57000003000000E35700000300000072
:1054C400E658000003000000C75B00000300000072
:1054D4004855000008000020D558000001000000D5
:1054E400F800002000010000CB47000071470000D5
:1054F40002000000EB480000000000000000000073
:105504000000000000000000B5580000BD58000075
:10551400000000000000000000000000C55800006A
:10552400C9580000CD580000D1580000385500007B
:10553400D8060020B9160000F0060020020800205A
:1055440001000000A54900009749000065490000DA
:1055540059490000000000004D490000000000000F
:1055640010000020FFFFFFFF804400410100000005
:10557400FFFFFFFF00440041000000000010004254
:10558400A0550000801A060020040040100000000E
:105594000000000016000000994B0000A855000010
:1055A40001000000B055000002000000000080323D
:1055B4000000903200440041804400410014004245
:1055C40000C20100000010000000000020040040A0
:1055D400200000000000000017000000934D0000B0
:1055E400E8550000F055000001000000F8550000E7
:1055F400020000000000702300006023000C004241
:1056040000C201000000300000000000200400403F
:105614000800000000000000150000007F4D00009D
:1056240028560000305600000100000038560000E3
:1056340002000000000030230000002300080042A4
:10564400802500000000310000000000200400401C
:105654000400000000000000140000006B4D000076
:1056640068560000705600000100000078560000E3
:10567400020000000000B0220000A022785B0000BD
:10568400865B00009A5B0000A95B0000B55B00002C
:10569400F4510000F45100002C5200003452000078
:1056A4004C5200004C520000496E696369616E649B
:1056B4006F206C65697475726120646F20424E4F6F
:1056C4003035352E2E2E0A0053656E736F72206EA0
:1056D400C3A36F20656E636F6E747261646F005351
:1056E400656E736F72206665746368206572726F8D
:1056F4000054656D70657261747572613A20256439
:105704002E2530366420430A0048756D696461644F
:10571400653A2025642E253036642025250A002884
:10572400756E7369676E6564292063686172202AE7
:10573400207573656420666F722025257020617260
:1057440067756D656E742E204974277320726563C6
:105754006F6D6D656E64656420746F20636173742E
:1057640020697420746F20766F6964202A20626532
:105774006361757365206974206D61792063617557
:105784007365206D69736265686176696F722069FB
:105794006E206365727461696E20636F6E666967FB
:1057A40075726174696F6E732E20537472696E67BB
:1057B4003A2225732220617267756D656E743A25ED
:1057C400640063627072696E74665F7061636B61BA
:1057D4006765006C6F6767696E67006C6F67006C64
:1057E4006F675F6D676D74004D65737361676520E6
:1057F4002822257322292064726F707065642062E8
:105804006563617573652069742065786365656493
:10581400732073697A65206C696D69746174696F4A
:105824006E2028257529004D6573736167652064B2
:10583400726F707065642062656361757365206959
:105844007420657863656564732073697A65206C78
:10585400696D69746174696F6E2028257529000D5E
:105864000A001B5B306D00257320005B2530386C0B
:10587400755D20005B253032753A253032753A2546
:105884003032752E253033752C253033755D20006C
:105894002573003C25733E200025732F0025733AA1
:1058A4002000253032782000202020007C00256351
:1058B400001B5B313B33316D001B5B313B33336D7C
:1058C400006572720077726E00696E6600646267CA
:1058D400006C6F675F6261636B656E645F756172B4
:1058E40074006C6F675F756172740072302F613180
:1058F4003A2020307825303878202072312F6132D8
:105904003A2020307825303878202072322F6133C5
:105914003A20203078253038780072332F61343AB9
:105924002020307825303878207231322F69703A4F
:105934002020307825303878207231342F6C723A38
:1059440020203078253038780020787073723A201F
:1059540020307825303878004661756C74696E673C
:1059640020696E737472756374696F6E2061646408
:105974007265737320287231352F7063293A203091
:10598400782530387800556E68616E646C656420E3
:105994004952516E3A2025640052657365727665EA
:1059A4006420457863657074696F6E2028005370B5
:1059B4007572696F757320696E746572727570742F
:1059C40020284952512000535053454C20696E20E1
:1059D400746872656164206D6F646520646F6573BB
:1059E400206E6F7420696E6469636174652050531E
:1059F40050002A2A2A2A2A20484152442046415546
:105A04004C54202A2A2A2A2A00415243485F4558E6
:105A140043455054207769746820726561736F6ED2
:105A24002025780A002A2A2A2A2A20257320256478
:105A340029202A2A2A2A2A006765746F707400654F
:105A44006963403430303031383030006770696F0A
:105A5400403431303034343830006770696F40344A
:105A64003130303434303000693263005472616E46
:105A740073616374696F6E206572726F72206F6EEA
:105A84002025733A202530385800496E76616C69B8
:105A940064204932432062697420726174652076FF
:105AA400616C756500736572636F6D4034323030BC
:105AB40031303030006932635F73616D300073657B
:105AC40072636F6D4034323030313430300073657E
