:10000000A8270020E941000043CD0000D5410000B1
:1000100000000000000000000000000000000000E0
:10002000000000000000000000000000B9420000D5
:1000300000000000000000005942000019510000BB
:10004000014400000144000001440000014400009C
:10005000014400000144000001440000014400008C
:10006000014400000144000001440000014400007C
:10007000014400000144000001440000014400006C
:10008000014400000144000001440000014400005C
:10009000014400000144000001440000014400004C
:1000A000014400000144000001440000014400003C
:1000B00002B4714649084900095649008E4402BC01
:1000C0007047C04602B4714649084900095C4900BE
:1000D0008E4402BC7047C04603B4714649084000D4
:1000E0004900095E49008E4403BC7047002934D0A2
:1000F0000123002210B488422CD301242407A142FA
:1001000004D2814202D209011B01F8E7E400A142B6
:1001100004D2814202D249005B00F8E7884201D351
:10012000401A1A434C08A04202D3001B5C08224329
:100130008C08A04202D3001B9C082243CC08A0429A
:1001400002D3001BDC082243002803D01B0901D086
:100150000909E3E7100010BC704701B5002000F06A
:100160005FF802BD0029F8D003B5FFF7C1FF0EBC50
:100170004243891A1847C046002941D010B40400F0
:100180004C40A44601230022002900D54942002802
:1001900000D5404288422CD301242407A14204D236
:1001A000814202D209011B01F8E7E400A14204D216
:1001B000814202D249005B00F8E7884201D3401A2D
:1001C0001A434C08A04202D3001B5C0822438C084F
:1001D000A04202D3001B9C082243CC08A04202D3B9
:1001E000001BDC082243002803D01B0901D00909A9
:1001F000E3E710006446002C00D5404210BC704775
:1002000001B5002000F00CF802BDC0460029F7D06F
:1002100003B5FFF7B3FF0EBC4243891A1847C04627
:100220007047C0468446100062468C4619006346FB
:1002300000E0C0461FB500F0F5FF002801D4002102
:10024000C8421FBD10B500F035FF4042013010BD5F
:1002500010B500F0E7FF002801DB002010BD0120F1
:1002600010BDC04610B500F0DDFF002801DD002004
:1002700010BD012010BDC04610B500F05DFF002884
:1002800001DC002010BD012010BDC04610B500F0FB
:1002900053FF002801DA002010BD012010BDC04628
:1002A0001C2101231B04984201D3000C10391B0AA6
:1002B000984201D3000A08391B09984201D300096A
:1002C000043902A2105C40187047C04604030202C1
:1002D000010101010000000000000000414208404F
:1002E0001C2101231B04984201D3000C10391B0A66
:1002F000984201D3000A08391B09984201D300092A
:10030000043902A2105C401A7047C0461B1C1D1D18
:100310001E1E1E1E1F1F1F1F1F1F1F1F002B11D160
:10032000002A0FD1002900D1002802D00021C943A2
:10033000080007B4024802A14018029003BDC0465D
:10034000E1FEFFFF03B4684601B5029801F04CFEE0
:10035000019B9E4602B00CBC7047C046F0B5C30F6F
:1003600085B04702440002917F0A240E03930AD00D
:10037000FF2C71D080227F3C26000023FF00D20496
:10038000174301930CE001233E1E019308D038006F
:10039000FFF786FF7626431F9F407642361A019468
:1003A000029B5C025D00DB0F640A2D0E02935AD0A3
:1003B000FF2D64D080232800E400DB041C437F3839
:1003C00000230299039A4A40811901988C468500BE
:1003D00001311D430A2D00DD78E0022D55DC013D81
:1003E000012D63D9250CA4B226003B0CB8B24643BC
:1003F0005C4368436B4300191F00330C1B189C427D
:1004000002D9802040023F181804B6B28619B40100
:10041000601E84411B0CB60EDB1934439B011C4348
:100420001B0168D5012360081C40044308007F308D
:10043000002862DD630704D00F232340042B00D083
:100440000434230103D5803108003E4B1C40E508ED
:10045000FE2833DD00254CE0022326000193002F07
:100460009ED001338DE720000123002CA9D0FFF797
:1004700017FF431F9C4076235B42181AA0E7280011
:100480000223002C9DD001339BE70120A840A62524
:100490000600ED002E4028421DD19025AD002842D7
:1004A00047D1B93DFF3D28429CD0029A022BD1D0C2
:1004B000032B42D000252800012BB7D16D026D0A15
:1004C000C0052843D207104305B0F0BD039A0F2D95
:1004D00004D00B2DE9D03C00019BE7E78023DB0330
:1004E0001F4203D01C4201D12700029A8025ED0350
:1004F0003D43FF20E2E7614698E7012300251B1AF0
:1005000028001B2BDADC9E3125008C40DD40631E69
:100510009C4125436B0704D00F232B40042B00D0B4
:10052000043580232800DB0418401D4207D1ED0864
:10053000C4E780273200FF03D8E72700D6E700256D
:100540000120BBE7FFFFFFF770B503000400051EA5
:100550000ED0C21785185540C40F2800FFF7A0FE23
:100560009E231B1A962B0ADC08282CD008388540BD
:100570006A02D805520A1043E407204370BD992B44
:100580001CDD05222900121AD14002001B329540C1
:100590002A00551EAA4111430D002A000B4E32407D
:1005A000690704D00F212940042900D004325101E9
:1005B00002D59F2332401B1AD508D9E7421F0528D0
:1005C000EBD09540E9E79623D2E7C046FFFFFFFB5B
:1005D000F0B587B004920593CB0F0193059B0D03F3
:1005E0004C006D0A410F5F0029431D037B0D0293F0
:1005F000059B6D0ADB0F0393049B049A5B0F2B434F
:10060000019E029D039F640DC000D200651BBE4287
:1006100000D02CE1BB4EB446002D00DC70E0029E01
:10062000002E1ED11E00164300D19BE26E1E012D2E
:1006300013D1821882428041C9184042091801240E
:1006400010000B0200D472E00224AF4B42080B40B2
:10065000012101400A43D80706E165451CD1A94C98
:1006600065E0644563D0382D47DC8026360433438B
:100670002E001F2E2FDC20251F00AD1BAF40029542
:100680003D001700F7402F43029DF340AA40551E3E
:10069000AA411D00174303E00127029D382EE8DD23
:1006A0003F188742804169184042091838000B0200
:1006B0003DD5002501342F006445C6D1934B240558
:1006C0001C403B031B0B1C43019B2800DB071C4306
:1006D000210007B0F0BD35001F00203DEF403D0078
:1006E0000027202E03D04037BF1BBB401F001743FD
:1006F0007B1E9F412F430025D2E700250127CFE72E
:10070000002D6FD0029D2E1B002C30D10D00054313
:1007100000D121E2751E012E24D180189042924111
:10072000C9185242891801340B0200D58CE74307DF
:1007300009D00F230340042B05D0031D83428041C1
:100740004042091818006F4B0A0200D410E200253D
:1007500001342F009C42B1D06B4BC0080B405D07A9
:100760000543F2E166451DD11900100077E7029CB0
:100770006445F9D0382E32DC80243500240421432E
:100780001F2D1ADC20240E00671BBE40340006001B
:10079000B840EE4034430600E940701E86412643CF
:1007A0000C0002E00126382DEADDB018904292419B
:1007B000E4185242A118029C79E72C000E00203C5C
:1007C000E64034000026202D03D04036761BB14091
:1007D0000E000643711E8E4126430024E5E70024E7
:1007E0000126E2E74A4F661C3E4230D10D00054328
:1007F000002C12D1002D00D1B1E11D00154396D07F
:10080000821882428041C9184042091810000B0228
:100810008DD53D4B1940340089E7002DA4D01D0033
:100820006446154383D080254C07C008C9082D03B2
:100830002043294206D0DC082C4203D12100D008F5
:100840005B071843CB00410F1943C00007E7340092
:100850002F00664500D131E7821882428041CB18D3
:1008600040421B18D8075208104359085FE7002D73
:1008700065DD029E002E25D11E00164300D171E1D8
:100880006E1E012D0ED1821A90428041C91A40423B
:10089000091A012410000B0200D448E7490206009F
:1008A0004D0A07E1174FBD4200D1D8E60125029F4E
:1008B000382E11DD451BA8428041C91B4042091A50
:1008C0002800E8E70F4EB44200D130E7382D33DC82
:1008D0008026360433432E001F2E1BDC2027BD1B31
:1008E00002951D00029FF340BD40AC4615006746CF
:1008F000F5403D43029FBA40571EBA411F001543C1
:10090000D8E7C046FF070000FFFF7FFF0000F07F31
:10091000FE07000035001F00203DEF403D0000278E
:10092000202E03D04037BE1BB3401F0017437B1E51
:100930009F413D430027BDE700270125BAE7002D71
:1009400059D0029D2E1B002C16D10D0005430FD04F
:10095000751E012E09D1101A82429241591A039B29
:100960005242891A0193013495E78E4FBE4221D13C
:1009700019001000340050E08A4C029DA54200D1BD
:10098000F2E0382E34DC80243500240421431F2D6E
:100990001DDC20260C00761BB440A4460400B040A9
:1009A000EC406746461EB041E9403C430443260004
:1009B0000C0002E00126382DE9DD901B82429241B5
:1009C0001C1B039B5242A11A0193029C63E72C005B
:1009D0000E00203CE6400024202D03D04034641B50
:1009E000A1400C000443611E8C4126430024E4E72F
:1009F00000240126E1E76C4E651C35424AD10D000A
:100A00001F0005431743002C23D1002D08D13D1EA4
:100A1000019700D152E619001000039B019386E66E
:100A2000002F00D183E6861AB042BF41CD1A7F4223
:100A3000ED1B2F0206D5101A82429241591A5242DA
:100A4000891AEAE737002F4300D1A5E029003000DA
:100A50006DE6002D07D1002F00D194E01900039B13
:100A600010000193FBE5002F00D1F8E580254C072D
:100A7000C008C9082D032043294200D1E2E6DC0862
:100A80002C4200D0DEE65B07D0081843039B210010
:100A90000193D7E6861AB042BF41CD1A7F42ED1BC3
:100AA0002F0228D5161AB24292415B1A52429D1A61
:100AB000039B0193002D25D02800FFF7F1FB0300D5
:100AC000083B20223100D21A9D40D14029433500F5
:100AD0009D409C423BDC1A1B0132202308009B1ADC
:100AE0002C009D409840D4406B1E9D41D140204336
:100AF000284300241BE637002F43DBD13D003C0098
:100B00000197DBE53000FFF7CBFB030018331F2B09
:100B1000D7DD3100083881409C4212DC1B1B5A1C77
:100B20001F2ADADD0C001F3BDC402800202A03D0FE
:100B300040239B1A99400800431E984100212043FE
:100B4000D7E7E41A194B0B405D07DF08B6E5E41A56
:100B5000164B28001940EAE5190010005BE6190061
:100B60001000E4E52C00E2E519001000029C54E7B7
:100B70004A07C70817433D00C9089C420FD10D43DF
:100B800004D12F009AE58021019709033D008027B9
:100B90003F03044C0F4391E53D0001978EE50F00A4
:100BA0008CE5C046FF070000FE070000FFFF7FFF47
:100BB000F0B589B0009201930D03CA0F4B000600F7
:100BC00004002D0B5B0D0692059244D05B4A9342C4
:100BD0006AD0420FED001543802212042A4302928C
:100BE000574AC4009F180026019B019A1D03D20F8B
:100BF0005B0000982D0B5B0D079265D04F4A934226
:100C000000D188E0ED004E49420F2A4380255B1851
:100C10009C462D041543C2000021079B06985840AE
:100C200063460490B0000843FB1A013803930E2872
:100C300000D989E001F088F97E002802D401280259
:100C40001E022802D4017E007E001E02D401C701CC
:100C5000C701C701B5012B00034302932CD0002D1F
:100C600015D02800FFF71CFB010003000B391D22E3
:100C7000521A31001800D140083885400A002A4332
:100C80003500854002922F4F2C00FF1AABE7FFF78B
:100C900007FB01000300153120331C29E7DD32007A
:100CA000083882400292EEE702002A43029207D0FF
:100CB0001F000326029597E7029C0126270093E771
:100CC0001F000226029C8FE7009A2A432AD0002D9B
:100CD00015D02800FFF7E4FA010002000B391D23AC
:100CE00010005B1A009908388540D9402943009DBF
:100CF0008540144B9B1A9C462A000D008CE7FFF799
:100D0000CFFA01000200153120321C29E7DD0099DD
:100D100008388140EDE7009A2A4307D002009C463C
:100D200003217AE715009446012176E715009C46D9
:100D3000022172E700231C00004A22E1FF070000A5
:100D400001FCFFFF0DFCFFFF029B9D4204D300D07E
:100D500022E1A24200D91FE1029BE607D9076308FE
:100D600019430C00029B5B08029313022D02170E1D
:100D700000932B0C2F4307930799BBB2029805935E
:100D8000FFF7F0F9BBB243430A04210C05001143FD
:100D90008B4207D9C919013D8F4203D88B4201D933
:100DA000851EC919C81A0799FFF7DCF9BAB2424380
:100DB0000904A4B203000C43A24207D9E419013B81
:100DC000A74203D8A24201D9831EE4192D041D4372
:100DD000A41A009B009A1B0C12040593120CABB2D0
:100DE00006925A4306980292059A290C48435343A7
:100DF0005143029A1B18120C94466344984202D93C
:100E0000802252028918029A180C12041B04120C38
:100E100040189A18844203D302951ED196421CD2E0
:100E20006B1E0293009BF6189E429B415B42DB19AE
:100E3000E418A74203D310D1009BB3420DD8A042BF
:100E400002D80AD1B24208D9AB1E0293009BF61811
:100E50009E429B415B42DB19E418B51AAE42B64193
:100E6000201A7642801B874200D1BEE00799FFF727
:100E700079F9BBB243430A04290C040011438B42A5
:100E800007D9C919013C8F4203D88B4201D9841E6E
:100E9000C919C81A0799FFF765F9BBB2434309049A
:100EA000ADB202000D43AB4207D9ED19013AAF4292
:100EB00003D8AB4201D9821EED19ED1A2304059E19
:100EC0001343069906981C0C9AB25143604372432F
:100ED000744312180E0CB218904202D980204002BE
:100EE0002418100C09041204090C00195118854229
:100EF00004D31C00854219D1002919D07D195C1E2C
:100F0000BD420ED3854203D310D1009A8A420AD241
:100F10009C1E009B5A009A429B415B42DB19ED18D4
:100F20000092854202D1009B994201D001231C43CB
:100F3000039B5B4A9A18002A5ADD63070BD00F23E4
:100F40002340042B07D0231DA342A44102996442ED
:100F500009191C000291029BDB0108D5514B029A32
:100F60001A408023DB009C460292039A62444E4B57
:100F70009A4200DD8CE0029BE4085B071C43029B65
:100F8000DB081B0312051B0B1343049A2000D20736
:100F90001343190009B0F0BD039B0026013B0393E6
:100FA000E3E6802302991B03194205D01D4203D1B9
:100FB0001400079B029505938023029A1B03134399
:100FC000059A0492B8E63100069B049302295FD08B
:100FD000032956D00129ABD1002423002200D0E7F9
:100FE000079B140002950493F0E7012464429FE7F5
:100FF0000121891A3829EFDC1F2926DC2B4A039BA3
:101000009446634420009C40029AC8409A402300C2
:101010000243581E83411A43029B1400CB406207CF
:1010200009D00F222240042A05D0221DA242A44149
:1010300064421B19140080211A0009040A400B4263
:1010400029D1E1085C070C439AE71F235B429B1AF6
:10105000029ADA400023202906D01549039B8C46CA
:101060000299634499400B001C43631E9C4100237A
:101070001443D4E700231C00059380231B03029331
:101080009AE7049B059397E700231C001A0078E772
:101090000024230050E6002301221C0071E7C04613
:1010A000FF030000FFFFFFFEFE0700001E0400001C
:1010B0003E040000F0B50D0087B0009201930400DB
:1010C00004900198EB0F4600C70F1A48039384461B
:1010D000009B09030593019B6A001B030120090B78
:1010E000520D1B0B760D624503D066450DD107B03E
:1010F000F0BD9642FBD1009A0B4313432343F6D134
:10110000039BD81B431E9841F1E70120B242EED168
:101110009942ECD1049B059EB342E8D1039BBB42AC
:1011200006D0002AE3D121434B1E99410800DEE797
:101130000020DCE7FF070000F0B587B000900191C8
:101140001D00009B14000493019B29031A03130B39
:10115000334A03939446019B68005F007B0D029322
:10116000029A019B0594DB0F090B400DEE0F6245BF
:1011700012D1009A039F17434FD1029A904204D094
:101180000120002B06D0023804E02143081E44D180
:10119000B342F5D107B0F0BD604511D121433CD138
:1011A000029A002A04D0B342EAD1181EF2D105E017
:1011B000009A03991143F6D1301EEBD101202DE0A6
:1011C000029A002A17D00028DAD0B342D8D1029A66
:1011D0008242D5DC029A8242E7DB039A8A42CFD868
:1011E000E3D1049A05998A42CAD8049A0599002045
:1011F0008A42CFD2D9E7009F039A1743002802D032
:10120000002FD9D0CFE70C4304D0002FD4D0B34265
:10121000E3D0B5E7002FBDD0B2E702204042B9E7E6
:10122000FF070000F0B587B0009001911D00009B02
:1012300014000493019B68001A03130B344A0393B0
:101240009446019B05945F007B0D0293019B029ADB
:10125000D90F2B031B0B400DEE0F624513D1009AE3
:10126000039F174352D1029A904204D001200029D3
:1012700007D0023805E00220234302D11800B14212
:10128000F4D107B0F0BD604513D102202343F8D15B
:10129000029B002B04D0B142E8D1081EF1D105E039
:1012A000009B039A1A43F6D1301EEAD10120404236
:1012B000E7E7029A002A17D00028D7D0B142D5D14B
:1012C000029A8242D2DC029A8242E6DB039A9A4276
:1012D000CCD8E2D1049B059A9342C7D8049B059AC7
:1012E00000209342CDD2D8E7009F039A17430028ED
:1012F00002D0002FD8D0CEE71C4304D0002FD3D08B
:10130000B142E3D0B2E7002FBBD0AFE70220B8E78D
:10131000FF070000F0B58BB0009201930D034B0066
:10132000CA0F06002D0B5B0D059200D114E1CF4AC8
:10133000934200D138E1ED00420F2A4380252D046D
:101340001543CB4AC4009B18039300230293019BCF
:1013500000981E035A00DB0F360B520D049300D188
:1013600031E1C24B9A4200D153E1430FF6003343BF
:101370008026BF4936041E43C30050180022059939
:10138000049F79400091039941180691013103911E
:101390000299880010430A2800DD73E1022800DD6D
:1013A00046E10138012800D855E1190C9BB20291A1
:1013B0001900220CA4B2514320008C46029F0299CE
:1013C00058435143674305916744010CC919049080
:1013D0008C4505D9802040028446059F67440597C7
:1013E000080C84466846008A090409180991310CE2
:1013F000B6B2049130002100049F50437C437143F6
:101400007A4324180F0C3C19A04202D980204002D4
:101410001218200C8218240489B2079262180892CC
:10142000089962468C46290CADB22800029F5843A9
:101430006F434B4362449446029CFF18020CD2193E
:101440004C43934202D980235B02E418130C1B190E
:1014500002932B0080B21204121804987343454380
:101460004E434143A8191D0C2D18AE4202D98020CD
:1014700040020918059C6046A446089C6044A042AE
:10148000BF418018904292412E049BB2F618079BF0
:101490007F42F61853420493029BF4199C46A444DD
:1014A0006346049ABC42A4419B18079A6442964240
:1014B000B641029A764234432D0C64199445AD41ED
:1014C000049A6D4293429241524215436419099A1B
:1014D0006418410211434A1E9141C00DDE0D6402A1
:1014E00001435B0226430B43E40100D4DFE001210A
:1014F0005A080B401A43F307CE401343039A5D4941
:101500005218002A00DCD5E0590709D00F211940F4
:10151000042905D0191D99429B415B42F6180B0026
:10152000F10106D58021C9008C46534A1640039A22
:10153000624452498A4200DD09E17407DB081C431A
:10154000F60813053603009A360B3343D2071343CC
:10155000200019000BB0F0BD2C0004432BD0002D4F
:1015600016D02800FEF79CFE040002000B3C1D2351
:1015700030001B1B1100D84008398D4003002B435D
:1015800035008D403E492C008A1A1D000392DCE68E
:10159000FEF786FE04000200153420321C2CE6DD26
:1015A000330008388340EDE704002C4307D0039351
:1015B00004000323CAE6250001230394C6E603932F
:1015C00025000223C2E6009B334329D0002E14D00D
:1015D0003000FEF765FE010003000B391D221800E4
:1015E000521A009908388640D1403143009E864007
:1015F0002348C01A33000E00C0E6FEF751FE01007A
:101600000300153120331C29E8DD0099083881409A
:10161000EEE7009B334307D0030010000322AEE641
:101620001E0018000122AAE610001E000222A6E6F3
:1016300001218140A6200F00C0000740014227D1B0
:1016400090208000014277D1B938FF38014200D1A3
:10165000ABE604990091022A79D0032A75D0012AB9
:1016600000D04BE70026340032006AE7FF07000095
:1016700001FCFFFFFF030000FFFFFFFEFE0700006D
:101680000DFCFFFF059900910F2805D00B28E0D035
:101690002E002300029ADEE78022120315424FD06B
:1016A00016424DD13500049A00921C0048E0069A7B
:1016B000039223E70120801A3828D3DC1F2827DC77
:1016C0002649039A8C461C006244310093409140A5
:1016D000C4401A002143531E9A410B00C6401343D5
:1016E0005A0709D00F221A40042A05D01A1D9A421F
:1016F0009B415B42F618130080213000090408402A
:101700000E4227D17407DB0802001C43F60818E7D5
:101710001F2149428A1A3100D1400022202805D0D9
:101720000F48039A844662449640320013435A1E7F
:10173000934100260B43D3E780253C002D030097FF
:10174000802636032E43074AFBE63500ADE7002628
:101750003400F8E7002601223400F2E61E040000FF
:101760003E040000FF070000F0B585B00092019331
:10177000CB0F0D030293019B4C006D0A410F2943CF
:101780005D001E036B0D9C46019B760ADD0F009BDE
:10179000009A5B0F3343BE4E640DC000D200B445C7
:1017A00023D11E0016430396039FBA4EA619002F9D
:1017B0000CD0029F0095AF4200D0B5E1002E00D1C1
:1017C00004E1002C00D0BAE26446B8E001276F4083
:1017D000029D0097BD4200D0AFE1002E00D1F5E0A0
:1017E000002CF1D0039908002FE0012675400095E8
:1017F0006546029F009E651BB74200D02EE1002D7A
:1018000000DC76E06746002F21D11F00174300D18E
:1018100022E16F1E012D15D1821882428041C91824
:1018200040420918012410000B0200D496E0022463
:10183000994B42080B40012101400A43D80710434D
:1018400059088BE0924EB54222D1914C86E0904EE1
:10185000B44200D182E00026B4460136382D1ADCAD
:1018600080262F00360433431F2F31DC20251E0035
:10187000ED1BAE40B44616000095FE4065462E4373
:10188000009DFB40AA40551EAA4116439C4602E01B
:101890000126382FE8DD36188642804161444042F7
:1018A000091830000B0259D50026794B0134B44693
:1018B0009C42BDD1794B24051C4063461B031B0B86
:1018C0001C43029B3000DB071C43210005B0F0BD28
:1018D0003D001E00203DEE400025202F03D0403566
:1018E000ED1BAB401D0015436B1E9D4100232E4395
:1018F000CCE7002D6AD065462D1B002C1ED000249D
:101900000126382D12DC8024240421431F2D4BDCBA
:1019100020240F000600641BA040A740EE40374380
:101920000600E940701E86410C003E43B01890420C
:101930009241E4185242A1186446B3E72C000D000E
:10194000054329D0651E012C23D180189042924175
:10195000C918524289180B0200D568E7430709D01D
:101960000F230340042B05D0031D834280414042D6
:10197000091818000B0200D4E4E10026444B01349E
:10198000B4469C4296D0444BC0080B405E070643C9
:10199000CDE13F4EB44202D119001000DEE7382DF0
:1019A000B4DD00240126C1E72C000E00203CE640F7
:1019B00034000026202D03D04036761BB1400E00A7
:1019C0000643711E8E4126430024AFE7344E651C4A
:1019D000354233D10D000543002C11D1002DDBD051
:1019E0001D001543BAD0821882428041C918404276
:1019F000091810000B02B1D5274B01341940ADE78F
:101A0000002D00D19BE11C001443002C00D11CE7E9
:101A10004C07C00820438024C9082403214208D071
:101A2000DD08254205D129005B07D0081843009B3B
:101A30000293CB00410F1943C00006E7144CA542A6
:101A400000D196E1821882428041CB1840421B1897
:101A5000D8075208104359082C007FE7002D76DD87
:101A60006646002E2ED11F001743F5D06F1E012DA4
:101A700018D1821A90428041C91A4042091A0124A1
:101A800010000B0200D469E7490206004D0A02E18A
:101A9000FF07000001F8FFFFFFFF7FFF0000F07F5E
:101AA000FE070000B74EB54200D1CEE60126382F22
:101AB00015DD861B6346B0428041C91A4042091AAF
:101AC0003000DEE7AF4EB44200D147E70026B4460F
:101AD0000136382DEDDC80262F00360433431F2FCE
:101AE00011DC20251E00ED1BAE40B446160000950B
:101AF000FE4065462E43009DFB40AA40551EAA416C
:101B000016439C46D5E73D001E00203DEE400025D3
:101B1000202F03D04035ED1BAB401D0015436B1E3D
:101B20009D4100232E43ECE7002E67D0002C25D0EA
:101B300019001000934C029510E7002E5ED0002C87
:101B40001FD003998F4C0800009B029306E7002DDD
:101B500054D065462D1B002C1FD1009C02942C00F4
:101B60000D00054300D117E7651E012C0CD1101A9A
:101B700082429241591A5242891A82E7029564467A
:101B8000EEE7009C0294FAE77E4EB44200D103E7F0
:101B9000382D09DD0021012614E0382D2BDC8024AE
:101BA00024042143009C02941F2D13DC20240F00E9
:101BB000641B0600A040A740EE40441EA041E9403F
:101BC0003E430643901B82429241591A5242644658
:101BD000891A56E72C000E00203CE6400024202DF8
:101BE00003D04034641BA1400C000443611E8C41AF
:101BF00000212643E6E700990291CBE7624E651C7F
:101C0000354238D11D001543AC460D000543002C6C
:101C100025D1002D08D1614626000294002900D16B
:101C200048E6190010008FE76546002D00D195E6C3
:101C3000861AB042BF41CD1A7F42ED1B2F0206D556
:101C4000101A82429241591A5242891A7CE7330093
:101C50002B439C4600D18FE0290030007EE6002D0A
:101C600007D1614600297AD01900009B1000029329
:101C7000EBE56446C9E6861AB042BF41CD1A7F4201
:101C8000ED1B2F0228D5161AB24292415B1A52421E
:101C90009D1A009B0293002D26D02800FEF700FB22
:101CA0000300083B20223100D21A9D40D140294335
:101CB00035009D409C423DDC1A1B01322023080068
:101CC0009B1A2C009D409840D4406B1E9D41D140F2
:101CD00020432843002441E633002B439C46DAD1BD
:101CE0001E001C000293E5E53000FEF7D9FA030060
:101CF00018331F2BD6DD3100083881409C4212DC9E
:101D00001B1B5A1C1F2AD9DD0C001F3BDC4028007E
:101D1000202A03D040239B1A99400800431E984173
:101D200000212043D6E7E41A184B0B405E07DB087E
:101D30009C46BFE5E41A154B280019400EE6190031
:101D4000100082E54B07C00803439C460D4B6646D6
:101D5000C9089C4213D10E4304D1B446AAE50291AE
:101D60008021090380231B030B436646054C9C46D8
:101D7000A0E50026034CF0E7260002949AE58C4685
:101D800098E5C046FF070000FE070000FFFF7FFF49
:101D9000F0B51D004B005B0D9C460B4F14002B0350
:101DA0000A036E00120B1B0B760DBC4503D10243D8
:101DB0000120002A06D10020BE4203D1234318008F
:101DC000431E9841F0BDC046FF0700000B0070B5F0
:101DD000114E0C0349000200240B0020490DDD0FB9
:101DE000B14204DD0D48814202DD0D4BE81870BDA3
:101DF0008020400320430B4C641A1F2C08DC0A4E41
:101E0000E240891988401043002DF0D04042EEE7AF
:101E1000064B5B1AD840F7E7FE0300001D040000E4
:101E2000FFFFFF7F33040000EDFBFFFF1304000002
:101E300070B5030002000600051E11D0C2178518F8
:101E40005540C40F2800FEF72BFA0D4A121A0A2833
:101E50000FDC0B232E001B1A1530DE4085402300BB
:101E60003603360B12053243DB071A4328001100F4
:101E700070BD0B38854023002E000025F0E7C046DA
:101E80001E04000010B503000400021E0CD0FEF773
:101E900007FA0B4A121A0A280DDC0B2321001B1A21
:101EA000D94015300B0084401B031B0B12051A434D
:101EB0002000110010BD23000B3883400024F3E7FD
:101EC0001E040000FE2270B54400240E4302611C73
:101ED0005D0AC60F11420DD0E0229200A4181B0B20
:101EE0006D071B031B0B2405F6071C433443280016
:101EF000210070BD002C18D12300002DF1D0280046
:101F0000FEF7CEF90A280ADC0B232A001B1ADA4056
:101F10001300020015329540094C241AE1E7030032
:101F20000B3B9D402B002500F6E7002D06D01A0B39
:101F300080231B036D071343024CD2E72B00FBE702
:101F400089030000FF07000003B471464908400000
:101F50004900095A49008E4403BC7047D0400B0029
:101F6000D1409C46203AD3401843524263469340A6
:101F7000184370479140030090409C46203A93409C
:101F8000194352426346D3401943704710B50029A4
:101F900003D1FEF785F9203002E00800FEF780F952
:101FA00010BDC046F7B5040C0D0091B20F0061439F
:101FB0008C460600019383B2100C5F4344435843A0
:101FC0003B0C60441B18994202D9802149026418D5
:101FD000019955437143180C04191B04BFB24919E8
:101FE000D819091903B0F0BDF0B506000F001500AF
:101FF0001C0085B08B4263D801D1824260D8210099
:102000002800FFF7C3FF390000903000FFF7BEFF44
:10201000009B21001B1A1A0028000393FFF7AAFF58
:1020200000900191B94245D801D1B04242D8009BFD
:10203000019C01200021039AF61AA741FFF79AFF9D
:1020400004000D00039B002B2BD0019B009ADB07A3
:1020500050081843019B5908039B9C46B9422CD851
:1020600001D1B04229D832003B00121A8B4101261F
:1020700092185B410027B6185F4101235B429C44E4
:102080006346002BEAD130003900039AFFF766FF60
:10209000039AA4197D4106000F00FFF76BFF241A75
:1020A0008D410A9B002B01D01E605F60200029003B
:1020B00005B0F0BD00240025C4E7B6197F41DCE778
:1020C00000240025EDE70000F7B56B4600251D4E06
:1020D0009F1DD91D3A00012330680D700AF00DF9DB
:1020E0000400A84205DA210017480AF00DFA200082
:1020F000FEBD3978A02905D0012414480AF004FA5D
:102100006442F4E712480AF0FFF92A003D213068E2
:102110000AF013F919200AF007F92A003E21306865
:102120000AF00BF90A200AF0FFF80C223D21306872
:102130000AF003F914200AF0F7F806480AF0E4F967
:102140002C00D4E7E00F0020E8DF000006E00000EC
:1021500030E0000053E00000F0B51D4B87B00400F4
:10216000186802ABD91D202304AD0B702A00183B60
:102170000AF0C3F8002828DB0223EF5E0423EE5E9A
:102180000622AB5E01930023E85EFEF7DDF9E22153
:102190008905FEF7E3F820603800FEF7D5F9E22163
:1021A0008905FEF7DBF860603000FEF7CDF9E2212B
:1021B0008905FEF7D3F8A0600198FEF7C5F9E22182
:1021C0008905FEF7CBF8E060002007B0F0BDC046FF
:1021D000E00F0020F0B5174B85B0040018686B467F
:1021E000D91D1A2302AD0B702A00143B0AF085F8A2
:1021F00000281DDB0023E85EFEF7A6F9F62189051D
:10220000FEF7ACF80223EF5E20613800FEF79CF980
:10221000F6218905FEF7A2F80423EE5E6061300026
:10222000FEF792F9F6218905FEF798F8A0610020E3
:1022300005B0F0BDE00F002010B53348B6B00AF08D
:1022400063F9324B324818600AF095FF002806D136
:1022500030480AF059F90120404236B010BD2E48EE
:102260000AF052F9FFF730FF002801DA2B48F0E7B7
:102270002B480AF049F9FA20C0000AF055F829481D
:102280000AF042F90FA8FFF767FF002806DA264890
:102290000AF03AF964200AF047F8F3E70FA8FFF7CD
:1022A00099FF002801DA2148F2E71598FFF70AFEA6
:1022B0000C900D911498FFF705FE0A900B9113985E
:1022C000FFF700FE089009911298FFF7FBFD0690BA
:1022D00007911198FFF7F6FD049005911098FFF70C
:1022E000F1FD029003910F98FFF7ECFD104C009068
:1022F00001912200802116A804F048FD0D4816A97E
:102300000AF002F93220C6E776E00000E00F002074
:1023100074D500009BE00000C9E00000EDE0000083
:102320000CE1000026E100003CE1000055E1000066
:1023300069E10000AFE10000F0B597B00593042318
:102340000B921A400B9B0A92DA0807231A400132BB
:1023500007001C9D03910D92820700D0C5E1041D6A
:10236000002804D0072909D81C20404254E1039AD0
:102370001A401300A4180822D31A0393059B0426BD
:10238000013B0693002309930C9304930293013BB2
:1023900007930196002F01D0059B23600D9B002B16
:1023A00000DDF1E09D4B059A9A4203D39C4B9A4283
:1023B00000D2E9E00B99E21B9308890700D50DE1F3
:1023C000049A0F2A00D9BBE0002F00D10EE1049936
:1023D0000EAA53540A00079912AB99540C9B01336F
:1023E0000C93F4E008260196069B01330693069BA6
:1023F0009878002800D105E1029B002B08D1252800
:10240000F2D1079B01330793012302930426EAE7E5
:102410007A284AD84B280ED8472846D829282CD8BD
:1024200025283FD041D82028DED0233843425841C8
:10243000C3B20293D8E74C382E2836D8FDF738FEC1
:10244000D43535353535353535353535373535359B
:10245000353535353561353737616161D437D2353A
:10246000D435183718353579E63735353735E60040
:10247000002308930426029327E0012213002A3840
:10248000C0B2834067490B42AED1E22118008905F2
:1024900008400B4235D11900114002911342A3D0DC
:1024A000089013E0079B013B07930023C1E700223C
:1024B000069B08925B7802926C2B07D10426069B40
:1024C00001961B786C2B01D1B6190196013CA0191D
:1024D0003100FDF70BFE70430400002F3BD0019B41
:1024E000039ADB1B1B18934200D93DE7089B002B86
:1024F00041D1019B042B20D108CD03600423043477
:1025000015E0072107358D4364188C430CCD002F4F
:1025100008D00131C91B03980919814200D923E76A
:10252000226063600023082602933300083401937D
:102530005AE7029B089300239CE7019B082B01D0DC
:10254000162012E7072307359D430CCD0260436038
:1025500008230834EBE7089B002B0CD1019B042BCC
:1025600001D10435CAE7019B082BE9D10735013BAE
:102570009D430835ECE7069B023306930D9B013B18
:102580000D9308CD059305E70B9B9B0722D50121F1
:10259000E21B9308802080008242D1D2049A0F2A45
:1025A000CED8002F1CD00498DBB20EAA13549C4640
:1025B000079B12AA1354002900D10FE7802263461B
:1025C000524213430EAA1354099B01330993049BEF
:1025D00001330493069B0434013B07E70021D9E74C
:1025E000002903D0039B01330393F0E7039B0233DD
:1025F00003930A9B002BEAD1059804F009FC039B86
:102600001B18F1E78022E31BD200934298D2002FDF
:102610000AD103980838C01817B0F0BD74D4000070
:1026200040E70000DAFF00009B08302238603B7072
:102630006B469B180A9A1B78002A0BD0FB70099BEB
:10264000BB70002B1BD100250EAE049BAB421BD1EF
:10265000E01BE1E77B70F2E70EADED560EA9595C89
:10266000002D07DA039E15190140B54200D97BE61B
:1026700021700134013304999942EDD1E3E701223D
:1026800000237F20D21BF6E7099B002B02D0337872
:102690007F2B1BD80A9B002B1BD012ABEB5C23704B
:1026A0000023013401930123019ADB1B1B199B18A2
:1026B000039A934200D957E63378019A2370013484
:1026C0002000059904F0A4FA019B1C19013501367C
:1026D000BBE733789B00FB181A6805920A9A0598A5
:1026E0001A6004F095FB431CDCE70E203DE6C04673
:1026F000F0B59BB000AF3B628023FB181B6806005F
:102700001B07DB0F7B618378F9623A63BB630029A7
:102710000AD10478BB6BA400E41845780419FB6A5D
:102720009D421BD8A31BFB62F378BB61BB6B002BE4
:1027300004D08023FB181B68DB0719D4BB69002B6E
:1027400047D13B6B002B03D030003A6AF96A9847B7
:10275000FB6AFB63BD46F86B1BB0F0BD0134200083
:1027600004F056FBFB6A013001332418FB62D6E704
:102770003378FB619B007B627368BB627B6AF518F0
:102780003B6B002B00D029E1FB6AFB63BB6BEC18B1
:102790000023BB63A54232D02B789B00985904F0EC
:1027A00037FB84217B181B680130002B0CD088225A
:1027B000BA18BB6B1268934206D27A1812685B0093
:1027C0009852BB6B0133BB63FB6B01351B18FB637A
:1027D000E0E78023FB181B689B07B2D53378FB61C9
:1027E0009B007B627368BB627B6AF5183B6B002BB6
:1027F00077D1FB6AFB63BB6BEC183B6BBB6380223E
:102800000523BA181268250013405A425341013378
:10281000FB62BB695B00E3183B633B6BAB4299D047
:102820002B787B636B789B009C59B84B9C4202D3FE
:10283000B74B9C4223D37B69002B33D0796BB86AAA
:1028400009F027FE00282DD06C468AB06A46B14BAD
:102850005361BB6A93617B6BD36180239B001384BC
:10286000AD4B136192210023AC481032890101F075
:10287000A1F8A546FB6B023BFB630235CDE77B6904
:10288000002B05D0796BB86A09F003FE0028DBD174
:1028900080230122FB181B68134209D1FB6BFA6AE3
:1028A0009B1AE9E780230222FB181B681342E4D03D
:1028B000200004F0ADFA84217B181B68002B0DD09A
:1028C0008822BA18BB6B1268934207D2791809683C
:1028D0005B00421C5A52BB6B0133BB63FB6B1B1882
:1028E000CAE7BB6B1C1E7B6315D0802104237A18BA
:1028F00012681A4014007A637A1812681A420AD0D1
:102900000023BC6B7B63183340229B182900BA6BF1
:10291000D81904F07DF9BB6BEB18FB60FB63BB6956
:102920005B003B613A69FB68944663447B60FB6BE8
:102930007A68934257D17B6B757800215A198023AE
:10294000FB181B68D2B29B0700D46108802038189E
:1029500000680023C00705D48033FB181B685B07A1
:10296000DB1723407270B370F17030003A6A796AF5
:102970003B6B9847F863002800DAEBE6FB694020E0
:102980003370BB6B2100B370BB693A6AF3701823D4
:102990001B18D81975703B6B9847041E00DAB1E01C
:1029A000FB6ABA6BF868991A7B6A3A6AC91A3B697A
:1029B0009C46C91A60443B6B9847002800DAA3E0A4
:1029C0000025FB6B1C192318FB637B6B9D4261D3B5
:1029D00000213A6A08003B6B9847BBE6BB6B0024BA
:1029E0007B63082390E7FB6B484A1B78BB60FB6B5B
:1029F0005D78AB009B59934202D3454A93420CD376
:102A00007B69002B30D0B968B86A09F042FD002814
:102A10002AD0FB6B0233FB6389E77B69002B05D06F
:102A2000B968B86A09F035FD0028F2D18023012287
:102A3000FB181B6813420AD07B6B9B18073240219E
:102A40005218796BD219DBB255547B63E1E78023CE
:102A5000FB181B685B07DCD5182240215218631C49
:102A6000D2191555DCB2D4E780230222FB181B686B
:102A7000134203D07B6B06320133E0E7402118227A
:102A80005218B968631CD2191155DBB20234E4B292
:102A9000D554BEE7402208239B18DB19EB5C0732B4
:102AA000BA18137084229B009B59BB63BB181C6827
:102AB000002C09D08823FB181B6800249D4203D2F8
:102AC000BA1812686B00D45A47230121F8183A6AE1
:102AD0003B6B9847002817DBFB6B1B18FB63002C34
:102AE00004D1B86B04F094F9013084B221003A6A41
:102AF000B86B3B6B9847002806DBFB6B01351B1856
:102B0000FB6362E7F86325E6F86323E674D400000C
:102B100040E70000B2E100000400000104D700001B
:102B2000014B18607047C0469806002030B500255C
:102B300087B00390049104000095064803A9059509
:102B400000F070F80598049B984200DA255407B00D
:102B500030BDC046E1C40000F0B5030002680424A3
:102B600000200A26054D11786F5C274201D11A60BA
:102B7000F0BD7043303801324018F4E7C1D900008D
:102B8000F0B585B001900393D3781500244A0F0067
:102B9000D15C03221140082402916F2B0AD004D883
:102BA0002419582B06D0063C04E008221024934335
:102BB000702BF8D10A9E2200002339000198FDF7FE
:102BC000ADFB013E13008C46D2B2092B19D830322E
:102BD000D3B233700023BB4202D1019B9C4202D886
:102BE000039B9E420AD82B789B0604D5082C10D153
:102BF000AB782343AB70300005B0F0BD6746019061
:102C0000D9E7130002995733DBB20129E1D13732FA
:102C1000DEE7102CEFD1AB781C43AC70EBE7C0467D
:102C2000C1D90000F0B51C0000279BB004900591AD
:102C30000792079B1878002801D1380031E3252836
:102C40000CD00599049B9847002800DA29E3079BDC
:102C5000013701330893089B0793EAE714AD182264
:102C60000021280004F01CF8079B5B78252B00D17D
:102C700098E00022012510009446079B03925E1CF9
:102C8000069233782B2B00D1A8E000D99FE0202BAF
:102C900000D1A6E0232B00D1A5E0002A05D014AD79
:102CA0002A7A110040220A432A72039A002A04D089
:102CB000202214A90D7A2A430A72002804D0102277
:102CC00014A9087A02430A726246002A04D0082234
:102CD00014A9087A02430A72069A002A04D0042230
:102CE00014A9087A02430A72442014A90A7A1040EF
:102CF000442802D1402082430A72802214AD297AEE
:102D000052420A430D962A722A2B70D16A7A293BC5
:102D100013436B72731C1978022608002E38424246
:102D2000504114AD6A7A4000B24302436A722E29C0
:102D300009D15A1C0D925A782A2A67D1697A263A03
:102D40000A436A729B19197814AA6C2900D186E08B
:102D50006AD8682971D06A2900D18CE04C2900D149
:102D600093E0197814AA01330893D172537A782921
:102D700000D901E16D2900D98EE0692900D9FBE075
:102D8000572900D9A3E0412903D04539022900D9A8
:102D9000F2E0072314A98A7A9A43033B13438B7208
:102DA0000123B1E0EB72079B0233089314AB5A7A0C
:102DB000D10700D4E5E002CC0391002900DBE5E077
:102DC0000421187A01431972039B5B42DDE02D2B2D
:102DD0000BD0302B00D060E72A0000E0AC46013673
:102DE0004FE72800FBE70395F9E70695F7E70DA8FD
:102DF000FFF7B2FE0D9BB3428DD002212A7AE86024
:102E0000C00F40008A4302432A7284E70DA8FFF7EF
:102E1000A3FE2B7A28619A071043C00F4000B343EA
:102E200003432B720D9B8EE7742929D07A2998D100
:102E30007821507A884348390DE0587878216828FD
:102E400006D1507A8843703901435172023388E7C2
:102E5000507A8843102101435172013381E7587839
:102E600078216C2803D1507A88435839ECE7507A9E
:102E700088431821EFE77821507A88435039EAE7F0
:102E80007821507A88434039E5E71089B8490840ED
:102E9000B84901431181E0E7012005006E39C9B24C
:102EA0008D402900B44D29423DD1242529425AD1D3
:102EB000014261D00721907A88430439014391721D
:102EC00078221340403B5A425341DBB21CE00120C0
:102ED0000D000600583DEDB2AE403500E226360248
:102EE000354200D055E7A54E35422AD184218902CA
:102EF0000D4241D00725917AA9430143917278216F
:102F00000B40402B0BD0002314AA117A8807C00F66
:102F1000034302205B0081431943117246E7137A91
:102F200003431372EFE70721957A8D43053929434F
:102F3000917278210B40402BE5D1137A184310721F
:102F4000E1E70725967AAE43053D3543957278252E
:102F50002B40402B02D1157A284310726329D2D11D
:102F60005A1E9341B1E70721907A884304390143FF
:102F7000917278221340F3E7012314AA117A0B43CC
:102F8000CFE7197A7F290FD9DB68039314AB510778
:102F90000CD504CC0692002A0CDA02215A7A8A4314
:102FA0005A7201235B4204E001230EE79207F8D531
:102FB0001B690693002514A98B7A4A7A5B0752068F
:102FC0005B0F120FCD600D61012B2ED1D01E042896
:102FD00004D8FDF777F80E43430E0E002368D81788
:102FE00014934860012A09D15BB21493DB174B603C
:102FF00006E008CC1493DB174B6002E0022A12D0E3
:10300000043414A90B7A03201D000540034243D069
:10301000089B079A0599049809F096FA002800DAA7
:103020003FE13F1817E61BB2DFE7022B25D1D01E88
:10303000042804D8FDF746F80D121219190008CC1F
:10304000012A16D014934D609BB2022AD9D1149351
:10305000D7E708CC149300231593D2E7072307344E
:103060009C4303CC14901591CBE708CC1493002318
:10307000C2E7DBB214934D60C3E7042B08D10734D9
:1030800003339C4320686168083414901591B8E7B5
:10309000032BB6D108CCDAE7C87A782800D9DAE56C
:1030A00062282CD8252846D0582800D0D3E514987B
:1030B000159926230AAA9B18009316AA0EABFFF7B0
:1030C0005FFD069B0600002B0DDB262340200AAA8D
:1030D0009B1814AA117A9B1B81431172069999427D
:1030E00001D9CB1A1793002E00D1B4E526220AABE2
:1030F000D218931B0692002D65D0013363E063382C
:10310000152800D9A7E5FCF7E7FF89009300A6FD85
:10311000A6FDA6FDA6FD9300A6FDA6FDA6FDA6FDA7
:10312000A700A5003B00A6FDA6FD1E00A6FDA5006C
:10313000A6FDA6FDA5000599049B9847002800DA86
:10314000AFE0013787E5069B149E002B0CDB1900CE
:10315000300003F08BFE002E00D17CE5331806937F
:10316000069B00259B1B2EE0300003F051FEF5E787
:10317000FD87FFFF024000008204000001080000FC
:10318000149814AD00287CD026230AAA9B1800931B
:1031900016AA0EAB0021FFF7F3FCEF236A890600A5
:1031A0001A406C4B13436B810025069BAB428CDAB3
:1031B000A84200D14FE526230AAA9B1826220AA975
:1031C00052181B1A069214AA927A10211000084075
:1031D0000B900A425BD0023317990A91CB18520622
:1031E00001D5189A9B18039A002A00DC6AE0D31ACA
:1031F000039314AB1B7A5A07D10F0791002A61DBA6
:103200005B0650D5002D07D028000599049B9847F0
:10321000002846DB079D0137302345E01123149A2F
:103220000EAE32700AAA9B18069300250123CAE746
:103230002B251A0702D4DB06DB0F5D01149A159BC0
:10324000002B00DB33E70021504299412D251490DB
:1032500015912CE700252AE7149B072A00D9FAE4E8
:103260001000FCF72FFF0C04060C08080C0C1F7054
:10327000F1E41F80EFE4FA171F605A60EBE41F606F
:10328000E9E4354B05000693344E05239BE711070F
:10329000C90F5B18A0E705990998049B9847002877
:1032A00005DA1BB0F0BD20230993039B0793079B0E
:1032B0001A00013A0792002BEDDC039AD719FF1A86
:1032C000079B0393002D06D028000599049B98477F
:1032D0000028E6DB013714AB9B7ADA0601D41B0722
:1032E00006D530200599049B98470028D9DB013783
:1032F0000B9B002B07D014ABD87A0599049B9847F9
:103300000028CEDB01373D0006E030200599049B04
:1033100098470028C5DB01350A9BDB195B1B002B96
:10332000F3DC3200069B0599049809F00DF900289A
:10333000B7DB47193D00039B5B19DB1B002B00DC4F
:1033400089E420200599049B98470028A9DB0137D0
:10335000F1E7C046107800006BE2000066E2000072
:1033600010B52E4B2E4A196A114042220A431A62A6
:10337000DA681207FCD500212A4A91605178C90900
:10338000FCD18321490251605178C909FCD16F31C8
:10339000FF319982D9688907FCD50221FF319160FC
:1033A0005178C909FCD1204951605178C909FCD133
:1033B0008221C90151809121890099841B481C49AF
:1033C000006809688005890E8902800D01439962B1
:1033D0001849D962D968C906FCD50221988C0143E5
:1033E0009984D9680906FCD5D9684906F9D51E2102
:1033F000114C606888431A3901436160802149009B
:1034000091605178C909FCD10C4951605178C909C2
:10341000FCD11A6A02318A431A6210BD00080040CA
:103420000000FFCF000C0040010521002860800053
:1034300024608000B805FF7D0040004100070100C6
:10344000F7B505000600002D01D13000FEBD2800B3
:10345000FCF744FF01238340DA430E4F04019D43F0
:103460003B1901931B7B0092002BECD0E3591B69A5
:10347000002B09D1009B3C191E4063680422196887
:10348000019809F057FBDEE7381998470028DAD190
:10349000F0E7C0465CD70000F0B5002289B00F49C4
:1034A0000F4809F08FFF0024002600270E20C022BD
:1034B0000C4D03900696079728000B4B0B4904947C
:1034C000029401940094920002F0A2FA08492800A4
:1034D00009F09AFE200009B0F0BDC046F5340000A6
:1034E000A80D002030090020F9370000A8120020A4
:1034F0006CE2000010B5024802F00CF910BDC046A5
:10350000B8080020F7B500901F48019109F0F1FAC2
:10351000061E35D000252800FEBD237B002B11D0D0
:103520002368DB68002B01D02000984763689F71F7
:1035300023681B69002B1BD16368042220001968D3
:1035400009F0F8FA01361034104B9C42E5D3009B89
:10355000002BE0D0002DDDD02800FFF771FF019B8C
:103560000500002BF6D00021642002F0EBFCF1E70F
:10357000200098470028DFD03B00B3401D43E1E71F
:1035800005000127024CDFE7F40F00206CD7000094
:103590005CD70000014B8000C058704774D8000011
:1035A000030010B50800002B05D0044A136000F09A
:1035B000ADFC002010BD16204042FBE79C06002019
:1035C00010B5054C2378002B02D1044802F0A2F874
:1035D0000123237010BDC0469C120020B8080020B3
:1035E00010B50400074809F084FA002C03D001212B
:1035F000054809F019FF054809F0F0FE044802F0FB
:1036000089F810BDEC0F0020F00F0020A80D00205D
:10361000B808002010B50021014809F012FF10BDC4
:10362000EC0F002070B5FFF7F5FF0500084C094BC3
:103630009C4200D370BD63685B79002B06D0236881
:103640005B68002B02D02900200098471034EEE779
:103650005CD700006CD7000010B5044C0449200072
:1036600009F087F8034B1C6010BDC04640080020DD
:1036700060D80000E40F00200023FA210C4A10B5A6
:1036800013700C4A890013600B4A0C481360FFF753
:1036900087FFFFF7E1FF0A4B0A4918008B4200D36E
:1036A00010BD1A1A5C681211013222711033F5E74D
:1036B0009D120020EC0F0020F00F0020FDCA00003A
:1036C0005CD700006CD7000010B5044C010000224C
:1036D0000023200009F06EF810BDC046400800200D
:1036E00010B5024809F000F910BDC046400800209E
:1036F00010B5034B0100186809F047F910BDC0462A
:10370000E40F002010B5024809F078F910BDC0465A
:103710004008002070B5204B1878002826D0FFF70D
:10372000DFFF1E4C051E2CD11D4B1E4C1B68002BB1
:1037300011DD09F043FE0A220023FCF7EFFD2268A9
:103740006368801A9941002903D1FA239B009842AB
:1037500001D9FFF767FF22686368FA200021800023
:1037600012184B4122606360FFF7CCFF70BD6368A5
:103770005B79002B04D02368290020001B68984740
:103780001034094B9C42F2D32800FFF7B1FF01210E
:10379000064809F049FEC7E79C1200205CD70000EC
:1037A000EC0F0020A00D00206CD70000F00F0020CF
:1037B00070B50E4D297800290CD10120FFF7A2FE2B
:1037C0000B4C0C4B9C4206D3FFF7A4FF0028FBD107
:1037D00001232B7070BD63685B79002B03D02368D5
:1037E00020009B6898471034EBE7C0469D120020EC
:1037F0005CD700006CD70000F7B500210800FFF788
:1038000081FE041E2BD0FA2700267F0002F0E0FB89
:103810001B4B1860002806D01A4B1B68092B02DDD1
:10382000194801F077FF00230093002C07D02000F7
:10383000FFF706FE041E02D101277F423E00FFF77C
:1038400069FF0190002808D1009B104D002B13D177
:103850000D483A00330001F08FFF019BE4E7012798
:103860007F423E00D2E72B689B69002B03D00022E9
:103870002800110098471035054B9D42F3D3E7E728
:10388000E80F0020F00F0020B80800205CD70000EF
:103890006CD7000013B5154809F02BF9144B1B78B1
:1038A000002B0AD0EFF3108472B6FFF733FF002C21
:1038B00002D162B6BFF36F8F13BD0E4B1B68002B96
:1038C000FAD0002809D1002200230B48009201936E
:1038D00000230A4A02F090FEEEE70928ECD10648E0
:1038E00009F07CFD064801F015FFE5E7F00F002028
:1038F0009D120020E80F0020A80D002010270000D6
:10390000B808002010B5064B04001B68984721003A
:10391000A060044808F0CCFFFFF7BCFF10BDC04614
:103920009C06002040080020044B054A00209B1AFA
:10393000DB08994201D2C900885870475CD7000063
:1039400004D70000F0B55E1C85B0B50000902800DB
:10395000072317309843033080080F000192FFF7C8
:10396000B3FE02AB04000322581D002103F098F9B6
:1039700003AB1E70002C0BD0039B2100236100239E
:1039800014312A1F0198C058C85004339A42F9D103
:10399000E023BA015B001A406D02054B2A431A402E
:1039A00020000023009909F0E9F805B0F0BDC046F9
:1039B000C0FF0F00F0B591B004AF3B600B035B0D8F
:1039C0000D0078607A613B610C0D002B00D173E033
:1039D000BB60002604237E62BE62FE62029318333F
:1039E000FB1801930A231822009302339B18DB195A
:1039F0003200B9687869FEF77BFE8023F8601B010E
:103A0000984224D37B696C461A795B798AB01B0291
:103A100013437A69927912041A437B69DB791B0696
:103A2000134304AA9361294B2949D36180239B0046
:103A30001384284B516113619221330026481032C0
:103A40008901FFF7B7FFA546BD460DB0F0BDFB6885
:103A500017345B055A0D3A61204A1B0B15401D4374
:103A6000FB68E0180723984303308008FFF72CFE1B
:103A7000041E15D0030010337B62FB68FE62BB623C
:103A8000042302931833FB1801930A23182100938F
:103A900002335B18124AB9687869DB19FEF728FE11
:103AA0003B690E4A5B0215401D432A0020003B681B
:103AB000796809F063F8C7E72000072317309843B7
:103AC00003308008FFF700FE0400E9E7FF0700006D
:103AD00081E20000040000011CD70000FF01F0FF9C
:103AE0004BCB0000F0B587B00E9F0400150002918B
:103AF0000393002F15D00F9B1021059300930020F6
:103B00003B000D9AFEF718FC802306001B0198422B
:103B100008D30221174A1848184B09F04FF807B08C
:103B2000F0BD3E00072322000C9C1D401A40D2002D
:103B30001734AD011543A0197202154398430C9A2E
:103B40000330120580081543FFF7BEFD041E09D09F
:103B5000002F07D00F9B310000930D9A3B001030CF
:103B6000FEF7EAFB2A002000039B029909F006F801
:103B7000D5E7C046C0E200001CD70000FF070000E8
:103B80004068002804D0044BC01AC00800B2704737
:103B900001204042FBE7C04604D700000EB417B531
:103BA000054C05AB04CB01002000019309F029F876
:103BB0001EBC08BC03B018470FCC000010B5CB06E4
:103BC00004D4890603D50349FFF7E8FF10BD024975
:103BD000FAE7C046F9E20000F8E20000F0B591B063
:103BE000079317AB1F7804000D000692002F00D139
:103BF000B7E002261B9B1B9A1E4001231A400C9221
:103C00001B9A07331A4008921B9AF8331A400992FC
:103C100008F08EFF002302000593984204D0200094
:103C20008F49FFF7BBFF0590002E0BD044231B9A52
:103C30001A4238D12A0020008A49FFF7AFFF059BBE
:103C40001B1805930C9B002B09D0874BBA00D25848
:103C5000002A00D1854A20008549FFF79FFF099B74
:103C6000002B5CD0089B002B78D11D00069B002BFD
:103C700005D01A0020007F49FFF790FF0500059B43
:103C80007D48EB180593189B002B00D0C0E01A9BD1
:103C9000002B74D11B9BDB0700D5DBE020001B99B8
:103CA000FFF78CFFBFE00020744B1E688642C6D031
:103CB000734B28001968FCF719FAFA253100FCF754
:103CC00051FAAD0069430A9008003100FCF74AFA46
:103CD0000E91E1210D9009010A98FCF743FA0B912E
:103CE0000B983C21FCF702FAE1210F9009010A9898
:103CF000FCF7FCF90A900E9831006843FCF7F6F9DE
:103D00000D9B02903C210B980193FCF72BFA2000AD
:103D100000910F9B0A9A5B49FFF740FF8FE7089BD2
:103D2000099D002B07D0584BBA0020005749D258A4
:103D3000FFF734FF0500069B002B05D01A0020007A
:103D40004C49FFF72BFF2D18079B002B97D01A002B
:103D500020004F49FFF722FF2D1890E7002307931B
:103D6000E1E7079B4B48012B00D14348189B05977F
:103D7000002B4DD11A9B002B55D0002305931A9E82
:103D8000102E00D9102620001B99FFF717FF0025E1
:103D9000059BAB424CDC199B20001A783E49FFF78B
:103DA000FDFE012507231D4203D120003B49FFF7FB
:103DB000F5FEAE4242D9199B20005A5D3649FFF705
:103DC000EDFE0135102DEDD1002520003449FFF71F
:103DD000E5FE2B006821199AD25C324B9B5C8B4329
:103DE00000D12E2220003049FFF7D8FE0135102DDA
:103DF00029D007231D4203D120002849FFF7CEFE1A
:103E00002B00AE42E6D820002449FFF7C7FEEDE7BD
:103E1000189B2200254908F008FB1A9B002BAED105
:103E2000002F00D036E7200008F0DFFE11B0F0BD13
:103E300020001A49FFF7B2FE0135A9E720001C490E
:103E4000FFF7ACFEBDE7199B9B1919931A9B9B1BAF
:103E50001A93E3E72000054A0549FFF79FFE1DE797
:103E600000E3000004E3000084D80000FBE200004F
:103E7000AFE1000029E300000FCC0000FC0F0020A0
:103E8000F80F00200DE3000098D800002DE300009B
:103E900033E3000035CC000038E3000040E30000CD
:103EA00042E30000C1D9000044E3000003CC00005D
:103EB0003EE3000073B5114A04000B00056891420F
:103EC00000D91300052168460D4A08F028FB0600BA
:103ED000636828000B220B495B6808F077FE636873
:103EE0003200280069465B6808F070FE63682800AD
:103EF0001B2205495B6808F069FE73BD0F270000AF
:103F00007BE4000063E3000047E30000012310B5F9
:103F100000211C00074A904207D8074A002900D117
:103F200001231360054B186010BD210040085B00A1
:103F3000F1E7C04640420F00F80F0020FC0F0020C0
:103F400070B50D0004004618B44201D1280070BDC0
:103F500021780348013483685B689847F4E7C046DA
:103F600054D5000010B5034A03480021121A08F086
:103F7000DAFE10BDA4120020300900200648074ACE
:103F800010B5121A064908F0D2FE064A064807493B
:103F9000121A08F0CCFE10BD0000002029090020F4
:103FA00040E70000000000200000002040E7000083
:103FB000F0B585B000AF0C1EB86036D06E468AB042
:103FC0006D4609686268A3682B6205232048A961D1
:103FD0006861EA612B61A1212A001E48103200238A
:103FE00089017A60F860FFF7E5FCB546E168AD4607
:103FF000226963692B6205231748A9616861EA6138
:104000002B61A12100237A68F8688901FFF7D2FCAF
:10401000B546E3690121114AF86808F0CFFDA369AC
:1040200001210F4AF86808F0C9FDBB68012B07D1D0
:10403000EFF305830B4A0748B968103B08F0BEFD53
:104040002100B86801F02EF9BD4605B0F0BDC046AC
:10405000D0E3000034D70000FFE300002EE40000AE
:104060003DE400006BE4000030BFFDE7054B5A69FA
:104070009B689A4205D08023034A5B0551680B4335
:10408000536070473012002000ED00E0F0B53E4B69
:104090008BB05B6800AF7B60DB05DB0D04003B6031
:1040A00062B6BFF36F8F394E130EFF2B08D1F33B6F
:1040B0001340082B3DD101213000354A08F077FD2F
:1040C00000252C003B68032B39D1324A01213000F6
:1040D00008F06DFDA369304A934202D32F4A934200
:1040E00005D32F4A934249D32E4A934246D2023BEC
:1040F0001A882D4B9A4241D12368012130002B4A66
:1041000008F05CFD266808232022F818210002F040
:104110007FFD7B6A002D33D0DA0502D1244A134398
:104120007B6208233000F918FFF742FFBD460BB051
:10413000F0BD01251207C5D50C000025C2E7F82205
:10414000796852001B4B114200D01B4B6A468AB063
:104150007A606A4693613B681849103BD3618023BB
:104160009B001384164B5161136191210023300091
:1041700010328901FFF71EFC7B689D460026C2E7CE
:104180005B0A5B02CCE7C04600ED00E034D70000DC
:10419000ACE40000D7E40000B00000006CD40000E4
:1041A000000000200000002002DF0000EEE400001C
:1041B000FF0100007EE4000093E400000AE5000037
:1041C000040000010821024A53698B435361704780
:1041D00000ED00E0EFF30880EFF3098101B57246CE
:1041E000FFF754FF01BDC0460A4880F30888FFF777
:1041F000B7F872B608480949401880F30988EFF308
:1042000014800221084380F31488BFF36F8F08F0F5
:10421000A4FD0000A8270020A81500200008000029
:1042200010B50A4B9B6883420DD1EFF30583002B39
:1042300009D08022064B520559680A435A605A6ACF
:1042400004490A405A6201F0C9FE10BD3012002034
:1042500000ED00E0FF7FFFFF13498A681348104418
:10426000EFF3098CF0C043464C4655465E46674620
:10427000F8C072B60E4F0F4E4A698A603E60906E6B
:1042800000239366002800D162B6084C1019103044
:10429000F8C89846A146AA46B346BC462438F0C89A
:1042A0008CF30988704700003012002030000000B5
:1042B00004ED00E00000000804207146014202D035
:1042C000EFF3098001D1EFF30880816902390978A1
:1042D0000229FFD001B5724608F02DFD01BDC04690
:1042E00043B2000605D41F221A4001239340014A1D
:1042F0001360704700E100E030B5FF2503220B009A
:10430000290040B20240D20091409B012B40C9439A
:10431000934000280ADBC0240A4A800880008018E5
:10432000A40002590A401343035130BD0F2210402C
:104330000838054A800880008018C2691140194376
:10434000C161F2E700E100E000ED00E0FF22044B74
:104350009343044A9360BFF34F8FBFF36F8F70474F
:104360000000000000ED00E010B5203A1360029B51
:1043700001245360039B06499360049BA143D360CF
:1043800080235B04D361002391610265836610BDC5
:1043900035C500000A4B70B50E00150098602C1C46
:1043A00086F309880020044B9847201C0021002236
:1043B0000023024C2047000077CD000035C50000E7
:1043C000301200201022014B1A61704700ED00E00E
:1043D000F0B5C02400220326FF25A40010002F0002
:1043E0003040C0008740054993089B005B1819596D
:1043F0000132B94319511C2AF0D1F0BD00E100E0AF
:1044000010B5EFF30583054A103BDB00D11849686E
:1044100098588847FFF72AFE10BDC04694D5000083
:10442000014B18607047C046AC06002070B506000E
:104430000D000024AC4208DA054B1B689847305544
:1044400001340A2801D00D28F4D1200070BDC046E7
:10445000A8060020F8B506000D000024AC4201DBE0
:104460002800F8BD335D054F0A2B02D10D203B68B3
:104470009847305D3B6898470134EFE7AC06002071
:1044800010B5074C07492368C2180748091A8A4221
:1044900002D21818226010BD01204042FBE7C0463E
:1044A0002410002000800020A82F002010B5044810
:1044B00008F02AF862B6BFF36F8F0423181C02DFDE
:1044C0001DE50000024A5378DB09FCD17047C04665
:1044D00000180040F8B500250F4A066913699CB220
:1044E000DBB21461AB4201D1240A08350127002C4C
:1044F00000D1F8BD3C420CD0380073191A7E530627
:104500009B0FDB00D206F318D20E904059681A6850
:10451000904764080135EAE700180040402310B5D1
:104520000B4A042091690B4393610A4B0A4A5A8053
:1045300000221100FFF7E0FE0420FFF7D1FE022366
:10454000064A11780B431370FFF7BCFF002010BD23
:1045500000040040000C004005400000001800402E
:1045600010B5094B04009B181B7E00207F2B09D936
:104570005A06920F944205D1D806C00E401A434203
:104580005841C0B210BDC04628100020F0B585B01B
:1045900003933D4B029242019B185D5CFF2D00D1BD
:1045A0006FE0EFF31083019372B60222374C237849
:1045B00093432370364B5B191B7E7F2B16D95A060B
:1045C000920F824203D1DB06DB0E8B420ED0022318
:1045D000227813432370FFF775FF019B002B02D154
:1045E00062B6BFF36F8F1020404240E0284B0A9E16
:1045F000C700FE500B9EDF197E601F2603270E406A
:1046000080213840494231430722400108435B1969
:1046100018760F202A40920090401C4BE910890028
:10462000C9188B698343029804280CD8FBF74AFD0C
:1046300003070921230001209040034303E00220E7
:10464000FAE797403B430398002802D008209040A7
:1046500003438B610223227813432370FFF732FF59
:104660000123AB402361019B002B06D0002005B045
:10467000F0BD0420E0E70520DEE762B6BFF36F8FF0
:10468000F4E78620B0E7C04633E50000001800409C
:1046900028100020F7B51F4B42019B185C5C0E00F0
:1046A0000190FF2C33D0EFF3108772B602221A4D1F
:1046B0002B7893432B70FFF705FF22003100019800
:1046C000FFF74EFF002814D07F200122134BA24099
:1046D0001B19197E014078381976E3100440A400B4
:1046E0000830A0409B005B19996981439961AA60D9
:1046F0002A6102232A7813432B70FFF7E3FE002F71
:1047000001D00020FEBD62B6BFF36F8FF9E78620AF
:104710004042F7E733E50000001800402810002071
:104720000B4B42019B1810B55C5CFF2C0BD0220098
:10473000FFF716FF002809D00123A3400020054AF7
:104740001361D36010BD86204042FBE71020FBE7D9
:1047500033E50000001800400B4B42019B1810B5D8
:104760005C5CFF2C0BD02200FFF7FAFE002809D07A
:104770000123A3400020054A9360136110BD8620E9
:104780004042FBE71020FBE733E500000018004043
:10479000F7B50F4B01901D69002318000D4E0E4F09
:1047A000F25C7F2A10D9FA18127E01995406A40FE0
:1047B0008C4209D12C000121DC400C4204D00C00B9
:1047C000D206D20E944020430133102BE8D1FEBD17
:1047D000001800404010002028100020F8B5264F97
:1047E000BB8B3D8C9BB2ADB2BB831B0707D513229D
:1047F000224B00215A72224B01205B68984700240B
:10480000002D00D1F8BD01231D4231D01D4A6301A6
:104810009B181E7AF6B21E7210231E4208D0220088
:10482000194B403292009B18002120005B6898478A
:1048300001231E4208D02200134B403292009B18E5
:10484000012120005B68984702210E4210D023000E
:1048500048338B4080200C4E2043F3185B68984708
:10486000A2235B00F25C002A02D0BA720022F2544A
:104870000134E4B26D08C3E700500041005100412B
:104880004C110020FF5000415010002010B5084886
:1048900008F071FC002808D0064C2000FFF7C0FD8E
:1048A0002000FEF73DF9002010BD13204042FBE739
:1048B00054D50000B948000070B50400074D0A281F
:1048C00004D1AB680D2128005B689847AB682800CD
:1048D0005B68E1B29847200070BDC04654D5000027
:1048E000F0B585B0170002938023466802697568A9
:1048F0000C0069184031097850603548C9B2384019
:10490000DB0398421FD080239B039F4202D01620D6
:10491000404216E0012399430391307A2100FFF7CA
:104920001BFF03001022103393430AD12100307A79
:10493000FFF7B0FE002804D16B462D191B7B4035D4
:104940002B7005B0F0BD880740D528680123E040F2
:1049500018423BD1180008436108691803903031B0
:104960000F201C4228D00B78184008708021029B31
:10497000C9048B4224D0C021C9048B4224D0802199
:1049800089048B42C3D180230121DB039F4200D1E4
:10499000033193680120E3400340307A01920D4ACD
:1049A00000920A002100FFF7F1FD0028C9D1210083
:1049B000307AFFF7B5FEBDE70B7883431800D4E7E4
:1049C00080230021DB03E1E70221E2E786209FE765
:1049D000FFFFFFFE25CF000010B50468080723681D
:1049E000174A400F01381340032826D8FBF76AFB0B
:1049F000020D131C2360200008F0ADFAE82320000C
:104A0000E36008F0A8FA002010BD2360200008F041
:104A1000A2FA3423F3E790225204134323602000C8
:104A200008F099FA074BEAE78822920413432360BF
:104A3000200008F090FA044BE1E786204042E3E7CB
:104A4000FFFFCFFC0B16000030300408F0B5002546
:104A500085B000AF0E00B8607A603B60AA4200D11A
:104A600087E0436804691D6801225242D317200081
:104A700000F082FE23007A6830331A70FB603B68D6
:104A80005B007B6001237A6813433B60FB68E6624E
:104A90001B78002B01D11D0068E07368002B04D146
:104AA0000122337A134200D071E083232B752B76D9
:104AB000384B28006B8308F04EFAE36A01211A682C
:104AC00022625A6862620022A2621A7A7B680A42F3
:104AD00007D06B68304A280013406B6008F03BFA3F
:104AE0003B68E26A127A120702D58022120213434F
:104AF000EFF3108672B66B62280008F02CFA802360
:104B00000122AB75E36A1B7A134236D00223AA75E1
:104B1000AB75002E02D162B6BFF36F8F2000002369
:104B20001E4A103000F028FE00281DD1A16A00297D
:104B300025D002220B000B251340114215D1BA6873
:104B40006D468AB010686A46D16180218900144E92
:104B500011841449566190611161912112481032FB
:104B60008901FEF727FFAD4605256D42200000F0C4
:104B7000D1FD2800BD4605B0F0BD0123C8E7FB68A4
:104B8000FA681B78013B1370E66A0C367EE716253F
:104B9000EBE7C04643040000FFFFFBFF8813000063
:104BA000CDE500000400000114D70000F0B5466810
:104BB0000369F26885B031690193136835680B4366
:104BC0001360F0223F21736912011B021340328BE4
:104BD00007000A4013438022D20113432E4A0021CA
:104BE000538083232B75706803AA08F0E6F9041E2E
:104BF00049DB039B00221979186800F00FF9041EA5
:104C000041DB264B28002B6008F0A5F980235B00D0
:104C10006B60280008F09FF9B368214A062193428F
:104C20000ED033D81F4A0439934209D01E4A0231AC
:104C3000934205D001211D4A1D4807F0B8FF00210D
:104C40007868FFF7C9FE041E1DD1012201981100EA
:104C500008F0BBFA019801222100103008F0B5FAE3
:104C60003800F369984702232A68280013432B6011
:104C700008F071F930236A8B28009A43203B1343D4
:104C80006B8308F068F9200005B0F0BD094A0821DF
:104C90009342D5D0084ACAE7000C004014000070C7
:104CA00040420F00A0860100801A0600EBE50000DC
:104CB00014D7000040E13300404B4C00F7B5426888
:104CC00003691268117EC9B21176056940680468EB
:104CD0005048678B3E00064007421CD10125586AA8
:104CE0000D4001282DD0002D00D06DE0890731D571
:104CF000002014002834196A24780C70196A0131D4
:104D00001962596A0139596200284DD1002921D10F
:104D1000833111756DE0638B2000AB623E4B638382
:104D200008F019F983232375237E9B0704D0C02341
:104D300062689B02134363602800103000F0EAFCB5
:104D400008E01C0030342478012C04D8002D19D13F
:104D5000890753D4F7BDDC6A0227267A247DA4464E
:104D600034003C400194674604243C40019F3C438E
:104D700067467E400640344301D18C070FD1002D99
:104D8000E6D00026186A2832007810701A6A0132BC
:104D90001A625A6A013A5A62002E05D1DAE7002DEA
:104DA0002AD102242142A4D1DA6A180011000C3160
:104DB000D9623030017801390170D1681962126905
:104DC0005A6200229A62C5E70028DBD1832111755F
:104DD000190030310978012906D9D96A087A800783
:104DE00002D4097D490704D4C021506889020143D7
:104DF000516010331800A1E70600C3E78021506816
:104E0000C90201435160C0215068890201435160C9
:104E10006EE7C0464707000043040000F0B50400F9
:104E20001F27890085B04518AC4202D1002005B08B
:104E3000F0BD0F2023680D491A0C02409200515812
:104E400030301A0D1E013A401840760F012E04D161
:104E50001B0F1B04034340201843039001A801913A
:104E60000292043407F0FCFDDEE7C0463CD90000A6
:104E7000F0B5456803692A6985B0696901931368CB
:104E80002C680B431360F0223F21AB6900901201A4
:104E90001B021340AA8B20000A4013438022D20138
:104EA00013432A4A5380BF23237508F099F8AA6850
:104EB000274B20001343236008F092F80021686A12
:104EC00003AA08F07AF800283BDB039B002219793B
:104ED0001868FFF7A3FF002833DB019A1D4B200061
:104EE0005360013BFF3B636008F07AF869681A4839
:104EF0000B0B0A050021801859410023174AFBF7C4
:104F00000DFA01267642F71702000B00B6185F4132
:104F1000002F18D112498E4215D8524292B2200069
:104F2000A28108F05DF86B68019A009813602B6A03
:104F300098470223226820001343236008F050F8AA
:104F4000380005B0F0BD22204042FAE7000C0040D6
:104F5000040000600001030000366E01006CDC02FA
:104F6000FEFF0000F0B5036985B0019343680D00B2
:104F70001C68200008F034F80222236820009343C4
:104F8000236008F02DF8EA79002A0DD1019BDA712F
:104F900021686668B304DB0F02932B79012B06D0DE
:104FA000022B07D0002B03D08620404259E0029309
:104FB0001A0001E002920122019803716B79012B22
:104FC00051D00120032BEFD1039001984371AF79A9
:104FD000042FE9D8264B120619401143877120008F
:104FE000216007F0FDFF039B07219A013B000B4066
:104FF00005330B401343029A2000520313431D4A0A
:1050000032401343360C9BB236041E43666007F0F1
:10501000E7FF2B68184A190B18050023801859411F
:105020000023164AFBF77AF901267642F7170200A9
:105030000B00B6185F41002F17D111498E4214D8CA
:10504000524292B22000A28107F0CAFF2B68019A57
:1050500020001360022322681343236007F0C0FF7F
:10506000380005B0F0BD0020AEE722209DE7C04625
:10507000FFFFFFF0B8DFFFFF00366E01006CDC02BF
:10508000FEFF000070B580251049114B8C681B682D
:105090000E6810488A686D02002C08D1002A11D1D0
:1050A0001A002E4209D100681818801A70BD002A13
:1050B0000AD02E4201D1A242F5D90468E418046056
:1050C0000968F0E71C00F4E71A00F2E710E000E0DE
:1050D0002C120020201200200A4A0020136A1B0212
:1050E0001B0A13629622084B52011A60074B084AAA
:1050F0001860084B5A600722986019680A431A60C2
:105100007047C04600ED00E02C1200202012002065
:10511000BF12000010E000E070B5FFF7B3FF0C4BCA
:105120000C4A186811680C4C401810609621002237
:1051300025681A604901401BFAF7D8FF96235B01E6
:1051400043435B19236001F04FF9FEF78FFF70BDF9
:10515000201200202812002024120020F0B5334D28
:10516000334E85B0002953D0431C08D101222B684F
:1051700093432B60FF231B06336005B0F0BD3368FB
:1051800001930027012848DCEFF31083039372B6E4
:10519000FFF778FF0022AB680293264B1C68264B72
:1051A00004191A60254B1B680093E01A90423ADB01
:1051B00096235B015F43224AC01919008018FAF751
:1051C00095FF96235B015843009B1B1B18188023F7
:1051D000DB00984200D218001A4B984200D9180000
:1051E000002330600138A9686860AB60029B0298B8
:1051F0005B1A1A19884202D2019A9B181A190D4B90
:105200001A60039B002BB8D162B6BFF36F8FB4E76F
:1052100033680193431CB4D10B480C4B984200DD1A
:105220001800471EB0E78020C000D9E710E000E07A
:105230002C1200202812002020120020241200200E
:10524000BF12000080E8FF00A60D0000A70D0000BF
:1052500070B5EFF3108572B6084A094B14681B68E5
:10526000E41AFFF70FFF0019002D02D162B6BFF359
:105270006F8F96214901FAF739FF70BD281200207F
:105280002412002010B50400FEF792FA0348012111
:10529000034A07F08CFC200007F07AFF34D70000A7
:1052A0002FE60000F0B585B005000C0000AFEFF36D
:1052B00010837B6072B62D4A9368FB602C4B0428E8
:1052C00002D82C4B8100CB586E468AB0117C6A46BE
:1052D000D361294B29489384294B50619561116210
:1052E0001361B121274B1032BB60B86800238901DC
:1052F000FEF760FBB546002C07D0E369DB0504D060
:105300000121214AB86807F052FCFB68002B07D046
:10531000180007F07CFF002802D00378002B00D192
:105320001A486E468AB06A46194BD0615361FB68D1
:105330009361114B1384174B136191210023114882
:1053400010328901FEF736FB2100B5462800FFF731
:1053500099FF7B68002B02D162B6BFF36F8FF868AC
:10536000FEF75EFFBD4605B0F0BDC046301200201E
:105370003EE6000088D900000103000054E600006A
:105380000500000134D700007CE600004CE6000078
:105390009DE6000004000001F8B501270A4E8300D5
:1053A0009D59013084003359AB4200D8F8BD68687C
:1053B000002806D0037F3B4201D107F0C3FE083529
:1053C000F1E72B689847FAE79CD90000012270B5F5
:1053D000234B032086B01A70FFF7DEFF01F046F979
:1053E0000420FFF7D9FF1F4C26001F4DAC420ED3FF
:1053F00000F0E2FCAE4220D300F0EEFCFCF71CFF14
:1054000001211A4A137B8B43137306B070BD636A84
:105410000593236A0493E3690393A3690293636981
:10542000019323690093E368A2686168206800F033
:10543000C3FA23685C653034D7E7B26AF36A511C5B
:1054400001D1591C05D011003068194303D100F077
:105450009FFD3036CEE70649183000F035FFF8E7FB
:105460009F12002074D6000074D60000500E002059
:10547000F7D2000070B570260125040046434102B2
:10548000114880220918002086B004950E35039536
:10549000053565430D4B0590029001900C48F618B8
:1054A0002D180C4B30000095920000F085FA042274
:1054B000737B2C74934373730134074BE402E41839
:1054C000EE606C6006B070BDA81D0020E00D0020ED
:1054D0003012002099D10000A8150020F0B500205E
:1054E00087B0FFF759FF204B83F308881F49204BF3
:1054F0000A6A00251A40C0231B0413430B62FEF7FF
:1055000061FEFEF75FFFFEF7B7F81A4800F0ACFA4D
:105510000120FFF741FF0220FFF73EFF00F08CFC67
:10552000154C164B80225C61154B164E05930123DA
:10553000154904931201330020000395029501954B
:10554000009500F039FA04220700637B20009343A2
:10555000637307F09AFE2800FFF78CFF32003900D2
:105560002000FEF717FFC046A81D002000ED00E058
:10557000FFFF00FF500F0020500E002030120020CF
:10558000FFE60000CD530000A81F0020F0B585B055
:1055900004001F000392EFF3108672B6C368354A09
:1055A000002B0ED080689168884217D0039B3B4344
:1055B0001AD1002E02D162B6BFF36F8F1020404285
:1055C0000AE09168897B49B20133E3609368216105
:1055D000A360002E04D0002005B0F0BD2169F3E7E0
:1055E00062B6BFF36F8FF6E70E23897BC35649B2CD
:1055F000994200DD19000A007F3201DA7F21494219
:1056000000258B4202DD07F0CEFD05001A4B22007B
:105610000293039B310002980093019700F010FB66
:105620000028D8D0EFF3108672B6A068002819D0F1
:10563000236821699C420BD0002B09D09B7B5BB275
:10564000994200DD19000B007F3301DA7F214942C6
:1056500007F0A9FD002805D03100029800F080FB7A
:105660000B20ACE7002DF7D1002EF9D162B6BFF3C5
:105670006F8FF5E730120020A0120020F8B5836884
:105680000500002B3CD0214A926893423BD1C3686D
:10569000012B03D9013BC3600020F8BDEFF3108755
:1056A00072B60169806807F07EFD2C68AC4208D1B3
:1056B0000023AB60EB609F42EED162B6BFF36F8F09
:1056C000EAE7002CF4D062682368002613605A6071
:1056D00002222000637B2660934363736660A660AA
:1056E000183007F041FE0E23AC60E35620002B611A
:1056F000E66607F0CAFD3900054800F031FBCBE74C
:1057000016204042C9E70120FBE7C04630120020C6
:10571000A012002070B5EFF3108572B60468A042A5
:105720001AD0002C18D062682368002613605A60D3
:1057300002222000637B2660934363736660A66049
:10574000183007F011FE2000E66607F09EFD2900E4
:10575000084800F005FB70BD8268C3689B1A591E9B
:105760008B419B188360002DF5D162B6BFF36F8F1C
:10577000F1E7C046A012002013B50400EFF310813A
:1057800072B68068002808D00138A060002902D1D4
:1057900062B6BFF36F8F002016BD1000184307D10B
:1057A000002902D162B6BFF36F8F10204042F3E7A9
:1057B000009201932200024800F042FAECE7C04652
:1057C000A01200200123802213B5054C054906488C
:1057D00000945B42D20000F0ABF8002016BDC0463A
:1057E000B4D90000A8270020C00E0020F0B50500A5
:1057F00087B0EFF3108772B62E006C6F8C36002CDA
:105800001CD10221300007F0EDFC002866D02C00EE
:10581000843400220121200007F088FD0028F8D1FF
:105820000023029301225242D317009201932A00CF
:1058300039007C323C4800F067FCDAE72368AA6F45
:105840006B67944200D1AB67022233681343336025
:105850000423E2689A43033B1343E3606368002F29
:1058600047D020009847EFF31083059372B6E368A2
:1058700001211A008A43100908423ED1E260E36820
:105880009A071AD502229343E360284B1868002830
:1058900013D00021026800280FD04768BC423AD1DB
:1058A0000268002931D159681A60814200D15A60DA
:1058B000002303600830FFF72DFF02223368934373
:1058C000059A3360DB05DB0F002A02D162B6BFF315
:1058D0006F8F002B8DD100F0B9FA8AE73368DB06B1
:1058E0009ED53060002F02D162B6BFF36F8F07B034
:1058F000F0BD62B6BFF36F8FB3E711229343E3604D
:1059000020001030FFF706FFB9E70A605A688242AC
:10591000CED15960CCE79446002A01D011688C465C
:10592000010010006246B6E7A012002050120020CD
:10593000F0B5040000206067A067200089B07C30CB
:10594000261D0E9DE067F067083000604060012072
:10595000002D07D0287946427041FF264042B043CF
:105960000230FF3026008C36306001267642F71771
:105970000696079700260F480393049603000296A5
:1059800020000196009400F043F8B5420CD029683D
:10599000B14202D0200007F037FC6B79002B03D016
:1059A0000123227B13432373200000F0F1FA2467C4
:1059B00009B0F0BDED5700007FB504005830A06578
:1059C000E0650C9800262073042060730B98073262
:1059D000A0730820404202408D180A9AA660E67320
:1059E000A661E6610292099A20000192089A00924B
:1059F0002A00FEF7B9FC054B66659B68B34200D0F0
:105A00005B6E2800636604B070BDC0463012002093
:105A100070B50400002086B005900E98119D04908A
:105A20000D98109E03900C9802900B9801900A9884
:105A300000902000FFF7C0FF2B00721C01D1013342
:105A400005D02B00334305D1200000F0A1FA20003F
:105A500006B070BD200032002B000249183000F063
:105A600033FCF4E7F7D20000022310B50400FF3343
:105A7000838100F0F5FD014B9C6010BD30120020C9
:105A80000B21084A49429368D966986680230649E3
:105A90005B05486803434B6062B6BFF36F8F936842
:105AA000D86E70473012002000ED00E00D2370B575
:105AB000C356427B002B38DBD30636D180235B42B2
:105AC00013431B4C4373A3691A49E2698B4207D104
:105AD000016042601060E06111E09A42F8D01B68FA
